:020000040800F2
:1000000000000120C5020008CB020008CF02000852
:1000100041030008450300088D03000800000000AC
:10002000000000000000000000000000D5030008F0
:10003000D903000800000000DD03000809110008D2
:10004000F1030008F1030008F1030008F1030008C0
:10005000F1030008F1030008E11600080517000885
:10006000291700084D17000871170008F103000850
:10007000F1030008F1030008F1030008F103000890
:10008000F1030008F1030008F1030008000000007C
:1000900000000000000000000000000095170008AC
:1000A000F1030008F1030008F1030008F103000860
:1000B000F1030008F1030008F1030008F103000850
:1000C000F1030008F1030008F1030008F103000840
:1000D000F1030008F1030008F1030008000000002C
:1000E00021180008F1030008F103000800000000D7
:1000F000000000000000000000000000F103000804
:1001000000000000F1030008F1030008F1030008FB
:1001100000000000000000000000000000000000DF
:10012000F1030008F1030008F1030008F1030008DF
:10013000F1030008000000000000000000000000C3
:10014000000000000000000000000000F1030008B3
:10015000F1030008F1030008F1030008F1030008AF
:10016000F1030008F1030008000000000000000097
:10017000000000000000000000000000000000007F
:1001800000000000F1030008000000000000000073
:10019000F103000800B583B000F040FE384B394A47
:1001A0001360394A1360394900E02146384B9942BF
:1001B0000BD20A684B6801F10C0488689842F4D9A4
:1001C0001168196004330432F8E72E4B1A68314B7A
:1001D0009A4200D0FEE72C4B1A682F4B9A42F9D175
:1001E000274B2E4A13602E4A13602E4B05E0002049
:1001F000106004329342FAD80B462B4A934204D241
:10020000194651F8082B5B68F4E7244B1B6813B9B7
:10021000234B1B6803B1FEE701F0F6FB694601A81A
:1002200000F08EFD214C224BE41AA4100025AC42B4
:1002300014DC204C204BE41AA4100025AC4213DC43
:100240000099019801F026FC05461C4C1C4BE41A51
:10025000A410002C0EDC284600F044FD144B53F88B
:10026000253098470135E2E7134B53F8253098477E
:100270000135E3E7013C124B53F824309847E8E797
:10028000BABADECA0000002084000020F40300088F
:100290000C040008785634123254769888000020F6
:1002A000780100200C0400081C0400081C0400084D
:1002B0001C0400081C0400081C0400081C0400089E
:1002C0001C04000808B5FFF765FF00BEFEE71EF03E
:1002D000040F0CBFEFF30880EFF309807146414A29
:1002E00010472DE9F04182B004468846124B5E6B00
:1002F0009F6B9D6A1B6B13F0020F03D00E4BDB6AE2
:10030000002B0CDB0D4800F02DFDCDF800803B46A6
:1003100032462946204600F08DFD00BEFEE74BF632
:10032000AB6100F001FE0028ECD0034B4FF000421F
:10033000DA6202B0BDE8F08100ED00E0282E00088E
:1003400000BEFEE71EF0040F0CBFEFF30880EFF3D2
:1003500009807146244A10472DE9F04182B00446D5
:100360008846084B5E6B9F6B9D6A074800F0FAFC5D
:10037000CDF800803B4632462946204600F05AFD23
:1003800000BEFEE700ED00E0382E00081EF0040F6E
:100390000CBFEFF30880EFF309807146134A104752
:1003A0002DE9F04182B004468846084B5E6B9F6B96
:1003B0009D6A074800F0D6FCCDF800803B463246E7
:1003C0002946204600F036FD00BEFEE700ED00E0C5
:1003D000442E000800BEFEE700BEFEE700BEFEE7BA
:1003E00070470000E302000859030008A103000859
:0403F00000BEFEE766
:1003F4004816020800000020880000204816020861
:100404000000001000000010880000207C01002083
:080414000000001000000010C0
:1004200010B50446074B1868074BA3FB0030800942
:1004300000F090F8002221464FF0FF3000F044F821
:10044000002010BD0C000020D34D621008B50B4BEE
:100450001A6842F400721A601A6842F480621A60E4
:100460001A6842F480721A60032000F00FF80F201F
:10047000FFF7D6FF01F082FB002008BD003C0240E0
:10048000014B1868704700BF7001002010B504468A
:10049000C31E042B0FD80A4AD36823F4E0631B045D
:1004A0001B0C240204F4E064234343F0BF6343F4D1
:1004B0000033D36010BDA421024800F049FCEAE7F4
:1004C00000ED00E0582C000870B505460C461646B5
:1004D0000F2A25D80F2C28D81B4BDB68C3F3022327
:1004E000C3F10702042A28BF0422191D062921D9B5
:1004F000033B4FF0FF3101FA02F224EA02049C4070
:1005000001FA03F326EA03063443002D14DB240129
:10051000E4B205F1604505F5614585F8004370BD1D
:10052000BC210A4800F014FCD4E7BD21074800F0C4
:100530000FFCD1E70023DCE705F00F052401E4B24E
:10054000034B5C55EBE700BF00ED00E0582C0008C2
:1005500014ED00E00138B0F1807F0AD2064B5860FC
:10056000064AF02182F823100020986007221A60C2
:1005700070470120704700BF10E000E000ED00E090
:1005800010B50446042800D038B9042C0BD0094A11
:10059000136823F00403136010BD40F2B311064842
:1005A00000F0D6FBF1E7034A136843F0040313603D
:1005B000F2E700BF10E000E0582C000830B583B02F
:1005C000044603680F2B29D8236813F0010F3DD090
:1005D0006368012B01D9052B25D1A34B9B6803F040
:1005E0000C03042B29D0A04B9B6803F00C03082BB1
:1005F0001ED022799D4B1A706368002B50D0FFF7F4
:100600003FFF0546984B1B6813F4003F1ED1FFF7D0
:1006100037FF401B6428F5D90320E3E1F521944816
:1006200000F096FBD0E7FA21914800F091FBD4E767
:100630008D4B5B6813F4800FDBD08B4B1B6813F47E
:10064000003F03D06368002B00F0C981236813F0DA
:10065000020F5DD0E368012B31D823691F2B34D8FA
:10066000814B9B6813F00C0F3AD07F4B9B6803F0D3
:100670000C03082B2FD0E368002B74D07D4B012294
:100680001A60FFF7FDFE0546774B1B6813F0020F5B
:100690005AD1FFF7F5FE401B0228F5D90320A1E14E
:1006A000FFF7EEFE0546704B1B6813F4003FCDD0FC
:1006B000FFF7E6FE401B6428F5D9032092E14FF4D2
:1006C00096716B4800F044FBC7E740F22D11684873
:1006D00000F03EFBC4E7644B5B6813F4800FCAD1A3
:1006E000614B1B6813F0020F04D0E368012B01D0AB
:1006F000012077E15C48036823F0F8032169F822C0
:1007000092FAA2F2B2FA82F201FA02F21343036001
:10071000236813F0080F50D06369012B35D8636943
:10072000002B38D0544B01221A60FFF7A9FE054672
:100730004D4B5B6F13F0020F3FD1FFF7A1FE401B43
:100740000228F5D903204DE14748036823F0F80358
:100750002169F82292FAA2F2B2FA82F201FA02F2C6
:1007600013430360D4E7434B00221A60FFF788FE6F
:1007700005463D4B1B6813F0020FC9D0FFF780FE02
:10078000401B0228F5D903202CE140F26D113848B6
:1007900000F0DEFAC3E7384B00221A60FFF770FE64
:1007A0000546314B5B6F13F0020F06D0FFF768FE72
:1007B000401B0228F5D9032014E1236813F0040F2D
:1007C00060D0A368012B01D9052B1FD10023019311
:1007D000254B1A6C42F080521A641B6C03F0805354
:1007E0000193019B254A136843F480731360FFF75C
:1007F00047FE0546214B1B6813F4807F0CD1FFF7A1
:100800003FFE401B0228F5D90320EBE040F2971190
:10081000174800F09DFAD9E7227A194B1A70A3689D
:1008200083B1FFF72DFE05460F4B1B6F13F0020F30
:1008300028D1FFF725FE401B41F288339842F3D9B7
:100840000320CFE0FFF71CFE0546074B1B6F13F09C
:10085000020F17D0FFF714FE401B41F28833984275
:10086000F3D90320BEE000BF003802400238024046
:100870009C2C000800004742800E47420070004058
:1008800070380240A369022B39D8A369002B00F00D
:10089000A880564A926802F00C02082A00F0A48050
:1008A000022B40F08880E36913B1B3F5800F2CD19F
:1008B000236A3F2B2FD8636A323BB3F5BF7F30D812
:1008C000A36A022B05D0042B03D0062B01D0082BE2
:1008D0002DD1E36A043B0B2B2FD8454B00221A6025
:1008E000FFF7CEFD0546414B1B6813F0007F2AD071
:1008F000FFF7C6FD401B0228F5D9032072E04FF434
:10090000E6713C4800F024FABFE740F2D5113948BF
:1009100000F01EFACCE74FF4EB71364800F018FAFD
:10092000C9E740F2D711334800F012FAC8E74FF494
:10093000EC71304800F00CFACBE740F2D9112D48A9
:1009400000F006FAC9E7E369226A1343616A47F6D1
:10095000C07292FAA2F2B2FA82F201FA02F21343E0
:10096000A26A5208013A4FF4403191FAA1F1B1FA6A
:1009700081F18A401343E16A4FF0706292FAA2F269
:10098000B2FA82F201FA02F21343184A5360184B8A
:1009900001221A60FFF774FD0446144B1B6813F024
:1009A000007F06D1FFF76CFD001B0228F5D903205C
:1009B00018E0002016E00E4B00221A60FFF760FDE1
:1009C00004460A4B1B6813F0007F06D0FFF758FD62
:1009D000001B0228F5D9032004E0002002E00120DA
:1009E00000E0002003B030BD0120FBE700380240EA
:1009F000600047429C2C00081F4B9B6803F00C03CF
:100A0000082B36D11C4B586800F03F005B6813F48C
:100A1000800F1ED0194AB2FBF0F2174B586847F608
:100A2000C073184093FAA3F3B3FA83F3D84000FBE2
:100A300002F0114B5B6803F440334FF4403292FAFA
:100A4000A2F2B2FA82F2D34001335B00B0FBF3F0C2
:100A500070470A4AB2FBF0F2074B586847F6C0737A
:100A6000184093FAA3F3B3FA83F3D84000FB02F0E3
:100A7000DFE70248704700BF003802400024F4005E
:100A800070B504460D460368013B0E2B11D8072DA7
:100A900015D88C4B1B6803F00F03AB4215D2EBB299
:100AA000884A1370136803F00F03AB420DD0012086
:100AB00070BD40F23721844800F04AF9E7E74FF46F
:100AC0000E71814800F044F9E3E7236813F0020F48
:100AD00018D0A3687BB1802B0DD0902B0BD0A02B0E
:100AE00009D0B02B07D0C02B05D0D02B03D0E02BE2
:100AF00001D0F02B37D1754A936823F0F003A16839
:100B00000B439360236813F0010F73D06368032BCA
:100B10002FD86368012B32D09A1E012A36D96B4A2E
:100B2000126812F0020F00F0CA8068498A6822F049
:100B3000030213438B60FFF7A3FC06466368012B97
:100B40002BD0022B38D0032B45D0604B9B6813F081
:100B50000C0F4FD0FFF794FC801B41F28833984272
:100B6000F3D90320A4E740F24F21574800F0F0F8F2
:100B7000C1E740F25621544800F0EAF8C9E7534A69
:100B8000126812F4003FD0D1012091E74F4A126859
:100B900012F0007FC9D101208AE74C4B9B6803F01B
:100BA0000C03042B26D0FFF76BFC801B41F288332B
:100BB0009842F2D903207BE7444B9B6803F00C0377
:100BC000082B17D0FFF75CFC801B41F2883398425A
:100BD000F2D903206CE73D4B9B6803F00C030C2B10
:100BE00008D0FFF74DFC801B41F288339842F2D9C0
:100BF00003205DE7334B1B6803F00F03AB4209D9B9
:100C0000EAB2304B1A701B6803F00F03AB4201D0FD
:100C100001204DE7236813F0040F14D0E3685BB1A3
:100C2000B3F5805F08D0B3F5A05F05D0B3F5C05F22
:100C300002D0B3F5E05F36D1244A936823F4E05341
:100C4000E1680B439360236813F0080F15D0236904
:100C50005BB1B3F5805F08D0B3F5A05F05D0B3F505
:100C6000C05F02D0B3F5E05F23D1184A936823F444
:100C70006043216943EAC1039360FFF7BDFE134B54
:100C80009B6803F0F003F02292FAA2F2B2FA82F229
:100C9000D3400F4AD35CD8400E4B18600F20FFF7AB
:100CA000BFFB002004E74FF42D71074800F050F817
:100CB000C2E740F2BB21044800F04AF8D5E7012022
:100CC000F6E600BF003C02409C2C000800380240C1
:100CD0008C2C00080C000020014B1868704700BFE6
:100CE0000C000020FEE7000008B5034800F052F8B1
:100CF0000120FFF7F7FF00BFCC2C000808B5034622
:100D00000C4A12685AB10B4A1068033323F00303EC
:100D10000344094A934206D8064A136008BD054AAF
:100D200006491160EFE701F019FB0C2303604FF057
:100D3000FF30F3E78C00002000FC00207C01002045
:100D400001230360014B0B60704700BF04000020CB
:100D500008B50A460146024800F004F8FFF7C4FF50
:100D6000E02C00080FB400B583B004AB53F8042B9B
:100D700001938021064801F02BFB002803DD01468A
:100D8000034800F047F803B05DF804EB04B0704787
:100D90009400002010B5044601F0E6FA0146204612
:100DA00000F038F80121024800F034F810BD00BF0F
:100DB000A42D00082DE9F04385B004460F464356A4
:100DC0000BB10E461EE0042528462146ABBE044664
:100DD000384605B0BDE8F08314F9011B04AA1A4493
:100DE00002F8101C0133AB42F6D304AA13440022CC
:100DF00003F8102C4FF00408E94640464946ABBEC4
:100E00008046761B002EE3D03546102E28BF1025D5
:100E10000023E8E708B5FFF7CDFF08BD08B500F0EF
:100E200093F8024A024B9A6008BD00BF0000000818
:100E300000ED00E0F8B504460D4617461E4627486B
:100E4000FFF790FF21682648FFF78CFF616825486F
:100E5000FFF788FFA1682448FFF784FFE168234873
:100E6000FFF780FF21692248FFF77CFF6169214875
:100E7000FFF778FFA1692048FFF774FFE1691F4879
:100E8000FFF770FF1E48FFF76DFF29461D48FFF76B
:100E900069FF1D4CE16A1D48FFF764FF216B1C4888
:100EA000FFF760FFE16B1B48FFF75CFF15F0800F59
:100EB0000AD115F4004F0CD11748FFF753FF0699DC
:100EC0001648FFF74FFFF8BD39461548FFF74AFFB0
:100ED000EFE731461348FFF745FFEDE70C2D00081B
:100EE0001C2D00082C2D00083C2D00084C2D00085E
:100EF0005C2D00086C2D00087C2D00088C2D00084E
:100F00009C2D0008A82D000800ED00E0B82D000879
:100F1000C82D0008D82D0008082E0008102E000843
:100F2000E82D0008F82D000883691A888A4201D04C
:100F3000002070470268033A012A03D80233836114
:100F400001207047002070470C4B1A6842F00102E4
:100F50001A60002199601A6822F0847222F48032AB
:100F60001A60074A5A601A6822F480221A60D9600F
:100F7000044B4FF000629A60704700BF0038024097
:100F80001030002400ED00E0224B9B6803F00C03BE
:100F9000042B14D0082B16D01BB11F4B1F4A1A600C
:100FA00002E01D4B1D4A1A601A4B9B68C3F30313E2
:100FB0001B4AD15C184A1368CB4013607047164B2C
:100FC000164A1A60F0E7134B5A685B6803F03F0358
:100FD00012F4800F13D0114AB2FBF3F20D4B5B6891
:100FE000C3F3881303FB02F30A4A5268C2F30142B7
:100FF00001325200B3FBF2F3074A1360D4E7074A09
:10100000B2FBF3F2034B5B68C3F3881303FB02F3F9
:10101000EAE700BF003802400C0000200024F40082
:10102000542E0008024638B906490B6823F0040321
:101030000B60054B1A60704702490B6843F00403CC
:101040000B60F6E710E000E018010020024A136888
:1010500043F002031360704710E000E0024A136897
:1010600043F001031360704710E000E0024A136888
:1010700023F001031360704710E000E020F07F4090
:10108000014B5860704700BF10E000E008B5FFF763
:10109000F5FFFFF7E3FF08BD20F07F40014B9860AC
:1010A000704700BF10E000E038B504460D46FFF77A
:1010B000CDFF104B02221A700F4B1D600F4B1B68A7
:1010C0001BB1012B10D000200BE0204600F09AFE4F
:1010D00000220B4B00F010FF01F020F9094B984261
:1010E00001D8FFF7D3FF38BD04EB840000EB80008C
:1010F000F4E700BF1C0100201401002018010020AB
:1011000000000940FEFFFF0008B50D4B1A683AB118
:101110000C4B1B78DBB2012B08D013B1022B09D08A
:1011200008BD90470020FFF7B7FFF9E79047FFF7AA
:101130009DFFF5E790470020FFF7AEFFF0E700BF07
:10114000140100201C01002030B48B0801F00301C1
:101150008900094A023352F823400F258D4024EAC2
:10116000050442F8234052F823408840204342F8C7
:10117000230030BC704700BF003801400B4B1A6899
:1011800022F480221A601A6842F480321A60074BF7
:101190001B6813F4003FFAD0044B9A6842F0010236
:1011A0009A609A6822F002029A6070470038024002
:1011B000032822D8DFE800F0020A121A0F48036B56
:1011C000012202FA01F11943016370470B48436B96
:1011D000012202FA01F11943416370470748036C89
:1011E000012202FA01F11943016470470348436C7C
:1011F000012202FA01F119434164704700380240AC
:10120000044B9A6822F0F0029A609A6842EA001051
:10121000986070470038024010B44409064951F8FC
:10122000243000F01F00012202FA00F0184341F8B8
:10123000240010BC704700BF00E100E01E4B1B788B
:10124000033B042B36D8DFE803F0030C17222D00F4
:101250000A01D2B200F1604000F5614080F800233D
:101260007047120142EA4112D2B200F1604000F52B
:10127000614080F800237047120142EA8112D2B225
:1012800000F1604000F5614080F8002370471201D2
:1012900042EAC112D2B200F1604000F5614080F82C
:1012A000002370471201D2B200F1604000F56140A6
:1012B00080F80023704700BF1D010020044B187008
:1012C00040F2FA5343EA0020024B1860704700BF17
:1012D0001D0100200CED00E010B4012812D018B15F
:1012E00002281DD010BC7047144B18684900032415
:1012F0008C4020EA04001860186802FA01F10143EA
:101300001960EFE70E4B1868490003248C4020EA6F
:1013100004001860186802FA01F101431960E1E75E
:10132000084B1868490003248C4020EA0400186028
:10133000186802FA01F101431960D3E70000024086
:101340000004024000080240012817D010B1022812
:1013500027D0704712B1012A09D070471A48436854
:10136000012202FA01F123EA0101416070471648A7
:10137000436802FA01F119434160704742B1012A02
:10138000EBD11248436802FA01F1194341607047FA
:101390000E484368012202FA01F123EA010141608B
:1013A000704742B1012AD8D10948436802FA01F1D5
:1013B00019434160D1E706484368012202FA01F16E
:1013C00023EA01014160704700000240000402402E
:1013D0000008024010B4012812D018B102281DD014
:1013E00010BC7047144B9868490003248C4020EAD5
:1013F00004009860986802FA01F101439960EFE7F0
:101400000E4B9868490003248C4020EA0400986041
:10141000986802FA01F101439960E1E7084B986886
:10142000490003248C4020EA04009860986802FA7E
:1014300001F101439960D3E700000240000402403B
:101440000008024010B4012812D018B102281DD0A3
:1014500010BC7047144BD868490003248C4020EA24
:101460000400D860D86802FA01F10143D960EFE7BF
:101470000E4BD868490003248C4020EA0400D86051
:10148000D86802FA01F10143D960E1E7084BD86856
:10149000490003248C4020EA0400D860D86802FA8E
:1014A00001F10143D960D3E700000240000402408B
:1014B0000008024030B401281AD018B102282DD0FB
:1014C00030BC7047CB08204D083355F8230001F09D
:1014D00007018C000F21A14020EA010145F82310EB
:1014E00055F8231002FA04F40C4345F82340E7E7CB
:1014F000CB08164C083354F8235001F00700800045
:101500000F21814025EA010144F8231054F82310EB
:1015100002FA00F0084344F82300D1E7CB080C4856
:10152000083350F8234001F0070189000F258D4052
:1015300024EA050440F8234050F8234002FA01F160
:10154000214340F82310BBE70000024000040240A2
:1015500000080240012815D010B1022824D070479D
:10156000012A08D019484369012202FA01F123EA4D
:101570000101416170471548436902FA01F11943BD
:1015800041617047012A08D011484369012202FADB
:1015900001F123EA0101416170470D48436902FAF4
:1015A00001F1194341617047012A08D00948436994
:1015B000012202FA01F123EA010141617047054865
:1015C000436902FA01F1194341617047000002408A
:1015D000000402400008024010B5044682784178B9
:1015E0000078FFF779FEE27861782078FFF7ACFEAB
:1015F000627961782078FFF7EDFE227961782078B2
:10160000FFF720FFA27961782078FFF753FF10BD24
:101610000F2806D803490B68012202FA00F018438C
:1016200008607047003C01400F2833D8032931D8A7
:10163000DFE801F0020E1A25174B9968012202FA21
:1016400000F001439960DA6822EA0000D860704730
:10165000114BD968012202FA00F00143D9609A685F
:1016600022EA0000986070470B4A9168012303FA50
:1016700000F001439160D3681843D0607047064A78
:101680009168012303FA00F0C04301409160D368E0
:101690001840D060704700BF003C01400F2806D8BA
:1016A000044B5B6923FA00F000F001007047002052
:1016B000704700BF003C01400F2806D803494B6922
:1016C000012202FA00F0184348617047003C0140D3
:1016D0000F2802D8014B43F820107047200100204A
:1016E00008B50020FFF7DAFF00B908BD0020FFF7BA
:1016F000E3FF034B1B68002BF7D09847F5E700BFCB
:101700002001002008B50120FFF7C8FF00B908BD7F
:101710000120FFF7D1FF034B5B68002BF7D0984700
:10172000F5E700BF2001002008B50220FFF7B6FF53
:1017300000B908BD0220FFF7BFFF034B9B68002BD9
:10174000F7D09847F5E700BF2001002008B5032037
:10175000FFF7A4FF00B908BD0320FFF7ADFF034B5F
:10176000DB68002BF7D09847F5E700BF2001002089
:1017700008B50420FFF792FF00B908BD0420FFF769
:101780009BFF034B1B69002BF7D09847F5E700BF81
:101790002001002008B50520FFF780FF80B9062052
:1017A000FFF77CFFA8B90720FFF778FFD0B9082022
:1017B000FFF774FFF8B90920FFF770FF20BB08BDE1
:1017C0000520FFF779FF154B5B69002BE7D09847A1
:1017D000E5E70620FFF770FF104B9B69002BE2D076
:1017E0009847E0E70720FFF767FF0C4BDB69002B0A
:1017F000DDD09847DBE70820FFF75EFF074B1B6A49
:10180000002BD8D09847D6E70920FFF755FF034BA8
:101810005B6A002BD3D09847D1E700BF200100209E
:1018200008B50A20FFF73AFFA8B90B20FFF736FFEB
:10183000D0B90C20FFF732FFF8B90D20FFF72EFFCB
:1018400020BB0E20FFF72AFF48BB0F20FFF726FF23
:1018500000282DD108BD0A20FFF72EFF194B9B6AE7
:10186000002BE2D09847E0E70B20FFF725FF154B50
:10187000DB6A002BDDD09847DBE70C20FFF71CFF6D
:10188000104B1B6B002BD8D09847D6E70D20FFF7E5
:1018900013FF0C4B5B6B002BD3D09847D1E70E2086
:1018A000FFF70AFF074B9B6B002BCED09847CCE786
:1018B0000F20FFF701FF034BDB6B002BCAD09847CB
:1018C000C8E700BF2001002030B583B0054603788B
:1018D0001BB1012B1CD003B030BD00210846FFF71F
:1018E00067FC002411E000230093CDF803302B198E
:1018F0005B788DF8013001238DF802308DF80530CA
:101900006846FFF769FE0134E4B2072CEBD9E2E741
:1019100001210020FFF74CFC002412E00023CDF849
:10192000033001238DF800302A1952788DF80120F8
:101930008DF802308DF805306846FFF74DFE013412
:10194000E4B2072CEAD9C6E770B505460E46002476
:101950000AE046FA04F22B1902F0010259782878BD
:10196000FFF7F8FD0134E4B2072CF2D970BD000096
:1019700070B594B000240194204B1A6C42F0805250
:101980001A641B6C03F080530193019B02941C4B5F
:101990001A6842F440421A601B6803F44043029301
:1019A000029B0123089309934FF480030F931023A4
:1019B00010934FF4A87311930426129607231393E0
:1019C00002250E9508A8FEF7F9FD0F230393049551
:1019D00005944FF4805306930794294603A8FFF714
:1019E0004FF8FFF779F9074BA3FB00308009FEF7AA
:1019F000B1FD3046FEF7C4FD14B070BD00380240A2
:101A000000700040D34D621008B5FEF71FFDFFF7D0
:101A1000AFFFFFF7B9FA08BD064A137883F0010358
:101A20001370002301E000BF013349F63F429342A7
:101A3000F9D97047600100200023054A136001E0D6
:101A400000BF013349F63F429342F9D9704700BFC6
:101A5000640100200A4B1B7803B9704710B5094C8C
:101A60002368094AD15C0948FFF76EFF23680133F8
:101A70002360074A1268934201D30022226010BDFE
:101A80006001002064010020742E00081000002076
:101A90001C00002000B585B0FFF770FB0020FFF7A9
:101AA000AFFB00210846FFF783FB01210020FFF771
:101AB0007FFB0E210320FFF77BFB2B4C94E80300F8
:101AC0000290ADF80C10090C8DF80E1002A8FFF76B
:101AD00083FD083494E803000090ADF80410090C6D
:101AE0008DF806106846FFF777FD0720FFF794FB97
:101AF0000620FFF791FB0320FFF7E0FB00221146D1
:101B00000620FFF79BFB002211460720FFF796FBFC
:101B10000020FFF77DFD0120FFF77AFD0121002065
:101B2000FFF782FD01210846FFF77EFD002101201D
:101B3000FFF70AFB01210846FFF706FB0B490020CF
:101B4000FFF7C6FD0A490120FFF7C2FDFFF786FA3D
:101B50000120FFF767FA0748FFF7B6FE06497D2028
:101B6000FFF7A2FAFEE700BF642E0008191A00086A
:101B7000391A000810000020551A000870470000AC
:101B800081F0004102E000BF83F0004330B54FEA2E
:101B900041044FEA430594EA050F08BF90EA020F9B
:101BA0001FBF54EA000C55EA020C7FEA645C7FEA2E
:101BB000655C00F0E2804FEA5454D4EB5555B8BF51
:101BC0006D420CDD2C4480EA020281EA030382EAC2
:101BD000000083EA010180EA020281EA0303362D54
:101BE00088BF30BD11F0004F4FEA01314FF4801C27
:101BF0004CEA113102D0404261EB410113F0004F39
:101C00004FEA03334CEA133302D0524263EB4303EF
:101C100094EA050F00F0A780A4F10104D5F1200E8D
:101C20000DDB02FA0EFC22FA05F2801841F10001E8
:101C300003FA0EF2801843FA05F359410EE0A5F1BC
:101C400020050EF1200E012A03FA0EFC28BF4CF0ED
:101C5000020C43FA05F3C01851EBE37101F00045A3
:101C600007D54FF0000EDCF1000C7EEB00006EEBB0
:101C70000101B1F5801F1BD3B1F5001F0CD349083A
:101C80005FEA30004FEA3C0C04F101044FEA445291
:101C900012F5800F80F09A80BCF1004F08BF5FEA18
:101CA000500C50F1000041EB045141EA050130BDF8
:101CB0005FEA4C0C404141EB010111F4801FA4F19B
:101CC0000104E9D191F0000F04BF01460020B1FAF0
:101CD00081F308BF2033A3F10B03B3F120020CDA28
:101CE0000C3208DD02F1140CC2F10C0201FA0CF006
:101CF00021FA02F10CE002F11402D8BFC2F1200C6B
:101D000001FA02F120FA0CFCDCBF41EA0C01904020
:101D1000E41AA2BF01EB0451294330BD6FEA040469
:101D20001F3C1CDA0C340EDC04F11404C4F1200254
:101D300020FA04F001FA02F340EA030021FA04F366
:101D400045EA030130BDC4F10C04C4F1200220FABD
:101D500002F001FA04F340EA0300294630BD21FAFB
:101D600004F0294630BD94F0000F83F4801306BFC1
:101D700081F480110134013D4EE77FEA645C18BFB5
:101D80007FEA655C29D094EA050F08BF90EA020F4C
:101D900005D054EA000C04BF1946104630BD91EA44
:101DA000030F1EBF0021002030BD5FEA545C05D147
:101DB0004000494128BF41F0004130BD14F5800486
:101DC0003CBF01F5801130BD01F0004545F0FE41FA
:101DD00041F470014FF0000030BD7FEA645C1ABF2F
:101DE000194610467FEA655C1CBF0B46024650EA66
:101DF000013406BF52EA033591EA030F41F4002192
:101E000030BD00BF90F0000F04BF0021704730B517
:101E10004FF4806404F132044FF000054FF00001EC
:101E200050E700BF90F0000F04BF0021704730B5AD
:101E30004FF4806404F1320410F0004548BF404282
:101E40004FF000013EE700BF42004FEAE2014FEAD7
:101E500031014FEA02701FBF12F07F4393F07F4FB2
:101E600081F06051704732F07F4208BF704793F0B5
:101E70007F4F04BF41F40021704730B54FF46074C8
:101E800001F0004521F000411CE700BF50EA0102CB
:101E900008BF704730B54FF000050AE050EA010274
:101EA00008BF704730B511F0004502D5404261EBE4
:101EB00041014FF4806404F132045FEA915C3FF425
:101EC000D8AE4FF003025FEADC0C18BF03325FEAC2
:101ED000DC0C18BF033202EBDC02C2F1200300FA73
:101EE00003FC20FA02F001FA03FE40EA0E0021FA98
:101EF00002F11444BDE600BF70B54FF0FF0C4CF486
:101F0000E06C1CEA11541DBF1CEA135594EA0C0F37
:101F100095EA0C0F00F0DEF82C4481EA030621EA72
:101F20004C5123EA4C5350EA013518BF52EA0335AD
:101F300041F4801143F4801338D0A0FB02CE4FF05F
:101F40000005E1FB02E506F00042E0FB03E54FF08F
:101F50000006E1FB03569CF0000F18BF4EF0010E87
:101F6000A4F1FF04B6F5007F64F5407404D25FEA83
:101F70004E0E6D4146EB060642EAC62141EA555136
:101F80004FEAC52040EA5E504FEACE2EB4F1FD0C78
:101F900088BFBCF5E06F1ED8BEF1004F08BF5FEAF6
:101FA000500E50F1000041EB045170BD06F00046A8
:101FB00046EA010140EA020081EA0301B4EB5C0455
:101FC000C2BFD4EB0C0541EA045170BD41F480114D
:101FD0004FF0000E013C00F3AB8014F1360FDEBF72
:101FE000002001F0004170BDC4F10004203C35DA4E
:101FF0000C341BDC04F11404C4F1200500FA05F3D1
:1020000020FA04F001FA05F240EA020001F0004271
:1020100021F0004110EBD37021FA04F642EB0601E7
:102020005EEA430E08BF20EAD37070BDC4F10C0411
:10203000C4F1200500FA04F320FA05F001FA04F2D5
:1020400040EA020001F0004110EBD37041F10001C1
:102050005EEA430E08BF20EAD37070BDC4F12005CC
:1020600000FA05F24EEA020E20FA04F301FA05F234
:1020700043EA020321FA04F001F0004121FA04F2DC
:1020800020EA020000EBD3705EEA430E08BF20EAAC
:10209000D37070BD94F0000F0FD101F000464000E6
:1020A00041EB010111F4801F08BF013CF7D041EA68
:1020B000060195F0000F18BF704703F0004652006C
:1020C00043EB030313F4801F08BF013DF7D043EA3D
:1020D0000603704794EA0C0F0CEA135518BF95EAF3
:1020E0000C0F0CD050EA410618BF52EA4306D1D17A
:1020F00081EA030101F000414FF0000070BD50EA99
:10210000410606BF1046194652EA430619D094EA22
:102110000C0F02D150EA013613D195EA0C0F05D10C
:1021200052EA03361CBF104619460AD181EA030160
:1021300001F0004141F0FE4141F470014FF0000018
:1021400070BD41F0FE4141F4780170BD70B54FF0B3
:10215000FF0C4CF4E06C1CEA11541DBF1CEA135533
:1021600094EA0C0F95EA0C0F00F0A7F8A4EB050415
:1021700081EA030E52EA03354FEA013100F088800C
:102180004FEA03334FF0805545EA131343EA1263D5
:102190004FEA022245EA111545EA10654FEA00268A
:1021A0000EF000419D4208BF964244F1FD0404F543
:1021B000407402D25B084FEA3202B61A65EB03059F
:1021C0005B084FEA32024FF480104FF4002CB6EB5C
:1021D000020E75EB030E22BFB61A754640EA0C00DC
:1021E0005B084FEA3202B6EB020E75EB030E22BF1C
:1021F000B61A754640EA5C005B084FEA3202B6EB5D
:10220000020E75EB030E22BFB61A754640EA9C001B
:102210005B084FEA3202B6EB020E75EB030E22BFEB
:10222000B61A754640EADC0055EA060E18D04FEAA9
:10223000051545EA16754FEA06164FEAC30343EA49
:1022400052734FEAC2025FEA1C1CC0D111F4801F16
:102250000BD141EA00014FF000004FF0004CB6E70F
:1022600011F4801F04BF01430020B4F1FD0C88BFAE
:10227000BCF5E06F3FF6AFAEB5EB030C04BFB6EBB9
:10228000020C5FEA500C50F1000041EB045170BDAC
:102290000EF0004E4EEA113114EB5C04C2BFD4EBD9
:1022A0000C0541EA045170BD41F480114FF0000E5D
:1022B000013C90E645EA060E8DE60CEA135594EAD9
:1022C0000C0F08BF95EA0C0F3FF43BAF94EA0C0FDC
:1022D0000AD150EA01347FF434AF95EA0C0F7FF451
:1022E00025AF104619462CE795EA0C0F06D152EAA5
:1022F00003353FF4FDAE1046194622E750EA410689
:1023000018BF52EA43067FF4C5AE50EA41047FF499
:102310000DAF52EA43057FF4EBAE12E74A0011D24B
:1023200012F5001211D20DD56FF47873B3EB62522F
:102330000ED44FEAC12343F0004343EA505323FA3B
:1023400002F070474FF00000704750EA013002D1B0
:102350004FF0FF3070474FF000007047014B186896
:10236000704700BF20000020034613F8012B002A0D
:10237000FBD1181A0138704730B5141E05469BB0C2
:10238000184605DA8B232B604FF0FF301BB030BDB1
:102390004FF40273ADF80C3014BF04F1FF33234641
:1023A000029305934FF6FF7300910491ADF80E3040
:1023B00002461E9B6946284600F072F8431CBCBFCB
:1023C0008B232B60002CE1D0009B00221A70DDE7EC
:1023D00007B5009313460A46014603480068FFF715
:1023E000CBFF03B05DF804FB200000202DE9F0478F
:1023F0008E689E4282460C469046994637D88A8916
:1024000012F4906F31D0256809696F1A656902234B
:1024100005EB450595FBF3F509F101033B449D42AE
:1024200038BF1D46530530D5294600F07BFB0646D4
:1024300050B90C23CAF80030A38943F04003A381AC
:102440004FF0FF30BDE8F0873A46216900F0F8FA16
:10245000A38923F4906343F08003A381266165611F
:102460003E44ED1B2660A5604E464E4500D94E46C3
:1024700032464146206800F0EEFAA3689B1BA36039
:1024800023681E4426600020DCE72A4600F0A4FBF7
:1024900006460028E2D12169504600F0F5FAC8E767
:1024A0002DE9F04F9DB0804603938B891D060C46A5
:1024B00016460FD50B696BB9402100F033FB206045
:1024C000206128B90C23C8F800304FF0FF30C7E076
:1024D000402363610023099320238DF829303023A2
:1024E0008DF82A304FF0010B37463D4615F8013B79
:1024F0000BB1252B3ED1B7EB060A0BD05346324623
:1025000021464046FFF772FF013000F0A480099B8E
:10251000534409933B78002B00F09D8000234FF03B
:10252000FF32CDE90523049307938DF853301A93B6
:102530002F46052217F8011B4F4800F031FA049B83
:10254000D0B9D90644BF20228DF853201A0744BFC2
:102550002B228DF853202A782A2A15D0079A2F4645
:1025600000200A25394611F8013B303B092B4DD993
:10257000B8B10FE02F46B8E73F4A801A0BFA00F0D7
:10258000184304903D46D3E7039A111D1268039146
:10259000002A01DB079204E0524243F00203079253
:1025A00004933B782E2B0CD17B782A2B33D1039BC1
:1025B0001A1D1B680392002BB8BF4FF0FF33023780
:1025C00005932E4D39780322284600F0E9F938B1F9
:1025D0004023401B03FA00F0049B0343013704939C
:1025E000397827488DF8281006227E1C00F0D8F98B
:1025F000002838D0234B13BB039B073323F007037A
:1026000008330393099B4B4409936DE705FB0232A2
:1026100001200F46A6E700230137059319460A2536
:10262000384610F8012B303A092A03D9002BC8D0BC
:102630000591C6E705FB012101230746F0E703AB3F
:1026400000932246104B04A94046AFF30080B0F13E
:10265000FF3F8146D6D1A3895B063FF536AF099887
:102660001DB0BDE8F08F03AB00932246064B04A9D2
:10267000404600F081F8EAE7121602081816020830
:102680001C16020800000000ED2300082DE9F047A9
:1026900091461F468A680B69DDF820809342B8BFD7
:1026A0001346C9F8003091F8432006460C4612B193
:1026B0000133C9F800302368990642BFD9F80030C9
:1026C0000233C9F80030256815F0060507D104F17A
:1026D000190AE368D9F800209B1AAB4228DC94F869
:1026E00043302268003318BF012392062DD404F131
:1026F000430239463046C047013020D02368E568A0
:10270000D9F8002003F00603042B08BFAD1AA36814
:1027100022690CBF25EAE57500259342C4BF9B1AC8
:10272000ED184FF000091A344D451AD1002008E089
:102730000123524639463046C047013003D14FF09D
:10274000FF30BDE8F0870135C3E7E1185A1C30209F
:1027500081F84300224494F8451082F84310023374
:10276000C5E70123224639463046C0470130E6D04E
:1027700009F10109D8E700002DE9F04301F1430C0C
:102780000C46097E85B06E291746064698460C9A77
:1027900000F0B38022D8632936D00AD8002900F08F
:1027A000B980582900F0838004F1420584F8421072
:1027B00032E0642901D06929F6D120681368050642
:1027C00003F104012AD51B681160002B03DA2D22C6
:1027D0005B4284F843206F480A2239E0732900F0F5
:1027E0009D8008D86F2920D07029DDD1236843F05F
:1027F0002003236003E0752917D07829D4D17823EA
:1028000084F84530644855E01368191D1B68116051
:1028100004F1420584F8423001238CE01B6811600A
:1028200010F0400F18BF1BB2CFE713682568181DC2
:102830001060280601D51B6802E06806FBD51B88DE
:1028400054486F2914BF0A220822002184F843103B
:102850006568A560002DC0F29580216821F0040113
:102860002160002B3DD1002D40F08E806546082A66
:102870000BD12368DB0708D5236962689A42DEBF63
:10288000302305F8013C05F1FF35ACEB050323616E
:10289000CDF800803B4603AA21463046FFF7F6FEFE
:1028A00001304DD14FF0FF3005B0BDE8F08339481D
:1028B00084F84510136821681D1D1B6815600A0601
:1028C0000BD5CA0744BF41F0200121601BB9226823
:1028D00022F0200222601022B7E74D0648BF9BB2CB
:1028E000EFE76546B3FBF2F102FB1133C35C05F879
:1028F000013D0B460029F5D1B9E7136825686169E8
:10290000181D106028061B6801D5196002E06A06D0
:10291000FBD51980002323616546B9E71368191DAB
:1029200011601D6862680021284600F039F808B17E
:10293000401B606063682361002384F84330A7E78D
:1029400023692A4639463046C0470130AAD0236859
:102950009B0713D4E068039B9842B8BF1846A3E7CF
:1029600001234A4639463046C04701309AD00135E6
:10297000E368039A9B1AAB42F2DCEBE7002504F113
:102980001909F5E7002BACD1037884F8423004F143
:1029900042056CE723160208341602080000000006
:1029A00001F0FF01102A2BDB10F0070F08D010F800
:1029B000013B013A8B422DD010F0070F42B3F6D104
:1029C000F0B441EA012141EA014122F007047FF01D
:1029D00000070023F0E80256083C85EA010586EA74
:1029E000010685FA47F5A3FA87F586FA47F6A5FAB0
:1029F00087F68EB9EED1F0BC01F0FF0102F00702BC
:102A000032B110F8013B013A83EA010313B1F8D166
:102A10000020704701387047002D06BF3546033847
:102A2000073815F0010F07D1013015F4807F02BF80
:102A3000013015F4C03F0130F0BC0138704700BFD1
:102A400010B5431E0A44914200D110BD11F8014B4C
:102A500003F8014FF7E7884210B501EB020307D8EE
:102A6000421E99420AD011F8014B02F8014FF8E7D3
:102A70008342F5D98118D21AD34200D110BD13F880
:102A8000014D01F8014DF7E738B50546002945D05D
:102A900051F8043C0C1F002BB8BFE41800F0D2F82A
:102AA0001F4A1368104633B9636014602846BDE8B6
:102AB000384000F0C8B8A3420CD92168621893428C
:102AC00004BF1A685B68636004BF52182260046028
:102AD000ECE713465A680AB1A242FAD919685818A5
:102AE000A0420BD120680144581882421960DDD100
:102AF000106852685A6001441960D7E702D90C2364
:102B00002B60D3E7206821188A4204BF11685268FD
:102B1000626004BF091821605C60C7E738BD00BF70
:102B20006801002070B5CD1C25F0030508350C2D7B
:102B300038BF0C25002D064601DBA94203D90C2322
:102B40003360002070BD00F07DF8214A14682146F2
:102B500091B9204C23681BB9304600F063F820601F
:102B60002946304600F05EF8431C24D10C23336024
:102B7000304600F068F8E4E70B685B1B18D40B2BB9
:102B80000FD90B60CD50CC18304600F05CF804F142
:102B90000B00231D20F00700C31AD3D05A42E25085
:102BA000D0E78C424B6816BF636013600C46EBE7BE
:102BB0000C464968CCE7C41C24F00304A04205D0AD
:102BC000211A304600F02EF80130CFD02560DBE727
:102BD000680100206C010020F8B5074614460E4637
:102BE00021B91146BDE8F840FFF79CBF22B9FFF7B5
:102BF0004BFF25462846F8BD00F026F8A0420FD22C
:102C000021463846FFF78EFF05460028F2D03146B0
:102C10002246FFF715FF31463846FFF735FFE9E753
:102C20003546E7E738B5064C0023054608462360DD
:102C3000FEF764F8431C02D1236803B12B6038BD52
:102C4000740100207047704751F8043C181F002B96
:102C5000BCBF0B58C01870472E2E2F737973746544
:102C60006D2F7372632F73746D333266342D686108
:102C70006C2F73746D3332663478785F68616C5F83
:102C8000636F727465782E6300000000000000001E
:102C90000102030401020304060708092E2E2F7304
:102CA000797374656D2F7372632F73746D3332662D
:102CB000342D68616C2F73746D3332663478785FAD
:102CC00068616C5F7263632E6300000061626F7203
:102CD0007428292C2065786974696E672E2E2E0061
:102CE0006173736572745F706172616D282920660B
:102CF00061696C65643A2066696C652022257322DF
:102D00002C206C696E652025640A00005374616391
:102D10006B206672616D653A0A0000002052302017
:102D20003D2020253038580A000000002052312074
:102D30003D2020253038580A000000002052322063
:102D40003D2020253038580A000000002052332052
:102D50003D2020253038580A000000002052313232
:102D6000203D20253038580A00000000204C522019
:102D70003D2020253038580A000000002050432014
:102D80003D2020253038580A0000000020505352C2
:102D9000203D20253038580A000000004653522FAD
:102DA0004641523A0A0000002043465352203D203B
:102DB00020253038580A00002048465352203D2034
:102DC00020253038580A00002044465352203D2028
:102DD00020253038580A00002041465352203D201B
:102DE00020253038580A0000204D4D464152203DE4
:102DF00020253038580A00002042464152203D200C
:102E000020253038580A00004D6973630A0000001D
:102E1000204C522F4558435F52455455524E3D2049
:102E2000253038580A0000005B48617264466175BD
:102E30006C745D0A000000005B4275734661756C3E
:102E4000745D0A005B55736167654661756C745DFE
:102E50000A0000000000000000000000010203045E
:102E6000060708090100000001010000010100003F
:102E700001010000807C7A78767978797B7B7B779A
:102E8000787878797673757777797A78797B7572CF
:102E90006F7176797A7F8688898989868E959A9CE2
:102EA0009FA4A5A49F99969896928F8F91928D88B2
:102EB00089878483817F808688867D767470737429
:102EC00077797777797F7E7F7F7A7D7E7E7C777456
:102ED00072706C666665656666696D6F6F6F70723D
:102EE000737779777675787B7A7777787474797A6F
:102EF0007A7A7876767774767675797C7879807F49
:102F0000807E7B7A7879797D808489908F8E8D928E
:102F100099979CA5ACAEACABABA8A5A29D9899988F
:102F200094958E8A8887837E7B7D808483807D755F
:102F3000747070727474727378797979787A7C812C
:102F40007D7B7F7C7A79747171706F707272767725
:102F5000737175777A7B7A7D7C7C7D80807E7E7EC6
:102F60007C7F8585838181827E807F7E807D7A7A69
:102F70007C7C8181807D777778757374797A7B82A8
:102F8000858487898B8D8F979D9FA1A4A5A2A09BE7
:102F9000979493948D888784847F78767477797DED
:102FA00081807D7A767374757474737376747274B9
:102FB0007676797D7C7A7D7F7D7D7D7C7A79777769
:102FC000797979797675787A7C7F807E7C7D7F804F
:102FD0007F7F7F7F7E7E7E7E7F7D7978787C7C7C24
:102FE0007F7E7A797A7B7F807D7A777373706B6C62
:102FF0006C6E72787E7F7F8385888D92979AA0A56C
:10300000A8AAA4A0A0A19E9C999393918D89837E48
:103010007C7978797D7F7B7A7A7875757373767928
:103020007A7878787C7F7E7F817E7D7F817F8180CA
:103030007B79777677767574707171727273747349
:10304000737475787A7C7F7B7B7E7F80807D7D7DCD
:103050007B7D7E81817E7A787C7F8080807D7A789E
:1030600075716E6C6C6D6F72787D7D808587888FD1
:103070009398A0A5A7A5A5A5A5A39F9C9B96929074
:103080008E8A8480797474757677747374717070B5
:103090007071747673747677787A7B7A7A7A7A7BC1
:1030A0007C7D7E7B797A79797A7977767675747397
:1030B0007574717171717376787979797B7D7F80A0
:1030C00082807E7D7D7E80827E7A7877787B7D7E31
:1030D000807F7C7B7A7571706E6F717275787B7D85
:1030E0008285858A92979DA5AAABAEB1B0AEACAAF7
:1030F000A7A19D9A96918C85807B797878797C7C44
:10310000797777777777787877767777797A797745
:10311000767776757777767575747474747575745B
:103120007271727273716E6C6C6C6D707171747699
:1031300075797C7F81817D7B7E808182807D7D7DB4
:103140007E808180838482807D797572726E6E70DC
:10315000717678797D82868A9094989FA6AAACAD84
:10316000AFAFAFAEAAA5A3A09D98948F89847F7CB2
:103170007A7A7B7A787875747678797878797B7DC5
:103180007B7A7A78797778757474747272737274E2
:10319000757475747271717172726E6C6B6A6A6A31
:1031A0006D6F707272777C7D7F7F7C7E828384847A
:1031B000848280807F7E808286878785837F7A7500
:1031C000716F6D70727374767A7D81858A8D949A31
:1031D0009FA3A7AAAAABADADABA8A4A09D9A9590BA
:1031E00089837F7C7A7A7977747475757677767649
:1031F0007677777879787978777776747272737171
:103200007172737375757574747475757474737184
:10321000706E6E6E6E706E70727479797B7B7A7B75
:103220007D7F80818283817F7F7F7F828485868787
:1032300085817D7975737170706E707375777A8022
:10324000848B91969CA2A7AAADB0B3B4B2AFACA93F
:10325000A6A4A199918B84807E7C79777573737411
:103260007372716F6E70717272747374747375743B
:10327000747473737273737374757475757676760C
:103280007777767472716F6E6F6F6E6E717375771C
:10329000797B7C7D7F808284868684848584848615
:1032A00087898B8D8B88847F7A777471706F6F704C
:1032B000717275797D838B8E92979B9DA2A9ACAE1E
:1032C000AFACABABA9A7A39F97918C8884817D7984
:1032D00077777676757373727170707172737474B8
:1032E0007575747473737373737475757676767598
:1032F000757576777778767472706F6E6E6E6E6FA6
:10330000707171747778797A7A7B7E80818282821B
:103310008283838487898B8C8B8986827D79767280
:1033200070707070707071757A7F868C8E909398C3
:103330009EA5AAABADADACADAEADAAA49F9A969238
:103340008D88827E7B7A78777675757372727372E8
:103350007273737374757574737373727273747438
:10336000747473727273737374747474747271702E
:103370006F70706F6F70717374757677797A7C7F08
:1033800080818384838283838587888A8A888784EF
:10339000807B787572717170706F6F70757C8287C9
:1033A000898A8F94999FA4A6A7A9ACAEAEADAAA70F
:1033B000A3A09C97918C8884807D7B7978777573A6
:1033C00072727271717273737576777777777675BB
:1033D000767676777776767574747373747475769B
:1033E00076747374757473737272737474747474A2
:1033F00074757577797B7D7E7F8082848587898BE4
:103400008D8D8B8985807B77747272716F6E6D6F15
:1034100072787D8285868A8E93989C9EA0A5AAAD9F
:10342000ADACAAA8A5A3A09B97928E8984817F7C2E
:10343000797876747473727171717172747677774A
:103440007878777777787777777776777674737316
:103450007475767574757575757473737373747428
:10346000747474747374747577797A7C7D7E8081DA
:10347000838587898A8B8B8A8884807E7C7B7A7916
:1034800077757576777B7E808284878A8C8E8F9223
:1034900094979B9C9D9E9E9D9C9B999795928F8DAA
:1034A0008B88868482817F7E7D7D7C7B7B7B7A7B23
:1034B0007B7B7C7C7C7C7C7C7C7C7B7B7B7B7A7A56
:1034C0007A7A797979787979787979787878777773
:1034D0007777777777777876777778787778767B76
:1034E0007D7C7A797C7D8A7F827E88C29991ABB11E
:1034F0009F94B2A59E87A17F8A87758155976B3E61
:103500005C6D6E6D6B656464776A6062666C6C5F3F
:103510006E696E706E7C74777E8288828E938B92D9
:103520008B85867D86947570838E8082837F898566
:1035300086849298A0A390999FA4AA9B9A9E9B9CF4
:10354000A49B97928C8D8A867E7E76767E7E7C7812
:103550007876707879786D6E786C695E6168625B98
:103560005A565A5A6263626568767078767F858C9F
:103570009396918A8D808B8C86828885878E8986AA
:103580008488929797949C9D9B9D979E9CA5ACA5A3
:10359000A6B3ADABA89EABA99C9A99999C9897921B
:1035A0009A968686838A96979288807B7A7F7C77A4
:1035B000736E706E6F706C645B605D595C5D605DB6
:1035C0005F5B54555A59595D585F5E5E595755595E
:1035D0005A5756545959636364656464686E7476C7
:1035E000787878797B817C7D7B757B7872777C7E3F
:1035F0007B7F7E81878C91969D9CA1A3A3A1A5AF83
:10360000ABA5A2AAAAA9ABA9B1AEA5A6A49AA09F50
:10361000988E95958F908586868B8F928C8D8A88D3
:103620008D848789817E7F7F807F757373737372CA
:1036300071767871717570758079798087848682EA
:103640007D7D7D7F7C7A7571737A776F7677717205
:10365000767C7F7E7C81848A8A8C8B8D8D8A877F25
:103660007F807C787C73777E7E7B7D878E908F9544
:10367000999EA09F9D9BA0A39E97969C9C99989491
:103680008B8F897C7A747975786E646662666A72EB
:10369000727274767A7C7C7D7D7D7D7C74727169BA
:1036A0006C6A64616364645F6068676666696A72B5
:1036B000787A7D7B7F8687868988868680808480ED
:1036C0007B7A77727177736F777A7C80848A909037
:1036D00091939090908B8788848088857F7F878F57
:1036E0008B93969A9F9A9B9E9E9C9B968F8F93906E
:1036F000959295989597908A8785898984827C761A
:103700007474787A787A777C7E7D7E7D79797C7422
:10371000727072706C6E6B6B706B6B6E6F787773B0
:1037200077777A7C7E86827D828886868686857E8D
:103730007C80807974726E6A6C66646769676C708D
:10374000757F878B87889093908C878484817B7B1F
:1037500072767B7A7E7F868B8F8A8D9496989292F2
:10376000918C928F8A9398969699928E8F8E949838
:1037700096908C857F7C7F7D797B7C7D797C787849
:103780007B787E7A747579757275747074726E74E4
:10379000787877767575787C7A7B7E7C8085838275
:1037A00086847F8082858581807C7473736A6D6F67
:1037B0006C68686F75747C7F7982818082807F7E7F
:1037C00076737573747578797A85888C9291999EE1
:1037D000A19EA1A3A39E9D9B92939C999798918D46
:1037E000838687878B807D7E787576716F787C7D08
:1037F0007A7E7D7B858181807F7E7D7C7D7B7B74F5
:103800006E6F6E736F6F6D69676A686568696A6C01
:103810006D7475787A797E7D7D7D848284838180E4
:103820007B7C7C7A7875747D7E828788868A8A8A9A
:103830008B88857E77736E6E686465646E6B747753
:103840007C878E92959DA0A4A7ACA4A4A4A4A7AAAB
:10385000ABA8A49D9692948F8C8B88847E7875718A
:10386000747472747374747076787374717472741F
:103870007574716E6F6D6F6D706F6C717070747147
:103880007072727071737779787A7A787C7D7C7CCB
:103890007C79787A787574726E6B6D6E74777B80D4
:1038A0008285888C8D8F8F8B8685807B78757375EC
:1038B00077767981878B93989AA0ABADADAEADAAA0
:1038C000A8A4A7A7A5A3A29A94908F898786817D93
:1038D00079766F726B746A6D667B7581786F8775A8
:1038E00070628961867662796F8078777D7A617E91
:1038F0006C8873607780726C6E727D60706F747F9D
:1039000063787C758978916A86986F85807B7A81E7
:103910007181837C807D72878A718183817D8077CC
:103920007C7E7883768684858B878B8A99909D9E12
:1039300098A195939694979C9B9E9F9F9F9A9399ED
:1039400091959789878080737881756C756B747297
:103950006F6F6A6A6F79707F7677798277857E7EFE
:103960008A6F7E7F756D7B6C676D6863666A6A6956
:103970006C7370737576797C7979797C74827577DC
:103980007D737B71737E7E7783888D8895928B940F
:10399000898F83847C7676666A696C6E6E6C757AC4
:1039A0007D868796999FA59DACA6A9B1A7ACA7A136
:1039B000A39C91918583817E7977747278737570F9
:1039C00076777B807D7F7D7E7983807A837D7D772E
:1039D0007B796E757169706C66716F6F696E6F6BF4
:1039E0006C7371757B78837684847C85817E7A8123
:1039F00079757C737076687276697678807F88884E
:103A00008A928F9896949490858C7C768273707548
:103A100071727C757E87818C9396999A98A3A09EEB
:103A2000A6AAA2A1A99E9B9CA294928F8284848222
:103A3000787671696D73726671726F6A6F74707780
:103A40007379707A74757B7D747A79737876757111
:103A5000796C746D726F7476717574827A7D827E02
:103A6000807E7D807E7C737F7771796F6A73706BE7
:103A70007771767281827F8A898A8D918884848029
:103A8000807F767C7B7D7C7B7C7F83808B918E8925
:103A90008B90919098A19E9A9E9EA0A39B989A9796
:103AA000999C988F918E8A8982837F7E7976766EB3
:103AB000656D665F6864646662676D6B6F71717770
:103AC0007B7B8086837D8584808282817A7F7B7EFA
:103AD0007D73757773706D6E6D6A716C6B6A6B6DEB
:103AE0006C737476797B82888A8E948F999A989673
:103AF0009092827F7875747069676A66686770767D
:103B00007B80848C8F8D93999FA8A9A6AEB0ACAF13
:103B1000ADAEA8A1A3A49B958F8E8780797879718B
:103B20006E6C6969676166636466696A686E7472FF
:103B300071767C7E7F818281868580857C7F7D79A0
:103B400076757471736D6B6E6C6C6A696F69707287
:103B50006A71756D6F7773777C7D858B898C939592
:103B600097979A9794918D857D7D7775716D6F6C20
:103B700068697173778281808B8B8D979C9CA3A7DA
:103B8000A8A8ADB1ABABA6A4A3A399949490898641
:103B90007F8382797E79717372676A696867646B03
:103BA0006B636A6B666B6D6B6D73747A787B7E7F0B
:103BB0007F80868682888583878082827E7A7977F5
:103BC0007672706D6B676C66626B6B706E73757816
:103BD0007E7D8089888B918E8D91928D8586817B6B
:103BE000817B7B7576797A7C82838688848C8F93BF
:103BF000929797989CA19F9DA09E9D9A989991912C
:103C00008E888984837F817C7F7D7C7D79777876BF
:103C10007776747A74777976737674727473747352
:103C20006F6F71706A6D706F766F7371727778777E
:103C300078787578797B777B7A7876777678787705
:103C40007B7A7F7C7E80828586898C8A8F8D8A882C
:103C5000827E7B7676746F6F6C6E6B7477797B7B0C
:103C600083898E8C939597A0A3A6ADACACAFADAB7A
:103C7000A9A7A49F9995918A88867F7E7D7776797A
:103C800073706F6D6D6C6B6A6E6D6D6F706E706F53
:103C90006F72747473747575767372757A7B7B81C9
:103CA0008382807E7D7A7B7A777A7B79777573736E
:103CB0006E6D6C7275777776777A787C7C8DB3A928
:103CC000AC808C8F50564D3E4C6D645B82807D95F0
:103CD00092AEAC9CAE9395969AACA3929F99889124
:103CE00079ACA1898B6783807E76727F76727866E5
:103CF0006B78798A787173717E808E9E90A29F8C8A
:103D0000978D8A8682796A68696C707C716B6A6843
:103D100070655D6A777D7B7E9081879896978A92A1
:103D20008D898C818B76857570776D8674847273BE
:103D30007B7C888073866C596D6A6F757D79828211
:103D400082798A87938577819482969891988B93CC
:103D50007882797672797A99776B6B6F69738970EB
:103D6000787E827890939499A09FA5859381878986
:103D7000878B829D868987978891847A7B6E73680A
:103D80006D6C6C85817F8C79827E696D787F7F8098
:103D900095887E928A908C899D928B8C8B887B777C
:103DA00076656E675F585A67616E7C7F7A76828926
:103DB0007A857B807F93A094938C938B8F868F8959
:103DC0008789797B72797F7C87828886768874730D
:103DD0007D6A686A79726B77817C828583767C885C
:103DE0008E898D8E8A98909490878993888B898408
:103DF0007786786B6874706D81767F6D6E757D6D7A
:103E00008C868C818D968995888F8C978888828BFB
:103E10008A887B7D80888D898A8089816C6C7162BB
:103E2000776E717A747A7179767781797B877C7D08
:103E300087818790949A9E929395898784887B7FC7
:103E4000816E6B6E69696A6A7581797F848184711C
:103E5000798088838B908D817B84827C787E757954
:103E6000748B828B818B99838E768286817F827020
:103E7000736D6871717F787F8282878C8883888771
:103E80008B818296929592918F878A828693767D96
:103E90007F797176756F7F6475777D6D73787C78C7
:103EA00075827889878A848B8C8586888A8B858EB3
:103EB0008F807F80787077696B7A737B746D6E7595
:103EC0007477767B877F87898F928B8B8B7F8781B7
:103ED0007F898F8790898A8E899285837A7C726A9E
:103EE0006C796C707B6A737877848087887E8E7D2E
:103EF000898B6D7974757B889B8195857376777BCB
:103F00007286918A80878B857D80807A71766E77C4
:103F10008783808377726E657376847D81868B8ECE
:103F2000898B969893989197907A857B7D69727C1E
:103F3000777A7A836F7B7075817B7C8277828488C5
:103F400081838B8186797281888790898382898B2E
:103F50009C8B90737B7B747E6D776F7B837770799E
:103F60006E746E7D77837B7C7473807D87858D8E88
:103F70009790959299949D86877F6C706D65676424
:103F80006F6F6179747C7C837E79758C77848D8387
:103F90009B8A898C88909982877F857F827C757EB9
:103FA0007A8680857C8987788675616C6873848C55
:103FB0008E8188828779777378757E847D938C90E3
:103FC0008A8D898A7C90867F847D74626765595961
:103FD00068647A788790988E979092877E81819C8A
:103FE00090959A988D8E83927E7E857A796D737383
:103FF0006E6B746E7166677375818487968F8B8D17
:10400000948A89837C836E7D7E8A8B858C8F8A8956
:10401000847B7E6D6974746D7E6F7974727C6F754C
:1040200069707A7487858A8F8094949183838C9445
:1040300088889476776A6A797D807D7B77777277D6
:104040007D87819389707378818696828782848444
:1040500080838783817C72858CA09F8D86887A7807
:1040600081797572676A68747E7B999C8884746DA7
:104070007B7D7D8386898B84958D858B8A887982EB
:104080007E6F7C7D756E6F6F6A746F737977807EDB
:104090008278777C80857C817B84959990977F82DC
:1040A0007B7584738A8A8D7E8E7F857076917B7115
:1040B00069845B8677627379837B7D939782A38A19
:1040C0009F89718C9783858D8C8B636F717C7D63E9
:1040D00074736B7A698A6C8192737A7C8D8896800E
:1040E0009494877C7D778D8C72817B7E727E7781C4
:1040F0008981827C948587877C876D7A6B6C7576E5
:104100007F6D6974747C868F938E9C9299889D983C
:10411000969487877C83727B7B77697572766F6CE8
:1041200067676F757A768383837C8C788B8B8F9AA5
:10413000869092777C8E7B827A74737B7B766F7CA1
:10414000797B84808A848E8C8475716D777272809D
:1041500074827780968B808B8A85899593889087E7
:104160008B827C72756F6F737278757876827976D0
:1041700076717984858A7D92908E9389978D888FC8
:104180008E7F7C737069756A726F687E757B8180C3
:104190007D8B9489879284808C8B848C8887847FA4
:1041A000887D8083777D6C6B746F77738079837D76
:1041B00085828389849484928A86868E8880837897
:1041C00076807E76846F7C7969757B827B85767E4E
:1041D000867C8E898A90847D87807D968D8584817A
:1041E000787A7C7C81787B76767A7D747E7C747A32
:1041F0008078829284858C8F7B817C72807E817DA9
:104200007773797E838C7484878781848C7F86849E
:1042100085768177807B8483858581867C7A6D7BBA
:104220006A7A707B77818A7E8B87927681837C84A1
:1042300089848388857A7F7D7B8379767E73707BA2
:10424000797C687A706F7D8084868F81787B8489A1
:104250009391958D8F8889887A7C787D848072711E
:1042600070746764766E6B7A757C8D8686868385BE
:104270008C8F86949392A2928E8A8C8786897C7684
:10428000726F636D6A6A6F6F77787F7E7F808483D9
:104290008085878B87948F838D878B828E92898F81
:1042A00082857E7A716A6F7272767A7871707872AE
:1042B0007578797B8389848681888889938C8B89BA
:1042C0008E88827E7D8889847D83827B7674796DF9
:1042D0006C686C736D6B7277807E7C8B88888A8C3F
:1042E000938E888F8A8C89888B8F8781887D7E7555
:1042F0007570777A716B706B69726D78767D7B7F84
:10430000858B8C848488828E9392928D8E8889820C
:10431000888087898486847D7A737378646E7068F8
:104320006E7475777E797D817F8B8E83838782849F
:1043300087898C93908F8B878A85837B7679766D3E
:10434000737974707773747C78787876727A7A7A05
:104350007A838C91928A8687898B898C8E808586D8
:104360008D8B8785847C7A867C7A7677746E757976
:104370006971756F7575707B807D85838484858890
:104380008E8B8A88958E8D978F8E8A8983827F7C8B
:10439000747569686D74736D79767E7472797880DE
:1043A0007778807F808383848D979791978E898C8F
:1043B00083857F8080847A7E828186797B7D787018
:1043C00078777070797373787B807C7C7D817E8058
:1043D0007D828183818185878686898587838484A0
:1043E0007B8182838583858484807F7B7E7F7B7CC9
:1043F0007774736D77777781747B7C7F898A8889FE
:104400008986817E7E7680807D7E8182888D878789
:1044100085867C7B7B7B807E7F7F80868280858596
:10442000827E7F7D7D7C7F7C807D7E7E777A7878C2
:10443000787D747A807A827C7F8379828884878C85
:104440008C8685888A89858B8B8285868081887D0C
:104450007A7B73747173777A7778797676757A78F0
:10446000787D797A7C7C82858482828683858A8B3A
:104470008E9089878787848081838985837A7F7EF0
:104480007F7B7D7E7F7D7D818E9190968F918A97B7
:1044900095A47F96A0A49A7F9E918B779176857C38
:1044A0006A73677967696B6254635B67775A6662A0
:1044B0006F7D676C7B7374747A8B71838688907858
:1044C00096847F9E83909C83837E737C746E766ECD
:1044D000595A6D65584A495060595660637D7B8CC6
:1044E00085757F818F939C91908781989387848B2A
:1044F0008D8D939B9DA29DA9B2B3B2ACB4ACAAA87A
:10450000ACA59D9C9C93908E939A918E847C74789C
:10451000748081817C7B71737D777C727A7F827DF0
:10452000868A83878A8B8781888B8E9190919287E8
:104530008581837F728371757369716D737B727D01
:10454000807B8A8288849493807D839296948785E9
:104550007F7A777068686D7B7D7C786C676C73732D
:1045600075696C686B706E716C645B5A5C5B5F66DE
:1045700067756F726C6B76757D797A7B83898484BD
:10458000857E8386837F7B77767374776F6E6863AF
:104590006762626A66656168727A777D7E81898406
:1045A0008C858F97989A9695949490878C8986910C
:1045B0008C90968E90999E918D918F9087878F94F5
:1045C000908A84838182938F888E969B948A8B8E27
:1045D0008993A1A6A1A19DA0A3A1A5A8A4999E9BF2
:1045E0009A9E9D8F8D86797A7779757678747276B2
:1045F000746F7B7A7B7A8388828984847C7E7D75E4
:1046000075756D70726F6E6F6D6268646A666863EF
:1046100064736B70777E7C7D817D7D78737C7C7626
:10462000737879747D7369706E717A7274727B7C41
:1046300074737174757B77787D86898A85888B8B96
:1046400089878280848287847770706D7274757AAE
:104650007972797E828D8C8B9092959A99949697A7
:1046600095958C8788878083827D7C817E797C7C10
:104670008084858088888989898E8E8C888D8F8BAF
:104680008F8F8C8A88898085848187817E858180CF
:104690008182837E837D7C7C7E7D777B7F8682802A
:1046A000808386888C878B8D8E90888E8885837E8C
:1046B0007D7A777378757470747875716D73787AA4
:1046C0007F7E7A7C7A7276787A8181868480878C04
:1046D0008787858A8B847E8080797672706F6E6A18
:1046E0006B6D6E6C70736F707879797D8285888957
:1046F000888B8D8F8B918A8B8B888B88837F817B36
:104700007573706D6E6D6F686D6F6E787F7B7A8379
:1047100084868585898F8C8E908E8C888A898788FF
:10472000878B858688888582877D76747675737693
:1047300076757C7F79797D7C7F8584898B908B8968
:104740008787898988838889848886868983848203
:104750007D7C817B7B7A76757075746C72766D71F9
:1047600074727075797D7E8086868A8C8E908F9526
:10477000908E938C8E8C8786837F7C797874706F13
:10478000726D676F6D73727476787E7B7C807F7CD0
:1047900081817E84888B878889838A8486858587C2
:1047A0008786858180817B7C7B7D787A7A78777932
:1047B00078737678787A7A7E7D7E7F7B817F837F3F
:1047C00084828688858A868686868685808580819D
:1047D00084817E827E7A7B7A7C7A7A79777A757622
:1047E0007B7580797B7C7B828283838482838587CF
:1047F000848788868483807F7F7F7E7C7E7A7E7FAD
:104800007D807F7F807D80817F828383817C8080AB
:104810007D7F7D7E7B7D7F7B7A7C7B7E807C7F80C5
:104820007E80807E8281808484858586888584865A
:1048300086838588838183817F827F7C7D7B7D7B6E
:1048400079777877767A7A7979797A7D7F7E7D7FC4
:104850007F8082838283868483878687878485841A
:1048600083858283828381828084807F7E7E7D7C3B
:104870007A797C7E9089988D959AA89098AD9C9A2B
:104880008EA98BA3987A85957C776D547D5B465D68
:10489000683A5751536A757965A28385677A897E2C
:1048A000859C75628B7CBA8278787A877C66636D2A
:1048B00065644F5D36415654403C6C606B66527B7C
:1048C0008B756A7D85A1A09C8A939B9CB39AA09BC3
:1048D000A69AA8A7A09E909C9D9C91988C90959438
:1048E000938D9395878D92888B9A95867C7B868A0B
:1048F0007E6F757575808C767A8081848885818CD1
:104900008F989E96938A78868F8B8684949E9CA39C
:1049100095938D898C929391978A86797179747227
:104920008277767A737472697D715B605E78716C80
:104930006D7A756B6C635E76928D8B76767D74770F
:104940007B76786E7276757B6D605E6160645F68A1
:10495000696667635E606969706E727A8175707A84
:10496000787A7C776C777C82837C837F878882925D
:104970009B8D908D888988847D7C757677705F7734
:10498000828289898B8B929199999C9DA7A29BA0E9
:10499000A2A8A19197A5A09798A19C97948B818A92
:1049A0008D8D7D77787979686D66656E7E757379A2
:1049B00074767A8281837E808D8881827A7A7A7811
:1049C0007D7C7D7D7F8076787D7C7F7F7F81848408
:1049D000817A7E7F737B807B787376717778757749
:1049E000717A7E808B867F8D8A84898D7F7B837CA4
:1049F000746D69757A747E89938B939990929DA357
:104A00009B999DA89C97938C9A8F878C8C8B93896C
:104A1000848880867B7A7C787B7B837864666D6B08
:104A20007070756B6F747B7A707E797C7D7976742B
:104A30006A7174666C6A6D6A626575767375767F85
:104A40007F828B8D8B8380848E8A8288807D797F24
:104A500080857F79747A8376827A7989837C83836F
:104A600083857874766F6B72787C7C85928F8C8E60
:104A7000969A9898A1B0A6A0ABA3A19E969B94925B
:104A80008E8D908B9087898A827F7E8585898083B1
:104A90007B757771787A706E78706973766B6972EE
:104AA000766A676D646C7162676B6C6A6C7275793B
:104AB0007B78797F80878488818285838B858684D3
:104AC000817C807E7E7E7A7F727474737879716D5A
:104AD000747879777977736D71736E696E78787D94
:104AE00088939295979C9FA3AEB6B8B3B6B8B5B06D
:104AF000A6A2A49C998F8D8D7F7A7A746A6D696C59
:104B0000696C70706F696A6C6E6D7470747C7C8196
:104B10007D7C81878A857E8789848483867F7D7E6C
:104B20007D78737577746A6B6A6E6F68696F6C6E87
:104B30006F6F72727773787F7E81827F80878E8CB1
:104B40008E93918F8D8F9390938C80807E757272EF
:104B5000716D71747A7E757E808386868C93979C46
:104B6000999C9E969A9A9A9898938E8B908B88840B
:104B700081847F7E82807C8A7F7F7F82807D7E8031
:104B80007D7D837879797A7E7E77766E71756B6FAD
:104B90006E6B6B6A6A6E6A6A6E6F6D6A7077757239
:104BA0007477767E7E7E84868482848B90838B8BE2
:104BB00085858888858780807E7C7E827F797A7EE5
:104BC0007A7677747078716C7476757079807B758D
:104BD0007B84878287868A8C8C93938E8D95919423
:104BE0008D9095908F8E8E8E8A8F8D868B86878600
:104BF000837D7B827E76777575716C7076726A6F55
:104C000074757271787978777A80807F80808589F1
:104C100086888B8C89868A8D8C84898C8989858607
:104C2000858181847C7C807B7772757772727474E5
:104C300075747477787A7873797B7A777B7A7B7AF4
:104C40007B807D81818383848B88878A898E90880D
:104C5000888E898C858B89878081807B7C8295A1D9
:104C6000A09FA199A195A4839AA79F9897A1768FB9
:104C70006FA4A55F78797C71706E6F696E706474D3
:104C8000627B56818D3E637188707869707B787A1B
:104C90006B7D73797C7B7574727774696F726D73D9
:104CA0006E6C7A5E64786E686978838E7A7B929295
:104CB00090909192A2A5A7A4969EA9AAADA39CA00C
:104CC0009EA0A7A59D9A9994949492928A80838796
:104CD000837D78787A7B75716D6A6D77746A6B679E
:104CE0006A67625F5F5E5E616564646A6B6D6F7365
:104CF000716E7475797E807B7872707A797E818529
:104D0000888B949A979695959C9E9C99A3A4A0A312
:104D10009D989B979A9B9B9CA0A69C9A94989A92EC
:104D200086888A8C908C89898B86837D7A7C8B8F10
:104D30008D8E88827E7E797C757574736D6C726DD4
:104D40006A605D5E5D5558595C5C5A595453595AB6
:104D5000585B5A5E6665626260656766625F5D6049
:104D6000656B6D6A6C6B6E6C70757B7C7C80808211
:104D700083807D7C7C7D7F817C818C9399999D9CB7
:104D8000A0A7A6ADB0AEB2B7B6B0ACABAFACA8A35F
:104D9000A5A9A8A59FA3A6A19B9991909394958A54
:104DA0008A8D8B88807D7A777C8385827F7C7A7AF6
:104DB000787B7E7B7875787978756F6F6E6D6F6FA5
:104DC0006D70747372717275777977777C81838671
:104DD00084828484858584838282868481838180A1
:104DE0007E7C7D7E8384828386888788858182829B
:104DF0007D7C7976797E7F7E85878C909090919767
:104E00009A9C9A9EA2A19F9994908F8F8D8583855D
:104E10008686827E7F7E7A7A7873707376746E650A
:104E200062626162696C6C6B6B6D707273767474C4
:104E300075757877716D6E6E6E6B6D6C6B6F6D6F77
:104E40007476757477787A7E8386848683878A8A77
:104E50008A8A8987888A8C8A8B8B858584838485D6
:104E60008485898B8A888E908E8D8B8986848382B7
:104E70008284868A9091909392979C999EA3A6AAE9
:104E8000A7A4A2A09D97928C88888382837D7D7C35
:104E90007D7B73717072787B787672706E6C7072D5
:104EA00075767575797A7F7F808182868580817F2E
:104EB0007D7E7A767674717071746F7175726D6DB6
:104EC0007171737674737171747678797A797A788E
:104ED0007B7E7D7C7C7B78777879797C7A77777933
:104EE000797B7F82827F787A7B767674797B7D830B
:104EF0008887888C8E9091969EA1A2A6AAACA9A71D
:104F0000A19C989393938C8A89888884807B7C7CED
:104F10007C7D81827E7E7C78747473737472737707
:104F20007675737476757778767577757573727034
:104F30006F6D6B6B6B6D6F7271707173747476776C
:104F40007577797A7D7E807F80818284858587866A
:104F500085838286858385837F7D7D808084837E33
:104F60007C797777736E6E6D7072777C7F808286C6
:104F7000878C91989DA2A7AAB0B0ABA8A8A7A3A21E
:104F80009F9995938F8986807976726F7174757009
:104F900071706B6969686668696B6C6A696C6E715F
:104FA00072727473747675777778777473717274BC
:104FB00075757472747574777777787878797C7F83
:104FC000808183828385868887858486858484869C
:104FD0008786827D7D7E81828284817E7C7B7775DF
:104FE0007271717276797F838182888C8D8F9599A9
:104FF0009FA7AAABADABAAACA8A3A0A09C96928E8B
:105000008C88837C7571707072716E6D6E6C69675F
:105010006666696C6B69686A6D6D717373737273C0
:105020007476777677767372737373747272717243
:10503000717272757273727273767A7B7C7D7F8007
:1050400085838888897F88818B9B8AA58A779693B8
:1050500080926F809F72818F815F776B76747F768D
:10506000698D7987628C857C98A07C87A8ABBE9A75
:10507000B2A2A8B2B5948FA08C869E8F6984797CE9
:10508000667F7A61986765898D69717F73836B84A8
:10509000756E69807376736C76506F6A79605B6A3F
:1050A0006A696F71727B6F7E807581867B8E857F6A
:1050B0007C827D787D707681797782777882807B3B
:1050C00079797A7D84847F828383828A908D8D8DA5
:1050D0009A9090898E84787F71796F6D6C817877E2
:1050E00078787D748489848B9C929C9BA2AAA8A1C9
:1050F000AEA6A19F99A697928F9979808971697FB1
:105100007D7776687C6F686F756C74696E72757880
:105110006A7277756F776D75716E77727377727764
:10512000796C727073686E79697470676471756E8A
:105130006B717976847A7E9391858B8A87868E8946
:105140008E8984867E816E8174798076817675758C
:1051500073706C6B6E6A74787580807D8C9390969A
:10516000A3A39DACAFA8B0B2B1B3AEAAA3A29694CC
:10517000918E8A817E7071746A6B736F6F6E6F78B7
:1051800080767D8579807D8084848B7F86897D8112
:105190007F787879756C706F686C736D5E6C6C6A13
:1051A0006C696E6F7370717071797475827B7D85B7
:1051B0007E828D8D83878B8988858287827E7A81A6
:1051C0007F6E7A7E7476807E787077796D74687081
:1051D000796974777477827E888E8F9A93A5A8A652
:1051E000A7ACB9B3AAB6B4ACA6A6A6979E9A99885E
:1051F0007E837B7A777374726E7971707273786D57
:1052000066717A706E727579737174746C6A68689D
:10521000756A6B6B6B6F6A6B7175716C6881767593
:105220007C6E767D76767A727B7972787B787B7D00
:105230007E7F777F857F7E807E817F798285778183
:1052400087838B8384898780787A787E7C727C7E62
:105250007D7A8286878A8C9C96999A9FAAA0A1AF14
:10526000B1A3A3ABA49A9C9E988F8C837B887E74F9
:105270007672757071787B7678787B7A7C7D7C80AD
:105280007A847F7D7F7B7D777273736A6C6C706DBF
:10529000676B6767666765646C736A6A6B6B696A7C
:1052A00070726E6B747574777E838584838686874F
:1052B0008C90908B8E8D908E878A8C8885848B883D
:1052C0007A777A706C6A63665E646969696D6E721A
:1052D0007A828C8B969CA1A6A5ACB8BDBCBBB8BE8F
:1052E000BEB9B5B3AEA1A29F948983807F746D6867
:1052F0006468635D61645E5F5F60606566636D7076
:1053000071737171757A7A797C7F80817F80807EFC
:10531000837E7A807F787C7E78757776796E6A6E08
:10532000686D6867696B6B6A666C6B6E72737778B1
:105330007D7D7D7F898A8D8E959998979B8F91939E
:1053400085858185807E7E7D777D817D82848C8F41
:105350008C8C8E8B97989499999D9E9EA3A1999AD7
:105360009C98908D90908981827E7F827C7E7E80C9
:1053700079777B827C75807B777A817B7A78787984
:1053800073727677706E71736C6A6E696A6E64663A
:10539000696A676770706B676C726E6B6F6E737241
:1053A000777D7B797C828384838B8D8C8D8E908FAF
:1053B0008F948E8E908C908C898183857B78797682
:1053C000756F6C6F706B6A72767773777D7E818292
:1053D000878C8A8E91949B9D9C9FA0A19D9D9E9D54
:1053E00098929692928E8989868185837C817F7A34
:1053F0007675787772727474747272747478737468
:10540000797978777A787B797B7D7E8280828182D8
:1054100086818483848A877E85858784838A838244
:105420007F817F837B818481757A7578748184968E
:1054300094858A90AF82B09797859BAB9C9974B204
:10544000827890994F78745F6E63754C716166478E
:10545000677958766E636C7B737B6E5B7B8C73872E
:10546000797C84706C897E5BA566406A70866D78F5
:105470006A6273846F5E756F6765716A6D6C676170
:105480005B5A6874626B7678687C8681878B879BB1
:10549000B39DAAB0A39AA6A7A8ABAEB0AAB2AAA081
:1054A0009DA7A89E9C9E9C99988D8B8F8D958A898F
:1054B00086878C89847E808282797A7A7B71727702
:1054C00071706F6B6A696365686566635B5C5B617D
:1054D0006A656A6F696E6C6F717B7B7E847D848484
:1054E00088828E8A9491898E868A878F818D838324
:1054F000878281858C83827E87858E8C9293989912
:1055000098989A9D969C9C9B98A1A09C97949A98F9
:10551000928F94898C908C7F7C817D797D7E767949
:105520007574767567635F5C5A5C6563625D5E5433
:105530005651555B5B5F535857545653585D5C5BEF
:10554000585557595C615D61696A6D7373737B79F6
:105550007A7D868A88898A868A8F8C8D8B8E8B8DC0
:105560008C9193938F9094929796A0A5A3A2A59EB9
:105570009E9B9A9F9FA29D9D9D9A9B9E999DA09D5B
:1055800098959A95919691868A8D8D918886868632
:105590008582838286888A8D91939699999B989724
:1055A0009DA19E97928E90908F89878A878A8A8301
:1055B0007D83817C757B7D73726D6E746B696B61AD
:1055C0005F6460606B6E746E6D7471707378787404
:1055D0007E7D7576747A77777A79726C716F6E6F7B
:1055E0006E6C6E6E75757477757B7A7A7D817F7857
:1055F0007A7E83838083827D7A7D797E7E777874DC
:10560000736E70727777726D787A6E7472767D7D54
:105610007D7E787D818086898C8D939091908D910F
:105620008B88888887837D7F8076767B7B7F7D7C77
:10563000828791969B9A9DA5A5AAACB0ABA8ABA872
:10564000AFACADA7A4A5A6ACA39EA09F9990929144
:1056500087817F7972777A73746F63626163636243
:10566000696F71706F7575747C7C807E7E7D797DCD
:105670007E807D7974726C696C6C69626664666642
:1056800067656066706F6D6C696C6D72767B798131
:10569000837E8181868887878987868484848284C3
:1056A0008483817E7E7B7574777B797375797A7E4E
:1056B000817D8282888F918F90928C8A89908D8C47
:1056C0008B8986807F81807B7774797F8080828BD5
:1056D0008A8E989997969B9F9F9C9C9D9D9B989C3A
:1056E0009F9E9D9D9A989B9C9797958C8A87838275
:1056F0008485817C77706C6A6767686C6C676B6B9C
:10570000666B6B6B6969686B6B646A6A6D6A676903
:105710006B6A6966696A66696567686767696C70FC
:1057200072726E7074767B827D808B8281848C8BAA
:1057300088888A87868881807D818685807F787B3E
:105740007B7476777C78767D807A7D808284879280
:105750009B9E9A9A9A9AA3A0A1A19E9B9594938DA1
:1057600082857D76777C797677757D828789918F42
:105770008E959A9A9DA09A9B9E97979C9996939B9B
:105780009D9B989699958B87838482838A87817D58
:105790007A74716D6D6E6C69646566676965626661
:1057A00063636667626068635D6160615D585B60EA
:1057B0005E5A5D5F615E60676B6E70727374757563
:1057C000767F858285878A88868C908E898E8E8C5E
:1057D0008A8687868485858283827E7A76797A75C1
:1057E00075777A777373777A8181818A8F8F8C90BE
:1057F0009092928F9090938D88827B7A7675747058
:1058000072716B73777B82858C8D92979CA2A6A612
:10581000A7B0ADAEADACACAAA5A0A0A7A8A0A29E13
:105820009A948F898786858381807A7674736E6770
:105830006869646165696F726D6B6F706D707373A9
:105840007273716E6F706F71716C6E6C6A6563608C
:1058500060666465626463605E616262626365661D
:1058600068686D6F7176787B7B7D828281838382AD
:1058700087898C8C8E8D8C8A8B898A8D8A8C88877F
:1058800082868986878E9296959598959596999910
:105890009B9798928A8A86827D7973726E707472F1
:1058A000767980818389909393979E9EA0A5A6A8E0
:1058B000A5A5A3A5A4A2A5A9ABA5A3A09F9A9591D0
:1058C0008F8F8C8786847F7A74716A676563616263
:1058D0005E5D5E5C5C5A5A5B5A5C5F605F5E5E60F8
:1058E00062646767696A696966686C6A6C6E6D6F25
:1058F0006E6F70717272767474737474737575757B
:10590000777A7B7C8080828180858686868B8B8778
:10591000888988878985848581807D7D7D7C7F815C
:105920008487878D8E8E9091969798969A99979561
:1059300092918A857F7B787471737373767B80858F
:10594000888B9595999CA3AAA9ABABAFAEAEADAA37
:10595000ABACACAAAAA7A5A19D9894918B8886838D
:105960007F7D77726F6C67646261616161606362A1
:1059700063656667696A686765666768696A6C6CAB
:105980006C6A696A6B696B6D6D6D6D6D6E6F6D6D57
:105990006E6D6B6B6B6B696A6B6D6A6B6F72747239
:1059A00076787978797B7B7A7E7D7D7D7A7E7E7C48
:1059B0007E7D7E7E7D7C7E818284878B8E9093959A
:1059C0009798999C9F9FA0A2A5A19E9D9A95918C26
:1059D00086847F7A76757374777778787D83878B02
:1059E00091969DA1A2A7ACACACACAEAEAFB0AFAF40
:1059F000B1AFAAA7A29E9A96908D8A88837F7B7565
:105A0000716C696865656360605E60626262626154
:105A1000605E60605F61636566676869696A6D6F33
:105A2000707071707172747474747475747472714E
:105A30006E6B6B696A6A6B6B6B6D6D6D6E7070709F
:105A400071737576767778797A7D7E7D7E808080B9
:105A500083858788898A8D8F929495979A9C9C9D3F
:105A60009EA1A2A4A5A29F9F9C97928E8A847E79D4
:105A7000757371706F6E6F7175787D83878C919778
:105A80009CA0A2A4A6A8A9ABAEAFB0B1B2AFADAB7B
:105A9000A7A29F9C9997948F8A86827D7A7773704C
:105AA0006C6A676565656464646463615F5E5F5EBC
:105AB00060606161626264666568696A6A6B6B6D89
:105AC0006D6D6E707272737373737272706E6D6ED1
:105AD0006D6D6D6F706F70727273747576777776A7
