:020000040800F2
:1000000000000120C5020008CB020008CF02000852
:1000100041030008450300088D03000800000000AC
:10002000000000000000000000000000D5030008F0
:10003000D903000800000000DD030008E9100008F3
:10004000F1030008F1030008F1030008F1030008C0
:10005000F1030008F10300083115000855150008E8
:10006000791500089D150008C1150008F103000866
:10007000F1030008F1030008F1030008F103000890
:10008000F1030008F1030008F1030008000000007C
:10009000000000000000000000000000E51500085E
:1000A000F1030008F1030008F1030008F103000860
:1000B000F1030008F1030008F1030008F103000850
:1000C000F1030008F1030008F1030008F103000840
:1000D000F1030008F1030008F1030008000000002C
:1000E00071160008F1030008F10300080000000089
:1000F000000000000000000000000000F103000804
:1001000000000000F1030008F1030008F1030008FB
:1001100000000000000000000000000000000000DF
:10012000F1030008F1030008F1030008F1030008DF
:10013000F1030008000000000000000000000000C3
:10014000000000000000000000000000F1030008B3
:10015000F1030008F1030008F1030008F1030008AF
:10016000F1030008F1030008000000000000000097
:10017000000000000000000000000000000000007F
:1001800000000000F1030008000000000000000073
:10019000F103000800B583B000F040FE384B394A47
:1001A0001360394A1360394900E02146384B9942BF
:1001B0000BD20A684B6801F10C0488689842F4D9A4
:1001C0001168196004330432F8E72E4B1A68314B7A
:1001D0009A4200D0FEE72C4B1A682F4B9A42F9D175
:1001E000274B2E4A13602E4A13602E4B05E0002049
:1001F000106004329342FAD80B462B4A934204D241
:10020000194651F8082B5B68F4E7244B1B6813B9B7
:10021000234B1B6803B1FEE701F010FC694601A8FF
:1002200000F08EFD214C224BE41AA4100025AC42B4
:1002300014DC204C204BE41AA4100025AC4213DC43
:100240000099019801F002FC05461C4C1C4BE41A75
:10025000A410002C0EDC284600F044FD144B53F88B
:10026000253098470135E2E7134B53F8253098477E
:100270000135E3E7013C124B53F824309847E8E797
:10028000BABADECA0000002088000020F40300088B
:100290000C04000878563412325476988C000020F2
:1002A000780100200C0400081C0400081C0400084D
:1002B0001C0400081C0400081C0400081C0400089E
:1002C0001C04000808B5FFF765FF00BEFEE71EF03E
:1002D000040F0CBFEFF30880EFF309807146414A29
:1002E00010472DE9F04182B004468846124B5E6B00
:1002F0009F6B9D6A1B6B13F0020F03D00E4BDB6AE2
:10030000002B0CDB0D4800F02DFDCDF800803B46A6
:1003100032462946204600F08DFD00BEFEE74BF632
:10032000AB6100F001FE0028ECD0034B4FF000421F
:10033000DA6202B0BDE8F08100ED00E0D82C0008E0
:1003400000BEFEE71EF0040F0CBFEFF30880EFF3D2
:1003500009807146244A10472DE9F04182B00446D5
:100360008846084B5E6B9F6B9D6A074800F0FAFC5D
:10037000CDF800803B4632462946204600F05AFD23
:1003800000BEFEE700ED00E0E82C00081EF0040FC0
:100390000CBFEFF30880EFF309807146134A104752
:1003A0002DE9F04182B004468846084B5E6B9F6B96
:1003B0009D6A074800F0D6FCCDF800803B463246E7
:1003C0002946204600F036FD00BEFEE700ED00E0C5
:1003D000F42C000800BEFEE700BEFEE700BEFEE70C
:1003E00070470000E302000859030008A103000859
:0403F00000BEFEE766
:1003F400782D0008000000208C000020782D0008D3
:1004040000000010000000108C0000207C0100207F
:080414000000001000000010C0
:1004200010B50446074B1868074BA3FB0030800942
:1004300000F090F8002221464FF0FF3000F044F821
:10044000002010BD0C000020D34D621008B50B4BEE
:100450001A6842F400721A601A6842F480621A60E4
:100460001A6842F480721A60032000F00FF80F201F
:10047000FFF7D6FF01F014FB002008BD003C02404E
:10048000014B1868704700BF7001002010B504468A
:10049000C31E042B0FD80A4AD36823F4E0631B045D
:1004A0001B0C240204F4E064234343F0BF6343F4D1
:1004B0000033D36010BDA421024800F049FCEAE7F4
:1004C00000ED00E0082B000870B505460C46164606
:1004D0000F2A25D80F2C28D81B4BDB68C3F3022327
:1004E000C3F10702042A28BF0422191D062921D9B5
:1004F000033B4FF0FF3101FA02F224EA02049C4070
:1005000001FA03F326EA03063443002D14DB240129
:10051000E4B205F1604505F5614585F8004370BD1D
:10052000BC210A4800F014FCD4E7BD21074800F0C4
:100530000FFCD1E70023DCE705F00F052401E4B24E
:10054000034B5C55EBE700BF00ED00E0082B000813
:1005500014ED00E00138B0F1807F0AD2064B5860FC
:10056000064AF02182F823100020986007221A60C2
:1005700070470120704700BF10E000E000ED00E090
:1005800010B50446042800D038B9042C0BD0094A11
:10059000136823F00403136010BD40F2B311064842
:1005A00000F0D6FBF1E7034A136843F0040313603D
:1005B000F2E700BF10E000E0082B000830B583B080
:1005C000044603680F2B29D8236813F0010F3DD090
:1005D0006368012B01D9052B25D1A34B9B6803F040
:1005E0000C03042B29D0A04B9B6803F00C03082BB1
:1005F0001ED022799D4B1A706368002B50D0FFF7F4
:100600003FFF0546984B1B6813F4003F1ED1FFF7D0
:1006100037FF401B6428F5D90320E3E1F521944816
:1006200000F096FBD0E7FA21914800F091FBD4E767
:100630008D4B5B6813F4800FDBD08B4B1B6813F47E
:10064000003F03D06368002B00F0C981236813F0DA
:10065000020F5DD0E368012B31D823691F2B34D8FA
:10066000814B9B6813F00C0F3AD07F4B9B6803F0D3
:100670000C03082B2FD0E368002B74D07D4B012294
:100680001A60FFF7FDFE0546774B1B6813F0020F5B
:100690005AD1FFF7F5FE401B0228F5D90320A1E14E
:1006A000FFF7EEFE0546704B1B6813F4003FCDD0FC
:1006B000FFF7E6FE401B6428F5D9032092E14FF4D2
:1006C00096716B4800F044FBC7E740F22D11684873
:1006D00000F03EFBC4E7644B5B6813F4800FCAD1A3
:1006E000614B1B6813F0020F04D0E368012B01D0AB
:1006F000012077E15C48036823F0F8032169F822C0
:1007000092FAA2F2B2FA82F201FA02F21343036001
:10071000236813F0080F50D06369012B35D8636943
:10072000002B38D0544B01221A60FFF7A9FE054672
:100730004D4B5B6F13F0020F3FD1FFF7A1FE401B43
:100740000228F5D903204DE14748036823F0F80358
:100750002169F82292FAA2F2B2FA82F201FA02F2C6
:1007600013430360D4E7434B00221A60FFF788FE6F
:1007700005463D4B1B6813F0020FC9D0FFF780FE02
:10078000401B0228F5D903202CE140F26D113848B6
:1007900000F0DEFAC3E7384B00221A60FFF770FE64
:1007A0000546314B5B6F13F0020F06D0FFF768FE72
:1007B000401B0228F5D9032014E1236813F0040F2D
:1007C00060D0A368012B01D9052B1FD10023019311
:1007D000254B1A6C42F080521A641B6C03F0805354
:1007E0000193019B254A136843F480731360FFF75C
:1007F00047FE0546214B1B6813F4807F0CD1FFF7A1
:100800003FFE401B0228F5D90320EBE040F2971190
:10081000174800F09DFAD9E7227A194B1A70A3689D
:1008200083B1FFF72DFE05460F4B1B6F13F0020F30
:1008300028D1FFF725FE401B41F288339842F3D9B7
:100840000320CFE0FFF71CFE0546074B1B6F13F09C
:10085000020F17D0FFF714FE401B41F28833984275
:10086000F3D90320BEE000BF003802400238024046
:100870004C2B000800004742800E474200700040A9
:1008800070380240A369022B39D8A369002B00F00D
:10089000A880564A926802F00C02082A00F0A48050
:1008A000022B40F08880E36913B1B3F5800F2CD19F
:1008B000236A3F2B2FD8636A323BB3F5BF7F30D812
:1008C000A36A022B05D0042B03D0062B01D0082BE2
:1008D0002DD1E36A043B0B2B2FD8454B00221A6025
:1008E000FFF7CEFD0546414B1B6813F0007F2AD071
:1008F000FFF7C6FD401B0228F5D9032072E04FF434
:10090000E6713C4800F024FABFE740F2D5113948BF
:1009100000F01EFACCE74FF4EB71364800F018FAFD
:10092000C9E740F2D711334800F012FAC8E74FF494
:10093000EC71304800F00CFACBE740F2D9112D48A9
:1009400000F006FAC9E7E369226A1343616A47F6D1
:10095000C07292FAA2F2B2FA82F201FA02F21343E0
:10096000A26A5208013A4FF4403191FAA1F1B1FA6A
:1009700081F18A401343E16A4FF0706292FAA2F269
:10098000B2FA82F201FA02F21343184A5360184B8A
:1009900001221A60FFF774FD0446144B1B6813F024
:1009A000007F06D1FFF76CFD001B0228F5D903205C
:1009B00018E0002016E00E4B00221A60FFF760FDE1
:1009C00004460A4B1B6813F0007F06D0FFF758FD62
:1009D000001B0228F5D9032004E0002002E00120DA
:1009E00000E0002003B030BD0120FBE700380240EA
:1009F000600047424C2B00081F4B9B6803F00C0320
:100A0000082B36D11C4B586800F03F005B6813F48C
:100A1000800F1ED0194AB2FBF0F2174B586847F608
:100A2000C073184093FAA3F3B3FA83F3D84000FBE2
:100A300002F0114B5B6803F440334FF4403292FAFA
:100A4000A2F2B2FA82F2D34001335B00B0FBF3F0C2
:100A500070470A4AB2FBF0F2074B586847F6C0737A
:100A6000184093FAA3F3B3FA83F3D84000FB02F0E3
:100A7000DFE70248704700BF003802400024F4005E
:100A800070B504460D460368013B0E2B11D8072DA7
:100A900015D88C4B1B6803F00F03AB4215D2EBB299
:100AA000884A1370136803F00F03AB420DD0012086
:100AB00070BD40F23721844800F04AF9E7E74FF46F
:100AC0000E71814800F044F9E3E7236813F0020F48
:100AD00018D0A3687BB1802B0DD0902B0BD0A02B0E
:100AE00009D0B02B07D0C02B05D0D02B03D0E02BE2
:100AF00001D0F02B37D1754A936823F0F003A16839
:100B00000B439360236813F0010F73D06368032BCA
:100B10002FD86368012B32D09A1E012A36D96B4A2E
:100B2000126812F0020F00F0CA8068498A6822F049
:100B3000030213438B60FFF7A3FC06466368012B97
:100B40002BD0022B38D0032B45D0604B9B6813F081
:100B50000C0F4FD0FFF794FC801B41F28833984272
:100B6000F3D90320A4E740F24F21574800F0F0F8F2
:100B7000C1E740F25621544800F0EAF8C9E7534A69
:100B8000126812F4003FD0D1012091E74F4A126859
:100B900012F0007FC9D101208AE74C4B9B6803F01B
:100BA0000C03042B26D0FFF76BFC801B41F288332B
:100BB0009842F2D903207BE7444B9B6803F00C0377
:100BC000082B17D0FFF75CFC801B41F2883398425A
:100BD000F2D903206CE73D4B9B6803F00C030C2B10
:100BE00008D0FFF74DFC801B41F288339842F2D9C0
:100BF00003205DE7334B1B6803F00F03AB4209D9B9
:100C0000EAB2304B1A701B6803F00F03AB4201D0FD
:100C100001204DE7236813F0040F14D0E3685BB1A3
:100C2000B3F5805F08D0B3F5A05F05D0B3F5C05F22
:100C300002D0B3F5E05F36D1244A936823F4E05341
:100C4000E1680B439360236813F0080F15D0236904
:100C50005BB1B3F5805F08D0B3F5A05F05D0B3F505
:100C6000C05F02D0B3F5E05F23D1184A936823F444
:100C70006043216943EAC1039360FFF7BDFE134B54
:100C80009B6803F0F003F02292FAA2F2B2FA82F229
:100C9000D3400F4AD35CD8400E4B18600F20FFF7AB
:100CA000BFFB002004E74FF42D71074800F050F817
:100CB000C2E740F2BB21044800F04AF8D5E7012022
:100CC000F6E600BF003C02404C2B00080038024012
:100CD0003C2B00080C000020014B1868704700BF37
:100CE0000C000020FEE7000008B5034800F052F8B1
:100CF0000120FFF7F7FF00BF7C2B000808B5034673
:100D00000C4A12685AB10B4A1068033323F00303EC
:100D10000344094A934206D8064A136008BD054AAF
:100D200006491160EFE701F071FA0C2303604FF000
:100D3000FF30F3E79000002000FC00207C01002041
:100D400001230360014B0B60704700BF04000020CB
:100D500008B50A460146024800F004F8FFF7C4FF50
:100D6000902B00080FB400B583B004AB53F8042BEC
:100D700001938021064801F083FA002803DD014633
:100D8000034800F047F803B05DF804EB04B0704787
:100D90009800002010B5044601F03EFA01462046B6
:100DA00000F038F80121024800F034F810BD00BF0F
:100DB000542C00082DE9F04385B004460F464356F5
:100DC0000BB10E461EE0042528462146ABBE044664
:100DD000384605B0BDE8F08314F9011B04AA1A4493
:100DE00002F8101C0133AB42F6D304AA13440022CC
:100DF00003F8102C4FF00408E94640464946ABBEC4
:100E00008046761B002EE3D03546102E28BF1025D5
:100E10000023E8E708B5FFF7CDFF08BD08B500F0EF
:100E200093F8024A024B9A6008BD00BF0000000818
:100E300000ED00E0F8B504460D4617461E4627486B
:100E4000FFF790FF21682648FFF78CFF616825486F
:100E5000FFF788FFA1682448FFF784FFE168234873
:100E6000FFF780FF21692248FFF77CFF6169214875
:100E7000FFF778FFA1692048FFF774FFE1691F4879
:100E8000FFF770FF1E48FFF76DFF29461D48FFF76B
:100E900069FF1D4CE16A1D48FFF764FF216B1C4888
:100EA000FFF760FFE16B1B48FFF75CFF15F0800F59
:100EB0000AD115F4004F0CD11748FFF753FF0699DC
:100EC0001648FFF74FFFF8BD39461548FFF74AFFB0
:100ED000EFE731461348FFF745FFEDE7BC2B00086D
:100EE000CC2B0008DC2B0008EC2B0008FC2B0008A6
:100EF0000C2C00081C2C00082C2C00083C2C000892
:100F00004C2C0008582C000800ED00E0682C00086C
:100F1000782C0008882C0008B82C0008C02C000889
:100F2000982C0008A82C000883691A888A4201D0EE
:100F3000002070470268033A012A03D80233836114
:100F400001207047002070470C4B1A6842F00102E4
:100F50001A60002199601A6822F0847222F48032AB
:100F60001A60074A5A601A6822F480221A60D9600F
:100F7000044B4FF000629A60704700BF0038024097
:100F80001030002400ED00E0224B9B6803F00C03BE
:100F9000042B14D0082B16D01BB11F4B1F4A1A600C
:100FA00002E01D4B1D4A1A601A4B9B68C3F30313E2
:100FB0001B4AD15C184A1368CB4013607047164B2C
:100FC000164A1A60F0E7134B5A685B6803F03F0358
:100FD00012F4800F13D0114AB2FBF3F20D4B5B6891
:100FE000C3F3881303FB02F30A4A5268C2F30142B7
:100FF00001325200B3FBF2F3074A1360D4E7074A09
:10100000B2FBF3F2034B5B68C3F3881303FB02F3F9
:10101000EAE700BF003802400C0000200024F40082
:10102000042D0008024B1868C0F30040704700BF51
:1010300010E000E0024A136843F0010313607047B8
:1010400010E000E0024A136823F0010313607047C8
:1010500010E000E020F07F40014B5860704700BF77
:1010600010E000E020F07F40014B9860704700BF27
:1010700010E000E008B5184B1B6853B1012B19D0E4
:10108000FFF7D8FFFFF7CEFF0028FBD0FFF7DAFF0E
:1010900008BD124900F04AFF01F098F8421E104BBB
:1010A0009A4202D8FFF7D6FFEAE76FF07F40FFF7DA
:1010B000D1FFE5E70B4900F039FF01F087F8421E48
:1010C000074B9A4202D8FFF7C5FFD9E76FF07F4080
:1010D000FFF7C0FFD4E700BF1C01002000504345CC
:1010E000FDFFFF000050C34608B50D4B1A683AB12A
:1010F0000C4B1B78DBB2012B08D013B1022B09D0AB
:1011000008BD90470020FFF7ADFFF9E79047FFF7D4
:1011100099FFF5E790470020FFF7A4FFF0E700BF35
:1011200018010020200100200B4B1A6822F48022B5
:101130001A601A6842F480321A60074B1B6813F475
:10114000003FFAD0044B9A6842F001029A609A6814
:1011500022F002029A60704700380240032822D829
:10116000DFE800F0020A121A0F48036B012202FAAC
:1011700001F11943016370470B48436B012202FAE6
:1011800001F11943416370470748036C012202FAD9
:1011900001F11943016470470348436C012202FACC
:1011A00001F119434164704700380240044B9A68CA
:1011B00022F0F0029A609A6842EA00109860704744
:1011C0000038024010B4012812D018B102281DD0F6
:1011D00010BC7047144B1868490003248C4020EA67
:1011E00004001860186802FA01F101431960EFE782
:1011F0000E4B1868490003248C4020EA0400186054
:10120000186802FA01F101431960E1E7084B186818
:10121000490003248C4020EA04001860186802FA90
:1012200001F101431960D3E70000024000040240CD
:1012300000080240012817D010B1022827D07047BB
:1012400012B1012A09D070471A484368012202FAF4
:1012500001F123EA0101416070471648436802FA30
:1012600001F119434160704742B1012AEBD11248A4
:10127000436802FA01F11943416070470E48436820
:10128000012202FA01F123EA01014160704742B1F3
:10129000012AD8D10948436802FA01F11943416093
:1012A000D1E706484368012202FA01F123EA01016D
:1012B0004160704700000240000402400008024004
:1012C00010B4012812D018B102281DD010BC7047EC
:1012D000144B9868490003248C4020EA040098606D
:1012E000986802FA01F101439960EFE70E4B9868A4
:1012F000490003248C4020EA04009860986802FAB0
:1013000001F101439960E1E7084B98684900032423
:101310008C4020EA04009860986802FA01F10143C9
:101320009960D3E700000240000402400008024038
:1013300010B4012812D018B102281DD010BC70477B
:10134000144BD868490003248C4020EA0400D8607C
:10135000D86802FA01F10143D960EFE70E4BD86873
:10136000490003248C4020EA0400D860D86802FABF
:1013700001F10143D960E1E7084BD8684900032433
:101380008C4020EA0400D860D86802FA01F10143D9
:10139000D960D3E700000240000402400008024088
:1013A00030B401281AD018B102282DD030BC7047B3
:1013B000CB08204D083355F8230001F007018C00BD
:1013C0000F21A14020EA010145F8231055F8231010
:1013D00002FA04F40C4345F82340E7E7CB08164C27
:1013E000083354F8235001F0070080000F2181409A
:1013F00025EA010144F8231054F8231002FA00F002
:10140000084344F82300D1E7CB080C48083350F8D0
:10141000234001F0070189000F258D4024EA0504CF
:1014200040F8234050F8234002FA01F1214340F8EC
:101430002310BBE700000240000402400008024005
:10144000012815D010B1022824D07047012A08D0F5
:1014500019484369012202FA01F123EA01014161BD
:1014600070471548436902FA01F119434161704719
:10147000012A08D011484369012202FA01F123EA46
:101480000101416170470D48436902FA01F11943B6
:1014900041617047012A08D009484369012202FAD4
:1014A00001F123EA0101416170470548436902FAED
:1014B00001F11943416170470000024000040240FD
:1014C0000008024010B50446827841780078FFF7A2
:1014D00079FEE27861782078FFF7ACFE6279617876
:1014E0002078FFF7EDFE227961782078FFF720FF62
:1014F000A27961782078FFF753FF10BD0F2806D836
:10150000044B5B6923FA00F000F0010070470020F3
:10151000704700BF003C01400F2806D803494B69C3
:10152000012202FA00F0184348617047003C014074
:1015300008B50020FFF7E2FF00B908BD0020FFF763
:10154000EBFF034B1B68002BF7D09847F5E700BF74
:101550002401002008B50120FFF7D0FF00B908BD25
:101560000120FFF7D9FF034B5B68002BF7D09847AA
:10157000F5E700BF2401002008B50220FFF7BEFFF9
:1015800000B908BD0220FFF7C7FF034B9B68002B83
:10159000F7D09847F5E700BF2401002008B50320E5
:1015A000FFF7ACFF00B908BD0320FFF7B5FF034B01
:1015B000DB68002BF7D09847F5E700BF2401002037
:1015C00008B50420FFF79AFF00B908BD0420FFF713
:1015D000A3FF034B1B69002BF7D09847F5E700BF2B
:1015E0002401002008B50520FFF788FF80B90620F8
:1015F000FFF784FFA8B90720FFF780FFD0B90820C4
:10160000FFF77CFFF8B90920FFF778FF20BB08BD82
:101610000520FFF781FF154B5B69002BE7D098474A
:10162000E5E70620FFF778FF104B9B69002BE2D01F
:101630009847E0E70720FFF76FFF0C4BDB69002BB3
:10164000DDD09847DBE70820FFF766FF074B1B6AF2
:10165000002BD8D09847D6E70920FFF75DFF034B52
:101660005B6A002BD3D09847D1E700BF240100204C
:1016700008B50A20FFF742FFA8B90B20FFF73EFF8D
:10168000D0B90C20FFF73AFFF8B90D20FFF736FF6D
:1016900020BB0E20FFF732FF48BB0F20FFF72EFFC5
:1016A00000282DD108BD0A20FFF736FF194B9B6A91
:1016B000002BE2D09847E0E70B20FFF72DFF154BFA
:1016C000DB6A002BDDD09847DBE70C20FFF724FF17
:1016D000104B1B6B002BD8D09847D6E70D20FFF797
:1016E0001BFF0C4B5B6B002BD3D09847D1E70E2030
:1016F000FFF712FF074B9B6B002BCED09847CCE730
:101700000F20FFF709FF034BDB6B002BCAD0984774
:10171000C8E700BF2401002010B582B0044603785A
:101720008DF8003043788DF8013001238DF80230B8
:1017300000238DF803308DF8043002228DF8052047
:101740008DF806306846FFF7BDFEA3788DF80130AE
:101750006846FFF7B7FEE3788DF801306846FFF77B
:10176000B1FE237923B11022024B1A7002B010BDD2
:101770000822F9E76401002010B5044601224178EF
:101780000078FFF75DFE002301E000BF0133B3F5F1
:101790007A6FFAD3002261782078FFF751FE10BDEE
:1017A00010B504460122C1780078FFF749FE0023F6
:1017B00001E000BF0133B3F57A6FFAD30022E1787C
:1017C0002078FFF73DFE10BD70B505460E4600249B
:1017D00007E00022FFF734FE2846FFF7CDFF013473
:1017E000E4B2084B1B78A34207D92878A9780123D3
:1017F000A3403342EDD00122ECE72846FFF7D0FFAB
:1018000070BD00BF6401002030B583B00546037889
:101810001BB1012B49D003B030BD4178847A00342C
:1018200018BF0124003118BF01210020FFF796FCEA
:1018300021460020FFF792FC002417E06B788DF81A
:1018400000302B199B788DF8013001238DF8023080
:1018500000238DF803308DF804308DF805308DF8B5
:1018600006306846FFF72EFE0134E4B2072CE5D9B6
:10187000002417E0AB7A8DF800302B19DB7A8DF855
:10188000013001238DF8023000238DF803308DF8EC
:1018900004308DF805308DF806306846FFF712FEEB
:1018A0000134E4B2072CE5D9B5E70130FFF734FF86
:1018B000B1E7037823B970B50E46054600240BE066
:1018C000704746FA04F22B1902F001029978687801
:1018D000FFF7B6FD0134E4B2072CF2D970BD0378EE
:1018E00023B970B50E46054600240BE0704746FA52
:1018F00004F22B1902F00102D97AA87AFFF7A0FDB1
:101900000134E4B2072CF2D970BD000000000000E1
:10191000F8B506460F460378C3B1012B38D0F8BDA1
:1019200000213046FFF7DBFF395D3046FFF7C1FF8E
:101930000121A140C9B23046FFF7D1FF1848FFF797
:1019400099FB0134E4B2072CEAD9E8E70024FAE76E
:1019500000BF0134204600F0E7F90FA3D3E90023CC
:1019600000F0BCFA0028F3D10135EDB2072DD6D82E
:10197000741C00212046FFF727FF0123AB40795D4F
:101980001B029BB219432046FFF71EFF0024E1E72C
:101990000025EBE7AFF30080000000000088C340A3
:1019A0000000204070B594B000240194204B1A6CC4
:1019B00042F080521A641B6C03F080530193019B28
:1019C00002941C4B1A6842F440421A601B6803F4EC
:1019D00040430293029B0123089309934FF4800331
:1019E0000F93102310934FF4A873119304261296AB
:1019F0000723139302250E9508A8FEF7DFFD0F239A
:101A00000393049505944FF4805306930794294655
:101A100003A8FFF735F8FFF75FF9074BA3FB00308A
:101A20008009FEF797FD3046FEF7AAFD14B070BDA1
:101A30000038024000700040D34D621008B5FEF738
:101A400005FDFFF7AFFFFFF79FFA08BD00B58DB0AA
:101A5000FFF76AFB0020FFF7A9FB00210846FFF70C
:101A60007DFB01210020FFF779FB0E210320FFF70A
:101A700075FB0948FFF7C8FE6C46084D0FCD0FC433
:101A80000FCD0FC495E80F0084E80F0069460248A7
:101A9000FFF73EFFFAE700BF10000020142D0008FA
:101AA0007047000081F0004102E000BF83F0004376
:101AB00030B54FEA41044FEA430594EA050F08BFE9
:101AC00090EA020F1FBF54EA000C55EA020C7FEAAD
:101AD000645C7FEA655C00F0E2804FEA5454D4EB2A
:101AE0005555B8BF6D420CDD2C4480EA020281EAF4
:101AF000030382EA000083EA010180EA020281EA2C
:101B00000303362D88BF30BD11F0004F4FEA01317D
:101B10004FF4801C4CEA113102D0404261EB41018C
:101B200013F0004F4FEA03334CEA133302D0524212
:101B300063EB430394EA050F00F0A780A4F10104CE
:101B4000D5F1200E0DDB02FA0EFC22FA05F2801808
:101B500041F1000103FA0EF2801843FA05F35941EE
:101B60000EE0A5F120050EF1200E012A03FA0EFC6D
:101B700028BF4CF0020C43FA05F3C01851EBE37197
:101B800001F0004507D54FF0000EDCF1000C7EEBB4
:101B900000006EEB0101B1F5801F1BD3B1F5001FF2
:101BA0000CD349085FEA30004FEA3C0C04F1010411
:101BB0004FEA445212F5800F80F09A80BCF1004F3A
:101BC00008BF5FEA500C50F1000041EB045141EABC
:101BD000050130BD5FEA4C0C404141EB010111F4BD
:101BE000801FA4F10104E9D191F0000F04BF014668
:101BF0000020B1FA81F308BF2033A3F10B03B3F146
:101C000020020CDA0C3208DD02F1140CC2F10C02D5
:101C100001FA0CF021FA02F10CE002F11402D8BF33
:101C2000C2F1200C01FA02F120FA0CFCDCBF41EAFF
:101C30000C019040E41AA2BF01EB0451294330BDCE
:101C40006FEA04041F3C1CDA0C340EDC04F11404AB
:101C5000C4F1200220FA04F001FA02F340EA030082
:101C600021FA04F345EA030130BDC4F10C04C4F1C8
:101C7000200220FA02F001FA04F340EA03002946A8
:101C800030BD21FA04F0294630BD94F0000F83F4F2
:101C9000801306BF81F480110134013D4EE77FEAD5
:101CA000645C18BF7FEA655C29D094EA050F08BF21
:101CB00090EA020F05D054EA000C04BF1946104602
:101CC00030BD91EA030F1EBF0021002030BD5FEA46
:101CD000545C05D14000494128BF41F0004130BD6E
:101CE00014F580043CBF01F5801130BD01F00045C2
:101CF00045F0FE4141F470014FF0000030BD7FEA35
:101D0000645C1ABF194610467FEA655C1CBF0B462F
:101D1000024650EA013406BF52EA033591EA030F46
:101D200041F4002130BD00BF90F0000F04BF00213E
:101D3000704730B54FF4806404F132044FF0000571
:101D40004FF0000150E700BF90F0000F04BF0021EA
:101D5000704730B54FF4806404F1320410F0004550
:101D600048BF40424FF000013EE700BF42004FEA4B
:101D7000E2014FEA31014FEA02701FBF12F07F43C8
:101D800093F07F4F81F06051704732F07F4208BF7F
:101D9000704793F07F4F04BF41F40021704730B586
:101DA0004FF4607401F0004521F000411CE700BFD2
:101DB00050EA010208BF704730B54FF000050AE055
:101DC00050EA010208BF704730B511F0004502D556
:101DD000404261EB41014FF4806404F132045FEA58
:101DE000915C3FF4D8AE4FF003025FEADC0C18BF01
:101DF00003325FEADC0C18BF033202EBDC02C2F1F3
:101E0000200300FA03FC20FA02F001FA03FE40EA84
:101E10000E0021FA02F11444BDE600BF4FF0FF3C72
:101E200006E000BF4FF0010C02E000BF4FF0010CD4
:101E30004DF804CD4FEA410C7FEA6C5C4FEA430C4D
:101E400018BF7FEA6C5C1BD001B050EA410C0CBF9C
:101E500052EA430C91EA030F02BF90EA020F0020FE
:101E6000704710F1000F91EA030F58BF994208BF65
:101E700090422CBFD8176FEAE37040F00100704722
:101E80004FEA410C7FEA6C5C02D150EA013C07D179
:101E90004FEA430C7FEA6C5CD6D152EA033CD3D0C4
:101EA0005DF8040B704700BF8446104662468C46BE
:101EB0001946634600E000BF01B5FFF7B7FF0028F1
:101EC00048BF10F1000F01BD4DF808EDFFF7F4FF1A
:101ED0000CBF012000205DF808FB00BF4DF808EDA5
:101EE000FFF7EAFF34BF012000205DF808FB00BFC8
:101EF0004DF808EDFFF7E0FF94BF012000205DF8EA
:101F000008FB00BF4DF808EDFFF7CEFF94BF01209E
:101F100000205DF808FB00BF4DF808EDFFF7C4FF97
:101F200034BF012000205DF808FB00BF4FF0FF0C1C
:101F30001CEAD0521EBF1CEAD15392EA0C0F93EA5E
:101F40000C0F6FD01A4480EA010C400218BF5FEA00
:101F500041211ED04FF0006343EA501043EA511173
:101F6000A0FB01310CF00040B1F5000F3EBF49006D
:101F700041EAD3715B0040EA010062F17F02FD2A71
:101F80001DD8B3F1004F40EBC25008BF20F0010054
:101F9000704790F0000F0CF0004C08BF49024CEA6B
:101FA000502040EA51207F3AC2BFD2F1FF0340EAFD
:101FB000C250704740F400004FF00003013A5DDC6E
:101FC00012F1190FDCBF00F000407047C2F10002AF
:101FD000410021FA02F1C2F1200200FA02FC5FEA9C
:101FE000310040F1000053EA4C0308BF20EADC70E6
:101FF000704792F0000F00F0004C02BF400010F458
:10200000000F013AF9D040EA0C0093F0000F01F004
:10201000004C02BF490011F4000F013BF9D041EA26
:102020000C018FE70CEAD15392EA0C0F18BF93EA28
:102030000C0F0AD030F0004C18BF31F0004CD8D152
:1020400080EA010000F00040704790F0000F17BFD9
:1020500090F0004F084691F0000F91F0004F14D01F
:1020600092EA0C0F01D142020FD193EA0C0F03D177
:102070004B0218BF084608D180EA010000F000407A
:1020800040F0FE4040F40000704740F0FE4040F455
:10209000400070474FF0FF0C1CEAD0521EBF1CEAF4
:1020A000D15392EA0C0F93EA0C0F69D0A2EB030212
:1020B00080EA010C49024FEA402037D04FF08053AC
:1020C00043EA111143EA10130CF000408B4238BF71
:1020D0005B0042F17D024FF4000C8B4224BF5B1A7F
:1020E00040EA0C00B3EB510F24BFA3EB510340EACD
:1020F0005C00B3EB910F24BFA3EB910340EA9C007B
:10210000B3EBD10F24BFA3EBD10340EADC001B01EA
:1021100018BF5FEA1C1CE0D1FD2A3FF650AF8B428E
:1021200040EBC25008BF20F0010070470CF0004C9B
:102130004CEA50207F32C2BFD2F1FF0340EAC250C6
:10214000704740F400004FF00003013A37E792F087
:10215000000F00F0004C02BF400010F4000F013AE5
:10216000F9D040EA0C0093F0000F01F0004C02BFE0
:10217000490011F4000F013BF9D041EA0C0195E749
:102180000CEAD15392EA0C0F08D142027FF47DAFE2
:1021900093EA0C0F7FF470AF084676E793EA0C0FD2
:1021A00004D14B023FF44CAF08466EE730F0004CD0
:1021B00018BF31F0004CCAD130F000427FF45CAF60
:1021C00031F000437FF43CAF5FE700BF42000ED226
:1021D000B2F1FE4F0BD34FF09E03B3EB126209D462
:1021E0004FEA002343F0004323FA02F070474FF018
:1021F0000000704712F1610F01D1420202D14FF08D
:10220000FF3070474FF00000704700BF014B186867
:10221000704700BF24000020034613F8012B002A5A
:10222000FBD1181A0138704730B5141E05469BB013
:10223000184605DA8B232B604FF0FF301BB030BD02
:102240004FF40273ADF80C3014BF04F1FF33234692
:10225000029305934FF6FF7300910491ADF80E3091
:1022600002461E9B6946284600F072F8431CBCBF1C
:102270008B232B60002CE1D0009B00221A70DDE73D
:1022800007B5009313460A46014603480068FFF766
:10229000CBFF03B05DF804FB240000202DE9F047DC
:1022A0008E689E4282460C469046994637D88A8967
:1022B00012F4906F31D0256809696F1A656902239D
:1022C00005EB450595FBF3F509F101033B449D4200
:1022D00038BF1D46530530D5294600F07BFB064626
:1022E00050B90C23CAF80030A38943F04003A381FE
:1022F0004FF0FF30BDE8F0873A46216900F0F8FA68
:10230000A38923F4906343F08003A3812661656170
:102310003E44ED1B2660A5604E464E4500D94E4614
:1023200032464146206800F0EEFAA3689B1BA3608A
:1023300023681E4426600020DCE72A4600F0A4FB48
:1023400006460028E2D12169504600F0F5FAC8E7B8
:102350002DE9F04F9DB0804603938B891D060C46F6
:1023600016460FD50B696BB9402100F033FB206096
:10237000206128B90C23C8F800304FF0FF30C7E0C7
:10238000402363610023099320238DF829303023F3
:102390008DF82A304FF0010B37463D4615F8013BCA
:1023A0000BB1252B3ED1B7EB060A0BD05346324674
:1023B00021464046FFF772FF013000F0A480099BE0
:1023C000534409933B78002B00F09D8000234FF08D
:1023D000FF32CDE90523049307938DF853301A9308
:1023E0002F46052217F8011B4F4800F031FA049BD5
:1023F000D0B9D90644BF20228DF853201A0744BF14
:102400002B228DF853202A782A2A15D0079A2F4696
:1024100000200A25394611F8013B303B092B4DD9E4
:10242000B8B10FE02F46B8E73F4A801A0BFA00F028
:10243000184304903D46D3E7039A111D1268039197
:10244000002A01DB079204E0524243F002030792A4
:1024500004933B782E2B0CD17B782A2B33D1039B12
:102460001A1D1B680392002BB8BF4FF0FF330237D1
:1024700005932E4D39780322284600F0E9F938B14A
:102480004023401B03FA00F0049B034301370493ED
:10249000397827488DF8281006227E1C00F0D8F9DC
:1024A000002838D0234B13BB039B073323F00703CB
:1024B00008330393099B4B4409936DE705FB0232F4
:1024C00001200F46A6E700230137059319460A2588
:1024D000384610F8012B303A092A03D9002BC8D00E
:1024E0000591C6E705FB012101230746F0E703AB91
:1024F00000932246104B04A94046AFF30080B0F190
:10250000FF3F8146D6D1A3895B063FF536AF0998D8
:102510001DB0BDE8F08F03AB00932246064B04A923
:10252000404600F081F8EAE7442D00084A2D0008F3
:102530004E2D0008000000009D2200082DE9F04704
:1025400091461F468A680B69DDF820809342B8BF28
:102550001346C9F8003091F8432006460C4612B1E4
:102560000133C9F800302368990642BFD9F800301A
:102570000233C9F80030256815F0060507D104F1CB
:10258000190AE368D9F800209B1AAB4228DC94F8BA
:1025900043302268003318BF012392062DD404F182
:1025A000430239463046C047013020D02368E568F1
:1025B000D9F8002003F00603042B08BFAD1AA36866
:1025C00022690CBF25EAE57500259342C4BF9B1A1A
:1025D000ED184FF000091A344D451AD1002008E0DB
:1025E0000123524639463046C047013003D14FF0EF
:1025F000FF30BDE8F0870135C3E7E1185A1C3020F1
:1026000081F84300224494F8451082F843100233C5
:10261000C5E70123224639463046C0470130E6D09F
:1026200009F10109D8E700002DE9F04301F1430C5D
:102630000C46097E85B06E291746064698460C9AC8
:1026400000F0B38022D8632936D00AD8002900F0E0
:10265000B980582900F0838004F1420584F84210C3
:1026600032E0642901D06929F6D120681368050693
:1026700003F104012AD51B681160002B03DA2D2217
:102680005B4284F843206F480A2239E0732900F046
:102690009D8008D86F2920D07029DDD1236843F0B0
:1026A0002003236003E0752917D07829D4D178233B
:1026B00084F84530644855E01368191D1B681160A3
:1026C00004F1420584F8423001238CE01B6811605C
:1026D00010F0400F18BF1BB2CFE713682568181D14
:1026E0001060280601D51B6802E06806FBD51B8830
:1026F00054486F2914BF0A220822002184F843108D
:102700006568A560002DC0F29580216821F0040164
:102710002160002B3DD1002D40F08E806546082AB7
:102720000BD12368DB0708D5236962689A42DEBFB4
:10273000302305F8013C05F1FF35ACEB05032361BF
:10274000CDF800803B4603AA21463046FFF7F6FE4F
:1027500001304DD14FF0FF3005B0BDE8F08339486E
:1027600084F84510136821681D1D1B6815600A0652
:102770000BD5CA0744BF41F0200121601BB9226874
:1027800022F0200222601022B7E74D0648BF9BB21C
:10279000EFE76546B3FBF2F102FB1133C35C05F8CA
:1027A000013D0B460029F5D1B9E713682568616939
:1027B000181D106028061B6801D5196002E06A0622
:1027C000FBD51980002323616546B9E71368191DFD
:1027D00011601D6862680021284600F039F808B1D0
:1027E000401B606063682361002384F84330A7E7DF
:1027F00023692A4639463046C0470130AAD02368AB
:102800009B0713D4E068039B9842B8BF1846A3E720
:1028100001234A4639463046C04701309AD0013537
:10282000E368039A9B1AAB42F2DCEBE7002504F164
:102830001909F5E7002BACD1037884F8423004F194
:1028400042056CE7552D0008662D000800000000C9
:1028500001F0FF01102A2BDB10F0070F08D010F851
:10286000013B013A8B422DD010F0070F42B3F6D155
:10287000F0B441EA012141EA014122F007047FF06E
:1028800000070023F0E80256083C85EA010586EAC5
:10289000010685FA47F5A3FA87F586FA47F6A5FA01
:1028A00087F68EB9EED1F0BC01F0FF0102F007020D
:1028B00032B110F8013B013A83EA010313B1F8D1B8
:1028C0000020704701387047002D06BF3546033899
:1028D000073815F0010F07D1013015F4807F02BFD2
:1028E000013015F4C03F0130F0BC0138704700BF23
:1028F00010B5431E0A44914200D110BD11F8014B9E
:1029000003F8014FF7E7884210B501EB020307D83F
:10291000421E99420AD011F8014B02F8014FF8E724
:102920008342F5D98118D21AD34200D110BD13F8D1
:10293000014D01F8014DF7E738B50546002945D0AE
:1029400051F8043C0C1F002BB8BFE41800F0D2F87B
:102950001F4A1368104633B9636014602846BDE807
:10296000384000F0C8B8A3420CD9216862189342DD
:1029700004BF1A685B68636004BF52182260046079
:10298000ECE713465A680AB1A242FAD919685818F6
:10299000A0420BD120680144581882421960DDD151
:1029A000106852685A6001441960D7E702D90C23B5
:1029B0002B60D3E7206821188A4204BF116852684F
:1029C000626004BF091821605C60C7E738BD00BFC2
:1029D0006801002070B5CD1C25F0030508350C2DCD
:1029E00038BF0C25002D064601DBA94203D90C2374
:1029F0003360002070BD00F07DF8214A1468214644
:102A000091B9204C23681BB9304600F063F8206070
:102A10002946304600F05EF8431C24D10C23336075
:102A2000304600F068F8E4E70B685B1B18D40B2B0A
:102A30000FD90B60CD50CC18304600F05CF804F193
:102A40000B00231D20F00700C31AD3D05A42E250D6
:102A5000D0E78C424B6816BF636013600C46EBE70F
:102A60000C464968CCE7C41C24F00304A04205D0FE
:102A7000211A304600F02EF80130CFD02560DBE778
:102A8000680100206C010020F8B5074614460E4688
:102A900021B91146BDE8F840FFF79CBF22B9FFF706
:102AA0004BFF25462846F8BD00F026F8A0420FD27D
:102AB00021463846FFF78EFF05460028F2D0314602
:102AC0002246FFF715FF31463846FFF735FFE9E7A5
:102AD0003546E7E738B5064C00230546084623602F
:102AE000FEF70CF9431C02D1236803B12B6038BDFB
:102AF000740100207047704751F8043C181F002BE8
:102B0000BCBF0B58C01870472E2E2F737973746595
:102B10006D2F7372632F73746D333266342D686159
:102B20006C2F73746D3332663478785F68616C5FD4
:102B3000636F727465782E6300000000000000006F
:102B40000102030401020304060708092E2E2F7355
:102B5000797374656D2F7372632F73746D3332667E
:102B6000342D68616C2F73746D3332663478785FFE
:102B700068616C5F7263632E6300000061626F7254
:102B80007428292C2065786974696E672E2E2E00B2
:102B90006173736572745F706172616D282920665C
:102BA00061696C65643A2066696C65202225732230
:102BB0002C206C696E652025640A000053746163E3
:102BC0006B206672616D653A0A0000002052302069
:102BD0003D2020253038580A0000000020523120C6
:102BE0003D2020253038580A0000000020523220B5
:102BF0003D2020253038580A0000000020523320A4
:102C00003D2020253038580A000000002052313283
:102C1000203D20253038580A00000000204C52206A
:102C20003D2020253038580A000000002050432065
:102C30003D2020253038580A000000002050535213
:102C4000203D20253038580A000000004653522FFE
:102C50004641523A0A0000002043465352203D208C
:102C600020253038580A00002048465352203D2085
:102C700020253038580A00002044465352203D2079
:102C800020253038580A00002041465352203D206C
:102C900020253038580A0000204D4D464152203D35
:102CA00020253038580A00002042464152203D205D
:102CB00020253038580A00004D6973630A0000006F
:102CC000204C522F4558435F52455455524E3D209B
:102CD000253038580A0000005B486172644661750F
:102CE0006C745D0A000000005B4275734661756C90
:102CF000745D0A005B55736167654661756C745D50
:102D00000A000000000000000000000001020304AF
:102D1000060708090000E7E7E7E700000000E7E72B
:102D2000E7E7E7E70000E7E7E7E70000FFC3999977
:102D3000819999FF7E3C1800243C3C3C0000E7E769
:102D4000E7E7E7E7232D302B2000686C4C00656631
:102D500067454647003031323334353637383941EC
:102D60004243444546003031323334353637383902
:072D70006162636465660007
:102D78007856341294000020000000000024F4006B
:102D88000100000102010000000000000000000036
:102D9800000000FF280000200000000000000000E4
:102DA800000000000000000000000000000000001B
:102DB800000000000000000000000000000000000B
:102DC80000000000000000000000000000000000FB
:102DD80000000000000000000000000000000000EB
:102DE80000000000000000000000000000000000DB
:0C2DF8000000000000000000325476983B
:040000050800019559
:00000001FF
