:020000040800F2
:1000000000000120C5020008CB020008CF02000852
:1000100041030008450300088D03000800000000AC
:10002000000000000000000000000000D5030008F0
:10003000D903000800000000DD030008E9150008EE
:10004000F1030008F1030008F1030008F1030008C0
:10005000F1030008F1030008611D0008851D000878
:10006000A91D0008CD1D0008F11D0008F1030008BE
:10007000F1030008F1030008F1030008F103000890
:10008000F1030008F1030008F1030008000000007C
:10009000000000000000000000000000151E000825
:1000A000F1030008F1030008F1030008F103000860
:1000B000F1030008F1030008F1030008F103000850
:1000C000F1030008F1030008F10300086D170008B0
:1000D0007717000869140008731400080000000076
:1000E000A11E0008F1030008F10300080000000051
:1000F000000000000000000000000000F103000804
:1001000000000000F1030008F10300088117000857
:1001100000000000000000000000000000000000DF
:10012000F1030008F1030008F1030008F1030008DF
:10013000F1030008000000000000000000000000C3
:10014000000000000000000000000000F1030008B3
:10015000F1030008F1030008F10300087D14000812
:10016000F1030008F1030008000000000000000097
:10017000000000000000000000000000000000007F
:1001800000000000F1030008000000000000000073
:100190008B17000800B583B000F040FE384B394A99
:1001A0001360394A1360394900E02146384B9942BF
:1001B0000BD20A684B6801F10C0488689842F4D9A4
:1001C0001168196004330432F8E72E4B1A68314B7A
:1001D0009A4200D0FEE72C4B1A682F4B9A42F9D175
:1001E000274B2E4A13602E4A13602E4B05E0002049
:1001F000106004329342FAD80B462B4A934204D241
:10020000194651F8082B5B68F4E7244B1B6813B9B7
:10021000234B1B6803B1FEE702F054F8694601A8BE
:1002200000F08EFD214C224BE41AA4100025AC42B4
:1002300014DC204C204BE41AA4100025AC4213DC43
:100240000099019802F046F805461C4C1C4BE41A34
:10025000A410002C0EDC284600F044FD144B53F88B
:10026000253098470135E2E7134B53F8253098477E
:100270000135E3E7013C124B53F824309847E8E797
:10028000BABADECA0000002074000020F40300089F
:100290000C04000878563412325476987800002006
:1002A000A80F00200C0400081C0400081C0400080F
:1002B0001C0400081C0400081C0400081C0400089E
:1002C0001C04000808B5FFF765FF00BEFEE71EF03E
:1002D000040F0CBFEFF30880EFF309807146414A29
:1002E00010472DE9F04182B004468846124B5E6B00
:1002F0009F6B9D6A1B6B13F0020F03D00E4BDB6AE2
:10030000002B0CDB0D4800F02DFDCDF800803B46A6
:1003100032462946204600F08DFD00BEFEE74BF632
:10032000AB6100F001FE0028ECD0034B4FF000421F
:10033000DA6202B0BDE8F08100ED00E0F83B0008B1
:1003400000BEFEE71EF0040F0CBFEFF30880EFF3D2
:1003500009807146244A10472DE9F04182B00446D5
:100360008846084B5E6B9F6B9D6A074800F0FAFC5D
:10037000CDF800803B4632462946204600F05AFD23
:1003800000BEFEE700ED00E0083C00081EF0040F90
:100390000CBFEFF30880EFF309807146134A104752
:1003A0002DE9F04182B004468846084B5E6B9F6B96
:1003B0009D6A074800F0D6FCCDF800803B463246E7
:1003C0002946204600F036FD00BEFEE700ED00E0C5
:1003D000143C000800BEFEE700BEFEE700BEFEE7DC
:1003E00070470000E302000859030008A103000859
:0403F00000BEFEE766
:1003F400B83C00080000002078000020B83C000849
:10040400000000100000001078000020AC0F002055
:080414000000001000000010C0
:1004200010B50446074B1868074BA3FB0030800942
:1004300000F090F8002221464FF0FF3000F044F821
:10044000002010BD0C000020D34D621008B50B4BEE
:100450001A6842F400721A601A6842F480621A60E4
:100460001A6842F480721A60032000F00FF80F201F
:10047000FFF7D6FF01F0B4FF002008BD003C0240AA
:10048000014B1868704700BF9C0F002010B5044650
:10049000C31E042B0FD80A4AD36823F4E0631B045D
:1004A0001B0C240204F4E064234343F0BF6343F4D1
:1004B0000033D36010BDA421024800F049FCEAE7F4
:1004C00000ED00E0283A000870B505460C461646D7
:1004D0000F2A25D80F2C28D81B4BDB68C3F3022327
:1004E000C3F10702042A28BF0422191D062921D9B5
:1004F000033B4FF0FF3101FA02F224EA02049C4070
:1005000001FA03F326EA03063443002D14DB240129
:10051000E4B205F1604505F5614585F8004370BD1D
:10052000BC210A4800F014FCD4E7BD21074800F0C4
:100530000FFCD1E70023DCE705F00F052401E4B24E
:10054000034B5C55EBE700BF00ED00E0283A0008E4
:1005500014ED00E00138B0F1807F0AD2064B5860FC
:10056000064AF02182F823100020986007221A60C2
:1005700070470120704700BF10E000E000ED00E090
:1005800010B50446042800D038B9042C0BD0094A11
:10059000136823F00403136010BD40F2B311064842
:1005A00000F0D6FBF1E7034A136843F0040313603D
:1005B000F2E700BF10E000E0283A000830B583B051
:1005C000044603680F2B29D8236813F0010F3DD090
:1005D0006368012B01D9052B25D1A34B9B6803F040
:1005E0000C03042B29D0A04B9B6803F00C03082BB1
:1005F0001ED022799D4B1A706368002B50D0FFF7F4
:100600003FFF0546984B1B6813F4003F1ED1FFF7D0
:1006100037FF401B6428F5D90320E3E1F521944816
:1006200000F096FBD0E7FA21914800F091FBD4E767
:100630008D4B5B6813F4800FDBD08B4B1B6813F47E
:10064000003F03D06368002B00F0C981236813F0DA
:10065000020F5DD0E368012B31D823691F2B34D8FA
:10066000814B9B6813F00C0F3AD07F4B9B6803F0D3
:100670000C03082B2FD0E368002B74D07D4B012294
:100680001A60FFF7FDFE0546774B1B6813F0020F5B
:100690005AD1FFF7F5FE401B0228F5D90320A1E14E
:1006A000FFF7EEFE0546704B1B6813F4003FCDD0FC
:1006B000FFF7E6FE401B6428F5D9032092E14FF4D2
:1006C00096716B4800F044FBC7E740F22D11684873
:1006D00000F03EFBC4E7644B5B6813F4800FCAD1A3
:1006E000614B1B6813F0020F04D0E368012B01D0AB
:1006F000012077E15C48036823F0F8032169F822C0
:1007000092FAA2F2B2FA82F201FA02F21343036001
:10071000236813F0080F50D06369012B35D8636943
:10072000002B38D0544B01221A60FFF7A9FE054672
:100730004D4B5B6F13F0020F3FD1FFF7A1FE401B43
:100740000228F5D903204DE14748036823F0F80358
:100750002169F82292FAA2F2B2FA82F201FA02F2C6
:1007600013430360D4E7434B00221A60FFF788FE6F
:1007700005463D4B1B6813F0020FC9D0FFF780FE02
:10078000401B0228F5D903202CE140F26D113848B6
:1007900000F0DEFAC3E7384B00221A60FFF770FE64
:1007A0000546314B5B6F13F0020F06D0FFF768FE72
:1007B000401B0228F5D9032014E1236813F0040F2D
:1007C00060D0A368012B01D9052B1FD10023019311
:1007D000254B1A6C42F080521A641B6C03F0805354
:1007E0000193019B254A136843F480731360FFF75C
:1007F00047FE0546214B1B6813F4807F0CD1FFF7A1
:100800003FFE401B0228F5D90320EBE040F2971190
:10081000174800F09DFAD9E7227A194B1A70A3689D
:1008200083B1FFF72DFE05460F4B1B6F13F0020F30
:1008300028D1FFF725FE401B41F288339842F3D9B7
:100840000320CFE0FFF71CFE0546074B1B6F13F09C
:10085000020F17D0FFF714FE401B41F28833984275
:10086000F3D90320BEE000BF003802400238024046
:100870006C3A000800004742800E4742007000407A
:1008800070380240A369022B39D8A369002B00F00D
:10089000A880564A926802F00C02082A00F0A48050
:1008A000022B40F08880E36913B1B3F5800F2CD19F
:1008B000236A3F2B2FD8636A323BB3F5BF7F30D812
:1008C000A36A022B05D0042B03D0062B01D0082BE2
:1008D0002DD1E36A043B0B2B2FD8454B00221A6025
:1008E000FFF7CEFD0546414B1B6813F0007F2AD071
:1008F000FFF7C6FD401B0228F5D9032072E04FF434
:10090000E6713C4800F024FABFE740F2D5113948BF
:1009100000F01EFACCE74FF4EB71364800F018FAFD
:10092000C9E740F2D711334800F012FAC8E74FF494
:10093000EC71304800F00CFACBE740F2D9112D48A9
:1009400000F006FAC9E7E369226A1343616A47F6D1
:10095000C07292FAA2F2B2FA82F201FA02F21343E0
:10096000A26A5208013A4FF4403191FAA1F1B1FA6A
:1009700081F18A401343E16A4FF0706292FAA2F269
:10098000B2FA82F201FA02F21343184A5360184B8A
:1009900001221A60FFF774FD0446144B1B6813F024
:1009A000007F06D1FFF76CFD001B0228F5D903205C
:1009B00018E0002016E00E4B00221A60FFF760FDE1
:1009C00004460A4B1B6813F0007F06D0FFF758FD62
:1009D000001B0228F5D9032004E0002002E00120DA
:1009E00000E0002003B030BD0120FBE700380240EA
:1009F000600047426C3A00081F4B9B6803F00C03F1
:100A0000082B36D11C4B586800F03F005B6813F48C
:100A1000800F1ED0194AB2FBF0F2174B586847F608
:100A2000C073184093FAA3F3B3FA83F3D84000FBE2
:100A300002F0114B5B6803F440334FF4403292FAFA
:100A4000A2F2B2FA82F2D34001335B00B0FBF3F0C2
:100A500070470A4AB2FBF0F2074B586847F6C0737A
:100A6000184093FAA3F3B3FA83F3D84000FB02F0E3
:100A7000DFE70248704700BF003802400024F4005E
:100A800070B504460D460368013B0E2B11D8072DA7
:100A900015D88C4B1B6803F00F03AB4215D2EBB299
:100AA000884A1370136803F00F03AB420DD0012086
:100AB00070BD40F23721844800F04AF9E7E74FF46F
:100AC0000E71814800F044F9E3E7236813F0020F48
:100AD00018D0A3687BB1802B0DD0902B0BD0A02B0E
:100AE00009D0B02B07D0C02B05D0D02B03D0E02BE2
:100AF00001D0F02B37D1754A936823F0F003A16839
:100B00000B439360236813F0010F73D06368032BCA
:100B10002FD86368012B32D09A1E012A36D96B4A2E
:100B2000126812F0020F00F0CA8068498A6822F049
:100B3000030213438B60FFF7A3FC06466368012B97
:100B40002BD0022B38D0032B45D0604B9B6813F081
:100B50000C0F4FD0FFF794FC801B41F28833984272
:100B6000F3D90320A4E740F24F21574800F0F0F8F2
:100B7000C1E740F25621544800F0EAF8C9E7534A69
:100B8000126812F4003FD0D1012091E74F4A126859
:100B900012F0007FC9D101208AE74C4B9B6803F01B
:100BA0000C03042B26D0FFF76BFC801B41F288332B
:100BB0009842F2D903207BE7444B9B6803F00C0377
:100BC000082B17D0FFF75CFC801B41F2883398425A
:100BD000F2D903206CE73D4B9B6803F00C030C2B10
:100BE00008D0FFF74DFC801B41F288339842F2D9C0
:100BF00003205DE7334B1B6803F00F03AB4209D9B9
:100C0000EAB2304B1A701B6803F00F03AB4201D0FD
:100C100001204DE7236813F0040F14D0E3685BB1A3
:100C2000B3F5805F08D0B3F5A05F05D0B3F5C05F22
:100C300002D0B3F5E05F36D1244A936823F4E05341
:100C4000E1680B439360236813F0080F15D0236904
:100C50005BB1B3F5805F08D0B3F5A05F05D0B3F505
:100C6000C05F02D0B3F5E05F23D1184A936823F444
:100C70006043216943EAC1039360FFF7BDFE134B54
:100C80009B6803F0F003F02292FAA2F2B2FA82F229
:100C9000D3400F4AD35CD8400E4B18600F20FFF7AB
:100CA000BFFB002004E74FF42D71074800F050F817
:100CB000C2E740F2BB21044800F04AF8D5E7012022
:100CC000F6E600BF003C02406C3A000800380240E3
:100CD0005C3A00080C000020014B1868704700BF08
:100CE0000C000020FEE7000008B5034800F052F8B1
:100CF0000120FFF7F7FF00BF9C3A000808B5034644
:100D00000C4A12685AB10B4A1068033323F00303EC
:100D10000344094A934206D8064A136008BD054AAF
:100D200006491160EFE702F0FFF90C2303604FF072
:100D3000FF30F3E77C00002000FC0020AC0F002017
:100D400001230360014B0B60704700BF04000020CB
:100D500008B50A460146024800F004F8FFF7C4FF50
:100D6000B03A00080FB400B583B004AB53F8042BBD
:100D700001938021064802F011FA002803DD0146A4
:100D8000034800F047F803B05DF804EB04B0704787
:100D90008400002010B5044602F0CCF9014620463C
:100DA00000F038F80121024800F034F810BD00BF0F
:100DB000743B00082DE9F04385B004460F464356C6
:100DC0000BB10E461EE0042528462146ABBE044664
:100DD000384605B0BDE8F08314F9011B04AA1A4493
:100DE00002F8101C0133AB42F6D304AA13440022CC
:100DF00003F8102C4FF00408E94640464946ABBEC4
:100E00008046761B002EE3D03546102E28BF1025D5
:100E10000023E8E708B5FFF7CDFF08BD08B500F0EF
:100E200093F8024A024B9A6008BD00BF0000000818
:100E300000ED00E0F8B504460D4617461E4627486B
:100E4000FFF790FF21682648FFF78CFF616825486F
:100E5000FFF788FFA1682448FFF784FFE168234873
:100E6000FFF780FF21692248FFF77CFF6169214875
:100E7000FFF778FFA1692048FFF774FFE1691F4879
:100E8000FFF770FF1E48FFF76DFF29461D48FFF76B
:100E900069FF1D4CE16A1D48FFF764FF216B1C4888
:100EA000FFF760FFE16B1B48FFF75CFF15F0800F59
:100EB0000AD115F4004F0CD11748FFF753FF0699DC
:100EC0001648FFF74FFFF8BD39461548FFF74AFFB0
:100ED000EFE731461348FFF745FFEDE7DC3A00083E
:100EE000EC3A0008FC3A00080C3B00081C3B0008E8
:100EF0002C3B00083C3B00084C3B00085C3B0008D6
:100F00006C3B0008783B000800ED00E0883B0008DF
:100F1000983B0008A83B0008D83B0008E03B0008CD
:100F2000B83B0008C83B000883691A888A4201D090
:100F3000002070470268033A012A03D80233836114
:100F400001207047002070470C4B1A6842F00102E4
:100F50001A60002199601A6822F0847222F48032AB
:100F60001A60074A5A601A6822F480221A60D9600F
:100F7000044B4FF000629A60704700BF0038024097
:100F80001030002400ED00E0224B9B6803F00C03BE
:100F9000042B14D0082B16D01BB11F4B1F4A1A600C
:100FA00002E01D4B1D4A1A601A4B9B68C3F30313E2
:100FB0001B4AD15C184A1368CB4013607047164B2C
:100FC000164A1A60F0E7134B5A685B6803F03F0358
:100FD00012F4800F13D0114AB2FBF3F20D4B5B6891
:100FE000C3F3881303FB02F30A4A5268C2F30142B7
:100FF00001325200B3FBF2F3074A1360D4E7074A09
:10100000B2FBF3F2034B5B68C3F3881303FB02F3F9
:10101000EAE700BF003802400C0000200024F40082
:10102000243C000820B400FB01F5B2FBF5F0186089
:1010300005FB102000FB01F0B0FBF5F0C0B2082961
:1010400002D0187120BC704700F00700F9E70000DB
:10105000002800F0FB8070B582B00446C27A0AB95D
:101060000222C272227B0AB902222273627B0AB96F
:1010700003226273A27A0AB90122A272227A0AB901
:1010800001222272627A0AB9022262722278714EB9
:1010900006FB02F6627832B1012A1DD0022A40F026
:1010A000D7806D4D00E06D4D012A1BD0B2B1022AF0
:1010B0001CD000F085FAEB6843F40053EB60237A10
:1010C000012B17D0022B1AD0637A013B032B21D8B6
:1010D000DFE803F0581A464F614DE5E7252000F0A0
:1010E000A7FBE6E7262000F0A3FBE2E7472000F09D
:1010F0009FFBDEE7EB6823F48053EB60E4E7EB68EB
:1011000043F48053EB60DFE72B6923F440532B61FA
:101110002B692B61A37A022B42D0032B49D0012BE0
:1011200039D0E37A012B4DD0022B51D1EB6823F457
:101130000043EB601021237B012B4BD0022B4ED0C0
:10114000637B022B59D0032B60D0012B4CD06378EA
:10115000002B64D0012B77D0022B65D13E4A5FE093
:101160002B6923F440532B612B6943F440532B61CB
:10117000D0E72B6923F440532B612B6943F40053D0
:101180002B61C7E72B6923F440532B612B6943F490
:1011900080532B61BEE7EB6823F48063EB60C0E70C
:1011A000EB6843F48063EB60EB6823F40073EB605F
:1011B000B7E7EB6843F48063EB60EB6843F40073DC
:1011C000EB60AEE7EB6843F40043EB600821B2E765
:1011D0001021B0E76B6943F400636B61B0E76B69A2
:1011E00023F400636B61ABE7EB6843F00803EB604B
:1011F000EB6823F00403EB60A9E7EB6843F004031A
:10120000EB60EB6823F00803EB60A0E7EB6843F0CA
:101210000803EB60EB6843F00403EB6097E70F4AC9
:10122000D36843F02003D3606B4632466068FFF713
:10123000F9FE9DF8043003F00F03009A43EA02130D
:10124000AB60002002B070BD054AE9E7012070479D
:101250000220F7E740420F00001401400010014057
:101260000044004002285AD800295AD070B5C20163
:10127000024494002D4B234493F8005201356A42F6
:10128000EDB2D2B258BF5542AAB293F8013293429E
:1012900049D00E46044601281CD0B8B102281DD002
:1012A0002249E301181982000A4492F80002C0B2F0
:1012B0001654EDB223449A00114481F800528CB1C7
:1012C000012C1BD0022C12D1194A0CE0252000F071
:1012D000C1FAE5E7262000F0BDFAE1E7472000F07B
:1012E000B9FADDE7134AD36843F08003D360012CD9
:1012F0000BD02CB1022C0DD0002015E00E4AF2E7E5
:10130000252000F095FA00200EE0262000F090FA4B
:10131000002009E0472000F08BFA002004E00220C2
:10132000704700207047052070BD00BF04010020F9
:1013300000140140001001400044004038B505464B
:101340000C46217851B101342846FFF78BFF034644
:101350000028F6D00528F4D0184638BD0023FBE756
:1013600001280FD018B102280AD0022070473A494C
:1013700070B448B101282AD0022821D1374B04E0AB
:101380003649F5E73649F3E7334B1B6813F0200F76
:1013900016D04C68C20102449500324B2B4493F89E
:1013A0000222E4B21A4482F8004193F80222013288
:1013B000D2B283F8022293F80222D2B283F8022238
:1013C00048B1012832D0022803D0002041E0244B4C
:1013D000DBE7224B00E0204B1B6813F0800F37D077
:1013E000C201024494001F4B234493F80022D2B25E
:1013F00093F80132DBB29A421AD01A4CC201151886
:10140000AB00234493F80152EDB26E1CF6B283F8A0
:1014100001625D5DEDB24D6093F80132DBB21044C4
:101420008200144484F80132002012E00C4BD3E710
:1014300028B101280AD0022806D1084A00E0064A4D
:10144000D36823F08003D360002002E0044AF7E76A
:10145000002070BC704700BF001001400014014024
:10146000004400400401002008B50020FFF778FF89
:1014700008BD08B50120FFF773FF08BD08B50220BD
:10148000FFF76EFF08BD0000024A136801331360C6
:10149000704700BF1C070020024638B906490B6898
:1014A00023F004030B60054B1A60704702490B6878
:1014B00043F004030B60F6E710E000E0180700209B
:1014C000024A136843F002031360704710E000E023
:1014D000024A136843F001031360704710E000E014
:1014E000024A136823F001031360704710E000E024
:1014F00020F07F40014B5860704700BF10E000E0D3
:1015000008B5FFF7F5FFFFF7E3FF08BD0E4B1B68BB
:101510001BB1012B0CD0002070470C4B58689B6806
:10152000C01A20F07F400A4BA3FB003040087047F0
:10153000064B58689B68C01A20F07F40054BA3FB00
:101540000030C008704700BF1807002010E000E01E
:10155000ABAAAAAA1F85EB5138B504460D46FFF782
:10156000AFFF0D4B00221A700C4B1D600C4B1B681B
:101570001BB1012B0BD0002006E040F6354000FBEC
:1015800004F0084B984201D8FFF7BAFF38BD46F285
:10159000A81000FB04F0F4E7200700201407002047
:1015A00018070020FEFFFF0008B5FFF7AFFF034B51
:1015B0001B684FF47A7202FB030008BD1C07002071
:1015C00008B5074B1B7803B108BD0120FFF764FF86
:1015D00004490120FFF7C0FF014B01221A70F3E715
:1015E000100700208914000808B50B4B1A684AB18F
:1015F0000A4B1B78DBB2032B04D8DFE803F00204AC
:10160000080A904708BD9047FFF76AFFFAE790473E
:10161000F8E79047F6E700BF1407002020070020F6
:1016200030B48B0801F003018900094A023352F8F3
:1016300023400F258D4024EA050442F8234052F848
:1016400023408840204342F8230030BC704700BF4D
:101650000038014070B4034648B1012811D0022877
:1016600011D0032801D0002402E03A4C00E03A4CAB
:101670006BB1012B3CD0022B3CD0032B05D00022B8
:1016800006E0364CF4E7364CF2E7324A00E0324AE4
:10169000926812F0020F29D0D90119448800314A0A
:1016A00002449178C9B25278D2B2914224D003EB6D
:1016B000C3118A002B498A5C002A35D1D90119440B
:1016C0008800284A02449178C9B2481CC0B2907080
:1016D0000A441279D2B2E2602249DA01D418A00099
:1016E000044608448078C0B22144887070BC7047BA
:1016F0001A4ACDE71A4ACBE73BB1012B10D0022B97
:1017000010D0032B06D1134900E013494A6822F098
:1017100080024A60144A02EB830300229A70E5E7D4
:101720000E49F3E70E49F1E7012AD5D10D48DA0158
:10173000D518A90001448D78EDB26E1CF6B28E70FA
:101740001A445100294400EB4100828892B2E260C1
:10175000C2E700BF003401400030014000380040C3
:10176000003C004024070020340F002008B5002072
:10177000FFF770FF08BD08B50120FFF76BFF08BD3C
:1017800008B50220FFF766FF08BD08B50320FFF784
:1017900061FF08BD0B4B1A6822F480221A601A6898
:1017A00042F480321A60074B1B6813F4003FFAD0F2
:1017B000044B9A6842F001029A609A6822F0020291
:1017C0009A60704700380240032822D8DFE800F012
:1017D000020A121A0F48036B012202FA01F119439F
:1017E000016370470B48436B012202FA01F1194370
:1017F000416370470748036C012202FA01F1194363
:10180000016470470348436C012202FA01F1194355
:101810004164704700380240044B9A6822F0F0029D
:101820009A609A6842EA0010986070470038024057
:1018300010B44409064951F8243000F01F00012279
:1018400002FA00F0184341F8240010BC704700BFB2
:1018500000E100E010B44309074C203354F8232082
:1018600000F01F00012101FA00F022EA000044F814
:10187000230010BC704700BF00E100E01E4B1B7846
:10188000033B042B36D8DFE803F0030C17222D00AE
:101890000A01D2B200F1604000F5614080F80023F7
:1018A0007047120142EA4112D2B200F1604000F5E5
:1018B000614080F800237047120142EA8112D2B2DF
:1018C00000F1604000F5614080F80023704712018C
:1018D00042EAC112D2B200F1604000F5614080F8E6
:1018E000002370471201D2B200F1604000F5614060
:1018F00080F80023704700BF440F0020044B18708D
:1019000040F2FA5343EA0020024B1860704700BFD0
:10191000440F00200CED00E010B4012812D018B1E3
:1019200002281DD010BC7047144B186849000324CE
:101930008C4020EA04001860186802FA01F10143A3
:101940001960EFE70E4B1868490003248C4020EA29
:1019500004001860186802FA01F101431960E1E718
:10196000084B1868490003248C4020EA04001860E2
:10197000186802FA01F101431960D3E70000024040
:101980000004024000080240012817D010B10228CC
:1019900027D0704712B1012A09D070471A4843680E
:1019A000012202FA01F123EA010141607047164861
:1019B000436802FA01F119434160704742B1012ABC
:1019C000EBD11248436802FA01F1194341607047B4
:1019D0000E484368012202FA01F123EA0101416045
:1019E000704742B1012AD8D10948436802FA01F18F
:1019F00019434160D1E706484368012202FA01F128
:101A000023EA0101416070470000024000040240E7
:101A10000008024010B4012812D018B102281DD0CD
:101A200010BC7047144B9868490003248C4020EA8E
:101A300004009860986802FA01F101439960EFE7A9
:101A40000E4B9868490003248C4020EA04009860FB
:101A5000986802FA01F101439960E1E7084B986840
:101A6000490003248C4020EA04009860986802FA38
:101A700001F101439960D3E70000024000040240F5
:101A80000008024010B4012812D018B102281DD05D
:101A900010BC7047144BD868490003248C4020EADE
:101AA0000400D860D86802FA01F10143D960EFE779
:101AB0000E4BD868490003248C4020EA0400D8600B
:101AC000D86802FA01F10143D960E1E7084BD86810
:101AD000490003248C4020EA0400D860D86802FA48
:101AE00001F10143D960D3E7000002400004024045
:101AF0000008024030B401281AD018B102282DD0B5
:101B000030BC7047CB08204D083355F8230001F056
:101B100007018C000F21A14020EA010145F82310A4
:101B200055F8231002FA04F40C4345F82340E7E784
:101B3000CB08164C083354F8235001F007008000FE
:101B40000F21814025EA010144F8231054F82310A5
:101B500002FA00F0084344F82300D1E7CB080C4810
:101B6000083350F8234001F0070189000F258D400C
:101B700024EA050440F8234050F8234002FA01F11A
:101B8000214340F82310BBE700000240000402405C
:101B900000080240012815D010B1022824D0704757
:101BA000012A08D019484369012202FA01F123EA07
:101BB0000101416170471548436902FA01F1194377
:101BC00041617047012A08D011484369012202FA95
:101BD00001F123EA0101416170470D48436902FAAE
:101BE00001F1194341617047012A08D0094843694E
:101BF000012202FA01F123EA01014161704705481F
:101C0000436902FA01F11943416170470000024043
:101C1000000402400008024001280AD018B102283E
:101C20000DD0FF207047094B1869C84000F0010033
:101C30007047074B1869C84000F001007047054B1A
:101C40001869C84000F00100704700BF0000024062
:101C5000000402400008024010B504468278417832
:101C60000078FFF759FEE27861782078FFF78CFE64
:101C7000627961782078FFF7CDFE2279617820784B
:101C8000FFF700FFA27961782078FFF733FF10BDDE
:101C90000F2806D803490B68012202FA00F0184306
:101CA00008607047003C01400F2833D8032931D821
:101CB000DFE801F0020E1A25174B9968012202FA9B
:101CC00000F001439960DA6822EA0000D8607047AA
:101CD000114BD968012202FA00F00143D9609A68D9
:101CE00022EA0000986070470B4A9168012303FACA
:101CF00000F001439160D3681843D0607047064AF2
:101D00009168012303FA00F0C04301409160D36859
:101D10001840D060704700BF003C01400F2806D833
:101D2000044B5B6923FA00F000F0010070470020CB
:101D3000704700BF003C01400F2806D803494B699B
:101D4000012202FA00F0184348617047003C01404C
:101D50000F2802D8014B43F820107047480F00208D
:101D600008B50020FFF7DAFF00B908BD0020FFF733
:101D7000E3FF034B1B68002BF7D09847F5E700BF44
:101D8000480F002008B50120FFF7C8FF00B908BDC3
:101D90000120FFF7D1FF034B5B68002BF7D098477A
:101DA000F5E700BF480F002008B50220FFF7B6FF97
:101DB00000B908BD0220FFF7BFFF034B9B68002B53
:101DC000F7D09847F5E700BF480F002008B503207B
:101DD000FFF7A4FF00B908BD0320FFF7ADFF034BD9
:101DE000DB68002BF7D09847F5E700BF480F0020CD
:101DF00008B50420FFF792FF00B908BD0420FFF7E3
:101E00009BFF034B1B69002BF7D09847F5E700BFFA
:101E1000480F002008B50520FFF780FF80B9062095
:101E2000FFF77CFFA8B90720FFF778FFD0B908209B
:101E3000FFF774FFF8B90920FFF770FF20BB08BD5A
:101E40000520FFF779FF154B5B69002BE7D098471A
:101E5000E5E70620FFF770FF104B9B69002BE2D0EF
:101E60009847E0E70720FFF767FF0C4BDB69002B83
:101E7000DDD09847DBE70820FFF75EFF074B1B6AC2
:101E8000002BD8D09847D6E70920FFF755FF034B22
:101E90005B6A002BD3D09847D1E700BF480F0020E2
:101EA00008B50A20FFF73AFFA8B90B20FFF736FF65
:101EB000D0B90C20FFF732FFF8B90D20FFF72EFF45
:101EC00020BB0E20FFF72AFF48BB0F20FFF726FF9D
:101ED00000282DD108BD0A20FFF72EFF194B9B6A61
:101EE000002BE2D09847E0E70B20FFF725FF154BCA
:101EF000DB6A002BDDD09847DBE70C20FFF71CFFE7
:101F0000104B1B6B002BD8D09847D6E70D20FFF75E
:101F100013FF0C4B5B6B002BD3D09847D1E70E20FF
:101F2000FFF70AFF074B9B6B002BCED09847CCE7FF
:101F30000F20FFF701FF034BDB6B002BCAD0984744
:101F4000C8E700BF480F002070B4002802DB00265D
:101F5000002403E040420126FAE71446134A82FBBC
:101F60000032C317C3EBA2031D4603EB83035A00E1
:101F7000831A621CD2B230330B552846002DECDC9C
:101F80001EB102342D238B54E2B200238B5407E0A0
:101F9000CC5CD01A01380D5CCD540C540133DBB24B
:101FA000B3EB520FF4D370BC704700BF6766666630
:101FB0002DE9F04105460F4601F090F8044600F087
:101FC000E9FE0146284600F02FFE804639462046AD
:101FD000FFF7BAFF002301E00133DBB2FA18FD5C22
:101FE000002DF9D10133DCB22E23137015E00E4918
:101FF000404600F023FF804601F070F8661CF6B200
:1020000000F130033B5500F0C5FE0146404600F0AC
:102010000BFE80460135EDB23446052DE7D900238D
:102020003B55BDE8F08100BF0000204108B5032109
:102030000020FFF7F1FD01280CD0FFF7B5FA094A9F
:102040001368C01A084B1860084B0121197000234F
:10205000136008BDFFF7A8FA024B1860034B00227B
:102060001A70F6E7880F00208C0F0020A40F0020C4
:1020700070B584B0044600250295CDF80B508378E6
:102080008DF80830C3788DF8093002268DF80D6080
:1020900002A8FFF7E1FD23788DF8003063788DF812
:1020A000013001238DF802308DF803508DF8045073
:1020B0008DF805608DF806506846FFF7CDFDE07895
:1020C000FFF7E6FD3146E078FFF7EEFD2C49E078BA
:1020D000FFF73EFEE178A078FFF7A2FA0320FFF7B2
:1020E0000DFCE3780F2B11D8DFE803F008141D2650
:1020F0002F38383838384141414141410620FFF7F7
:1021000097FB002206210846FFF7B8FBFFF758FAB5
:1021100004B070BD0720FFF78BFB002206210720CB
:10212000FFF7ACFBF2E70820FFF782FB0022062155
:102130000820FFF7A3FBE9E70920FFF779FB00225E
:1021400006210920FFF79AFBE0E70A20FFF770FB62
:10215000002206210A20FFF791FBD7E71720FFF79F
:1021600067FB002206211720FFF788FBCEE7282017
:10217000FFF75EFB002206212820FFF77FFBC5E763
:102180002D2000080000000038B50D46244B1B78B8
:102190004BB1234B1B78002B38D0224B1C78012CE1
:1021A00020D0002433E0002202211046FFF7F2FC89
:1021B000002301E000BF0133052BFBD901220221DE
:1021C0000020FFF7E7FC002301E000BF01331D2BD7
:1021D000FBD9002202211046FFF7DCFC104B012244
:1021E0001A70D6E7104B186800F0D0FD00F05EFAC8
:1021F00009A3D3E9002300F0B1FA00F0C1FC286084
:102200000023074A1370074A137000E00024204699
:1022100038BD00BFAFF300809CC420B07268913F0E
:10222000900F0020A40F00208C0F002070B594B0F8
:1022300000240194204B1A6C42F080521A641B6CEB
:1022400003F080530193019B02941C4B1A6842F4E3
:1022500040421A601B6803F440430293029B01232F
:10226000089309934FF480030F93102310934FF4B6
:10227000A8731193042612960723139302250E9533
:1022800008A8FEF79BF90F230393049505944FF4D8
:10229000805306930794294603A8FEF7F1FBFEF747
:1022A0001BFD074BA3FB00308009FEF753F93046B6
:1022B000FEF766F914B070BD0038024000700040AF
:1022C000D34D621008B5FEF7C1F8FFF7AFFFFEF778
:1022D0005BFE08BD70B5A4B0FFF75CFA0020FFF705
:1022E0009BFA00210846FFF76FFA01210020FFF753
:1022F0006BFA0E210320FFF767FA04210320FFF792
:1023000063FA0C210320FFF75FFAFFF759F9002663
:1023100022968DF88C6009238DF8893002238DF880
:102320008A3003238DF88D3007238DF88E3022A854
:10233000FFF792FC274C1EAD94E80F0085E80F00D4
:102340002846FEF785FE236924A840F81C3DFFF7C8
:102350008FFE03AD14340FCC0FC594E8030045F88D
:10236000040B25F8021B090C2970CDF82360CDF869
:102370002760CDF82B60CDF82F60CDF83360CDF815
:102380003760CDF83A600023029303A93046FEF788
:10239000D5FF17E010A90298FFF70AFE10A9002048
:1023A000FEF7CCFF0C4B93E8030000908DF804106F
:1023B00069460020FEF7C2FF0AE000BF0133074A6A
:1023C0009342FAD902A91DA8FFF7DEFE0128E1D049
:1023D0000023F4E7343C00087C3C0008DF93040051
:1023E0007047000081F0004102E000BF83F000432D
:1023F00030B54FEA41044FEA430594EA050F08BFA0
:1024000090EA020F1FBF54EA000C55EA020C7FEA63
:10241000645C7FEA655C00F0E2804FEA5454D4EBE0
:102420005555B8BF6D420CDD2C4480EA020281EAAA
:10243000030382EA000083EA010180EA020281EAE2
:102440000303362D88BF30BD11F0004F4FEA013134
:102450004FF4801C4CEA113102D0404261EB410143
:1024600013F0004F4FEA03334CEA133302D05242C9
:1024700063EB430394EA050F00F0A780A4F1010485
:10248000D5F1200E0DDB02FA0EFC22FA05F28018BF
:1024900041F1000103FA0EF2801843FA05F35941A5
:1024A0000EE0A5F120050EF1200E012A03FA0EFC24
:1024B00028BF4CF0020C43FA05F3C01851EBE3714E
:1024C00001F0004507D54FF0000EDCF1000C7EEB6B
:1024D00000006EEB0101B1F5801F1BD3B1F5001FA9
:1024E0000CD349085FEA30004FEA3C0C04F10104C8
:1024F0004FEA445212F5800F80F09A80BCF1004FF1
:1025000008BF5FEA500C50F1000041EB045141EA72
:10251000050130BD5FEA4C0C404141EB010111F473
:10252000801FA4F10104E9D191F0000F04BF01461E
:102530000020B1FA81F308BF2033A3F10B03B3F1FC
:1025400020020CDA0C3208DD02F1140CC2F10C028C
:1025500001FA0CF021FA02F10CE002F11402D8BFEA
:10256000C2F1200C01FA02F120FA0CFCDCBF41EAB6
:102570000C019040E41AA2BF01EB0451294330BD85
:102580006FEA04041F3C1CDA0C340EDC04F1140462
:10259000C4F1200220FA04F001FA02F340EA030039
:1025A00021FA04F345EA030130BDC4F10C04C4F17F
:1025B000200220FA02F001FA04F340EA030029465F
:1025C00030BD21FA04F0294630BD94F0000F83F4A9
:1025D000801306BF81F480110134013D4EE77FEA8C
:1025E000645C18BF7FEA655C29D094EA050F08BFD8
:1025F00090EA020F05D054EA000C04BF19461046B9
:1026000030BD91EA030F1EBF0021002030BD5FEAFC
:10261000545C05D14000494128BF41F0004130BD24
:1026200014F580043CBF01F5801130BD01F0004578
:1026300045F0FE4141F470014FF0000030BD7FEAEB
:10264000645C1ABF194610467FEA655C1CBF0B46E6
:10265000024650EA013406BF52EA033591EA030FFD
:1026600041F4002130BD00BF90F0000F04BF0021F5
:10267000704730B54FF4806404F132044FF0000528
:102680004FF0000150E700BF90F0000F04BF0021A1
:10269000704730B54FF4806404F1320410F0004507
:1026A00048BF40424FF000013EE700BF42004FEA02
:1026B000E2014FEA31014FEA02701FBF12F07F437F
:1026C00093F07F4F81F06051704732F07F4208BF36
:1026D000704793F07F4F04BF41F40021704730B53D
:1026E0004FF4607401F0004521F000411CE700BF89
:1026F00050EA010208BF704730B54FF000050AE00C
:1027000050EA010208BF704730B511F0004502D50C
:10271000404261EB41014FF4806404F132045FEA0E
:10272000915C3FF4D8AE4FF003025FEADC0C18BFB7
:1027300003325FEADC0C18BF033202EBDC02C2F1A9
:10274000200300FA03FC20FA02F001FA03FE40EA3B
:102750000E0021FA02F11444BDE600BF70B54FF03F
:10276000FF0C4CF4E06C1CEA11541DBF1CEA13551D
:1027700094EA0C0F95EA0C0F00F0DEF82C4481EA85
:10278000030621EA4C5123EA4C5350EA013518BFA5
:1027900052EA033541F4801143F4801338D0A0FB92
:1027A00002CE4FF00005E1FB02E506F00042E0FB3F
:1027B00003E54FF00006E1FB03569CF0000F18BF45
:1027C0004EF0010EA4F1FF04B6F5007F64F54074ED
:1027D00004D25FEA4E0E6D4146EB060642EAC62180
:1027E00041EA55514FEAC52040EA5E504FEACE2EED
:1027F000B4F1FD0C88BFBCF5E06F1ED8BEF1004FF0
:1028000008BF5FEA500E50F1000041EB045170BD6B
:1028100006F0004646EA010140EA020081EA0301AF
:10282000B4EB5C04C2BFD4EB0C0541EA045170BDAB
:1028300041F480114FF0000E013C00F3AB8014F125
:10284000360FDEBF002001F0004170BDC4F100046E
:10285000203C35DA0C341BDC04F11404C4F12005EF
:1028600000FA05F320FA04F001FA05F240EA02004A
:1028700001F0004221F0004110EBD37021FA04F680
:1028800042EB06015EEA430E08BF20EAD37070BD3A
:10289000C4F10C04C4F1200500FA04F320FA05F099
:1028A00001FA04F240EA020001F0004110EBD3709B
:1028B00041F100015EEA430E08BF20EAD37070BD0B
:1028C000C4F1200500FA05F24EEA020E20FA04F3E4
:1028D00001FA05F243EA020321FA04F001F0004193
:1028E00021FA04F220EA020000EBD3705EEA430E04
:1028F00008BF20EAD37070BD94F0000F0FD101F033
:102900000046400041EB010111F4801F08BF013C6B
:10291000F7D041EA060195F0000F18BF704703F0A9
:102920000046520043EB030313F4801F08BF013D30
:10293000F7D043EA0603704794EA0C0F0CEA1355EC
:1029400018BF95EA0C0F0CD050EA410618BF52EAA6
:102950004306D1D181EA030101F000414FF00000AC
:1029600070BD50EA410606BF1046194652EA4306BA
:1029700019D094EA0C0F02D150EA013613D195EA2E
:102980000C0F05D152EA03361CBF104619460AD176
:1029900081EA030101F0004141F0FE4141F4700180
:1029A0004FF0000070BD41F0FE4141F4780170BD70
:1029B00070B54FF0FF0C4CF4E06C1CEA11541DBFD5
:1029C0001CEA135594EA0C0F95EA0C0F00F0A7F8D7
:1029D000A4EB050481EA030E52EA03354FEA013104
:1029E00000F088804FEA03334FF0805545EA131317
:1029F00043EA12634FEA022245EA111545EA1065DF
:102A00004FEA00260EF000419D4208BF964244F175
:102A1000FD0404F5407402D25B084FEA3202B61A94
:102A200065EB03055B084FEA32024FF480104FF468
:102A3000002CB6EB020E75EB030E22BFB61A7546DC
:102A400040EA0C005B084FEA3202B6EB020E75EB6F
:102A5000030E22BFB61A754640EA5C005B084FEAD7
:102A60003202B6EB020E75EB030E22BFB61A7546A4
:102A700040EA9C005B084FEA3202B6EB020E75EBAF
:102A8000030E22BFB61A754640EADC0055EA060E70
:102A900018D04FEA051545EA16754FEA06164FEAB3
:102AA000C30343EA52734FEAC2025FEA1C1CC0D15F
:102AB00011F4801F0BD141EA00014FF000004FF0EC
:102AC000004CB6E711F4801F04BF01430020B4F1AD
:102AD000FD0C88BFBCF5E06F3FF6AFAEB5EB030C65
:102AE00004BFB6EB020C5FEA500C50F1000041EB62
:102AF000045170BD0EF0004E4EEA113114EB5C042F
:102B0000C2BFD4EB0C0541EA045170BD41F4801101
:102B10004FF0000E013C90E645EA060E8DE60CEA09
:102B2000135594EA0C0F08BF95EA0C0F3FF43BAF26
:102B300094EA0C0F0AD150EA01347FF434AF95EADD
:102B40000C0F7FF425AF104619462CE795EA0C0FC1
:102B500006D152EA03353FF4FDAE1046194622E78E
:102B600050EA410618BF52EA43067FF4C5AE50EA68
:102B700041047FF40DAF52EA43057FF4EBAE12E758
:102B80004FEA4102B2F1E04324BFB3F5001CDCF18F
:102B9000FE5C0DD901F0004C4FEAC0024CEA5070C7
:102BA000B2F1004F40EB830008BF20F001007047F6
:102BB00011F0804F21D113F13872BCBF01F00040F9
:102BC000704741F480114FEA5252C2F11802C2F12B
:102BD000200C10FA0CF320FA02F018BF40F00100AC
:102BE0004FEAC1234FEAD32303FA0CFC40EA0C005E
:102BF00023FA02F34FEA4303CCE77FEA625307D19B
:102C000050EA01331EBF4FF0FE4040F440007047D1
:102C100001F0004040F0FE4040F40000704700BF6B
:102C200080F0004002E000BF81F0004142001FBF81
:102C30005FEA410392EA030F7FEA226C7FEA236C8A
:102C40006AD04FEA1262D2EB1363C1BFD21841407F
:102C500048404140B8BF5B42192B88BF704710F015
:102C6000004F40F4000020F07F4018BF404211F0B8
:102C7000004F41F4000121F07F4118BF494292EA20
:102C8000030F3FD0A2F1010241FA03FC10EB0C004C
:102C9000C3F1200301FA03F100F0004302D54942D9
:102CA00060EB4000B0F5000F13D3B0F1807F06D386
:102CB00040084FEA310102F10102FE2A51D2B1F17E
:102CC000004F40EBC25008BF20F0010040EA030073
:102CD0007047490040EB000010F4000FA2F1010220
:102CE000EDD1B0FA80FCACF1080CB2EB0C0200FAAA
:102CF0000CF0AABF00EBC25052421843BCBFD040F8
:102D00001843704792F0000F81F4000106BF80F471
:102D100000000132013BB5E74FEA41037FEA226C34
:102D200018BF7FEA236C21D092EA030F04D092F0FF
:102D3000000F08BF0846704790EA010F1CBF002033
:102D4000704712F07F4F04D1400028BF40F0004090
:102D5000704712F100723CBF00F50000704700F0B0
:102D6000004343F0FE4040F4000070477FEA2262D7
:102D700016BF08467FEA23630146420206BF5FEAA8
:102D8000412390EA010F40F4800070474FF00003A8
:102D900004E000BF10F0004348BF40425FEA000C6F
:102DA00008BF704743F0964301464FF000001CE017
:102DB00050EA010208BF70474FF000030AE000BF6D
:102DC00050EA010208BF704711F0004302D54042AB
:102DD00061EB41015FEA010C02BF8446014600201D
:102DE00043F0B64308BFA3F18053A3F50003BCFA38
:102DF0008CF2083AA3EBC25310DB01FA02FC6344E5
:102E000000FA02FCC2F12002BCF1004F20FA02F2EB
:102E100043EB020008BF20F00100704702F12002DE
:102E200001FA02FCC2F1200250EA4C0021FA02F23F
:102E300043EB020008BF20EADC7070474FF0FF0C44
:102E40001CEAD0521EBF1CEAD15392EA0C0F93EA3F
:102E50000C0F6FD01A4480EA010C400218BF5FEAE1
:102E600041211ED04FF0006343EA501043EA511154
:102E7000A0FB01310CF00040B1F5000F3EBF49004E
:102E800041EAD3715B0040EA010062F17F02FD2A52
:102E90001DD8B3F1004F40EBC25008BF20F0010035
:102EA000704790F0000F0CF0004C08BF49024CEA4C
:102EB000502040EA51207F3AC2BFD2F1FF0340EADE
:102EC000C250704740F400004FF00003013A5DDC4F
:102ED00012F1190FDCBF00F000407047C2F1000290
:102EE000410021FA02F1C2F1200200FA02FC5FEA7D
:102EF000310040F1000053EA4C0308BF20EADC70C7
:102F0000704792F0000F00F0004C02BF400010F438
:102F1000000F013AF9D040EA0C0093F0000F01F0E5
:102F2000004C02BF490011F4000F013BF9D041EA07
:102F30000C018FE70CEAD15392EA0C0F18BF93EA09
:102F40000C0F0AD030F0004C18BF31F0004CD8D133
:102F500080EA010000F00040704790F0000F17BFBA
:102F600090F0004F084691F0000F91F0004F14D000
:102F700092EA0C0F01D142020FD193EA0C0F03D158
:102F80004B0218BF084608D180EA010000F000405B
:102F900040F0FE4040F40000704740F0FE4040F436
:102FA000400070474FF0FF0C1CEAD0521EBF1CEAD5
:102FB000D15392EA0C0F93EA0C0F69D0A2EB0302F3
:102FC00080EA010C49024FEA402037D04FF080538D
:102FD00043EA111143EA10130CF000408B4238BF52
:102FE0005B0042F17D024FF4000C8B4224BF5B1A60
:102FF00040EA0C00B3EB510F24BFA3EB510340EAAE
:103000005C00B3EB910F24BFA3EB910340EA9C005B
:10301000B3EBD10F24BFA3EBD10340EADC001B01CB
:1030200018BF5FEA1C1CE0D1FD2A3FF650AF8B426F
:1030300040EBC25008BF20F0010070470CF0004C7C
:103040004CEA50207F32C2BFD2F1FF0340EAC250A7
:10305000704740F400004FF00003013A37E792F068
:10306000000F00F0004C02BF400010F4000F013AC6
:10307000F9D040EA0C0093F0000F01F0004C02BFC1
:10308000490011F4000F013BF9D041EA0C0195E72A
:103090000CEAD15392EA0C0F08D142027FF47DAFC3
:1030A00093EA0C0F7FF470AF084676E793EA0C0FB3
:1030B00004D14B023FF44CAF08466EE730F0004CB1
:1030C00018BF31F0004CCAD130F000427FF45CAF41
:1030D00031F000437FF43CAF5FE700BF4FEA4002AE
:1030E000B2F1FE4F0FD34FF09E03B3EB12620DD936
:1030F0004FEA002343F0004310F0004F23FA02F0A0
:1031000018BF404270474FF00000704712F1610F46
:1031100001D1420205D110F0004008BF6FF000401D
:1031200070474FF000007047014B1868704700BFB0
:1031300010000020034613F8012B002AFBD1181AB7
:103140000138704730B5141E05469BB0184605DAA5
:103150008B232B604FF0FF301BB030BD4FF4027358
:10316000ADF80C3014BF04F1FF33234602930593EE
:103170004FF6FF7300910491ADF80E3002461E9B8E
:103180006946284600F072F8431CBCBF8B232B60B5
:10319000002CE1D0009B00221A70DDE707B50093F8
:1031A00013460A46014603480068FFF7CBFF03B009
:1031B0005DF804FB100000202DE9F0478E689E4268
:1031C00082460C469046994637D88A8912F4906F09
:1031D00031D0256809696F1A6569022305EB450539
:1031E00095FBF3F509F101033B449D4238BF1D46B1
:1031F000530530D5294600F07DFB064650B90C2317
:10320000CAF80030A38943F04003A3814FF0FF3098
:10321000BDE8F0873A46216900F0FAFAA38923F461
:10322000906343F08003A381266165613E44ED1BFA
:103230002660A5604E464E4500D94E463246414670
:10324000206800F0F0FAA3689B1BA36023681E446B
:1032500026600020DCE72A4600F0A6FB0646002890
:10326000E2D12169504600F0F7FAC8E72DE9F04FA6
:103270009DB0804603938B891D060C4616460FD5DC
:103280000B696BB9402100F035FB2060206128B943
:103290000C23C8F800304FF0FF30C7E040236361D3
:1032A0000023099320238DF8293030238DF82A300C
:1032B0004FF0010B37463D4615F8013B0BB1252B6E
:1032C0003ED1B7EB060A0BD0534632462146404664
:1032D000FFF772FF013000F0A480099B534409936B
:1032E0003B78002B00F09D8000234FF0FF32CDE9AA
:1032F0000523049307938DF853301A932F46052224
:1033000017F8011B4F4800F033FA049BD0B9D906D7
:1033100044BF20228DF853201A0744BF2B228DF87A
:1033200053202A782A2A15D0079A2F4600200A25EA
:10333000394611F8013B303B092B4DD9B8B10FE0AC
:103340002F46B8E73F4A801A0BFA00F01843049062
:103350003D46D3E7039A111D12680391002A01DB51
:10336000079204E0524243F00203079204933B7831
:103370002E2B0CD17B782A2B33D1039B1A1D1B6873
:103380000392002BB8BF4FF0FF33023705932E4D49
:1033900039780322284600F0EBF938B14023401B6E
:1033A00003FA00F0049B034301370493397827485C
:1033B0008DF8281006227E1C00F0DAF9002838D09B
:1033C000234B13BB039B073323F0070308330393FB
:1033D000099B4B4409936DE705FB023201200F4620
:1033E000A6E700230137059319460A25384610F849
:1033F000012B303A092A03D9002BC8D00591C6E722
:1034000005FB012101230746F0E703AB00932246A9
:10341000104B04A94046AFF30080B0F1FF3F814656
:10342000D6D1A3895B063FF536AF09981DB0BDE83C
:10343000F08F03AB00932246064B04A9404600F0F0
:1034400081F8EAE7823C0008883C00088C3C0008D0
:1034500000000000B93100082DE9F04791461F46F1
:103460008A680B69DDF820809342B8BF1346C9F81B
:10347000003091F8432006460C4612B10133C9F8DA
:1034800000302368990642BFD9F800300233C9F8EA
:103490000030256815F0060507D104F1190AE36824
:1034A000D9F800209B1AAB4228DC94F843302268FC
:1034B000003318BF012392062DD404F1430239468C
:1034C0003046C047013020D02368E568D9F8002095
:1034D00003F00603042B08BFAD1AA36822690CBFD2
:1034E00025EAE57500259342C4BF9B1AED184FF0FD
:1034F00000091A344D451AD1002008E00123524634
:1035000039463046C047013003D14FF0FF30BDE8A7
:10351000F0870135C3E7E1185A1C302081F84300D9
:10352000224494F8451082F843100233C5E7012382
:10353000224639463046C0470130E6D009F101093C
:10354000D8E700002DE9F04301F1430C0C46097E59
:1035500085B06E291746064698460C9A00F0B3804F
:1035600022D8632936D00AD8002900F0B98058291A
:1035700000F0838004F1420584F8421032E06429AF
:1035800001D06929F6D120681368050603F104010A
:103590002AD51B681160002B03DA2D225B4284F8C8
:1035A00043206F480A2239E0732900F09D8008D833
:1035B0006F2920D07029DDD1236843F020032360D8
:1035C00003E0752917D07829D4D1782384F84530C1
:1035D000644855E01368191D1B68116004F1420529
:1035E00084F8423001238CE01B68116010F0400F1A
:1035F00018BF1BB2CFE713682568181D1060280696
:1036000001D51B6802E06806FBD51B8854486F296A
:1036100014BF0A220822002184F843106568A560BF
:10362000002DC0F29580216821F004012160002B5B
:103630003DD1002D40F08E806546082A0BD12368CD
:10364000DB0708D5236962689A42DEBF302305F89C
:10365000013C05F1FF35ACEB05032361CDF800809B
:103660003B4603AA21463046FFF7F6FE01304DD116
:103670004FF0FF3005B0BDE8F083394884F84510BD
:10368000136821681D1D1B6815600A060BD5CA0743
:1036900044BF41F0200121601BB9226822F02002C2
:1036A00022601022B7E74D0648BF9BB2EFE76546A0
:1036B000B3FBF2F102FB1133C35C05F8013D0B468D
:1036C0000029F5D1B9E7136825686169181D1060F4
:1036D00028061B6801D5196002E06A06FBD519802F
:1036E000002323616546B9E71368191D11601D6841
:1036F00062680021284600F03BF808B1401B60607A
:1037000063682361002384F84330A7E723692A46CE
:1037100039463046C0470130AAD023689B0713D4EE
:10372000E068039B9842B8BF1846A3E701234A46C6
:1037300039463046C04701309AD00135E368039AD4
:103740009B1AAB42F2DCEBE7002504F11909F5E71F
:10375000002BACD1037884F8423004F142056CE7C9
:10376000933C0008A43C000800000000000000009A
:1037700001F0FF01102A2BDB10F0070F08D010F822
:10378000013B013A8B422DD010F0070F42B3F6D126
:10379000F0B441EA012141EA014122F007047FF03F
:1037A00000070023F0E80256083C85EA010586EA96
:1037B000010685FA47F5A3FA87F586FA47F6A5FAD2
:1037C00087F68EB9EED1F0BC01F0FF0102F00702DE
:1037D00032B110F8013B013A83EA010313B1F8D189
:1037E0000020704701387047002D06BF354603386A
:1037F000073815F0010F07D1013015F4807F02BFA3
:10380000013015F4C03F0130F0BC0138704700BFF3
:1038100010B5431E0A44914200D110BD11F8014B6E
:1038200003F8014FF7E7884210B501EB020307D810
:10383000421E99420AD011F8014B02F8014FF8E7F5
:103840008342F5D98118D21AD34200D110BD13F8A2
:10385000014D01F8014DF7E738B50546002945D07F
:1038600051F8043C0C1F002BB8BFE41800F0D2F84C
:103870001F4A1368104633B9636014602846BDE8D8
:10388000384000F0C8B8A3420CD9216862189342AE
:1038900004BF1A685B68636004BF5218226004604A
:1038A000ECE713465A680AB1A242FAD919685818C7
:1038B000A0420BD120680144581882421960DDD122
:1038C000106852685A6001441960D7E702D90C2386
:1038D0002B60D3E7206821188A4204BF1168526820
:1038E000626004BF091821605C60C7E738BD00BF93
:1038F000940F002070B5CD1C25F0030508350C2D64
:1039000038BF0C25002D064601DBA94203D90C2344
:103910003360002070BD00F07DF8214A1468214614
:1039200091B9204C23681BB9304600F063F8206041
:103930002946304600F05EF8431C24D10C23336046
:10394000304600F068F8E4E70B685B1B18D40B2BDB
:103950000FD90B60CD50CC18304600F05CF804F164
:103960000B00231D20F00700C31AD3D05A42E250A7
:10397000D0E78C424B6816BF636013600C46EBE7E0
:103980000C464968CCE7C41C24F00304A04205D0CF
:10399000211A304600F02EF80130CFD02560DBE749
:1039A000940F0020980F0020F8B5074614460E46E5
:1039B00021B91146BDE8F840FFF79CBF22B9FFF7D7
:1039C0004BFF25462846F8BD00F026F8A0420FD24E
:1039D00021463846FFF78EFF05460028F2D03146D3
:1039E0002246FFF715FF31463846FFF735FFE9E776
:1039F0003546E7E738B5064C002305460846236000
:103A0000FDF77CF9431C02D1236803B12B6038BD5C
:103A1000A00F00207047704751F8043C181F002B7E
:103A2000BCBF0B58C01870472E2E2F737973746566
:103A30006D2F7372632F73746D333266342D68612A
:103A40006C2F73746D3332663478785F68616C5FA5
:103A5000636F727465782E63000000000000000040
:103A60000102030401020304060708092E2E2F7326
:103A7000797374656D2F7372632F73746D3332664F
:103A8000342D68616C2F73746D3332663478785FCF
:103A900068616C5F7263632E6300000061626F7225
:103AA0007428292C2065786974696E672E2E2E0083
:103AB0006173736572745F706172616D282920662D
:103AC00061696C65643A2066696C65202225732201
:103AD0002C206C696E652025640A000053746163B4
:103AE0006B206672616D653A0A000000205230203A
:103AF0003D2020253038580A000000002052312097
:103B00003D2020253038580A000000002052322085
:103B10003D2020253038580A000000002052332074
:103B20003D2020253038580A000000002052313254
:103B3000203D20253038580A00000000204C52203B
:103B40003D2020253038580A000000002050432036
:103B50003D2020253038580A0000000020505352E4
:103B6000203D20253038580A000000004653522FCF
:103B70004641523A0A0000002043465352203D205D
:103B800020253038580A00002048465352203D2056
:103B900020253038580A00002044465352203D204A
:103BA00020253038580A00002041465352203D203D
:103BB00020253038580A0000204D4D464152203D06
:103BC00020253038580A00002042464152203D202E
:103BD00020253038580A00004D6973630A00000040
:103BE000204C522F4558435F52455455524E3D206C
:103BF000253038580A0000005B48617264466175E0
:103C00006C745D0A000000005B4275734661756C60
:103C1000745D0A005B55736167654661756C745D20
:103C20000A00000000000000000000000102030480
:103C3000060708091900000000C201000102010284
:103C4000020100000002000348656C6C6F20667280
:103C50006F6D207468652073746D3332202000000E
:103C60000000000000000000000000000000000054
:103C700000000000000000000000000020636D2034
:103C80000A00232D302B2000686C4C0065666745C8
:103C900046470030313233343536373839414243C4
:103CA0004445460030313233343536373839616275
:053CB00063646566007D
:103CB8007856341280000020000000000024F40030
:103CC80014000020000000000000000000000000B8
:103CD80000000000000000000000000000000000DC
:103CE80000000000000000000000000000000000CC
:103CF80000000000000000000000000000000000BC
:103D080000000000000000000000000000000000AB
:103D1800000000000000000000000000000000009B
:083D28000000000032547698FF
:040000050800019559
:00000001FF
