:020000040800F2
:1000000000000120C5020008CB020008CF02000852
:1000100041030008450300088D03000800000000AC
:10002000000000000000000000000000D5030008F0
:10003000D903000800000000DD0300085D1100087E
:10004000F1030008F1030008F1030008F1030008C0
:10005000F1030008F10300088D1B0008B11B000824
:10006000D51B0008F91B00081D1C0008F10300083F
:10007000F1030008F1030008F1030008F103000890
:10008000F1030008F1030008F1030008000000007C
:10009000000000000000000000000000411C0008FB
:1000A000F1030008F1030008F1030008F103000860
:1000B000F1030008F1030008F1030008F103000850
:1000C000F1030008F1030008F1030008011600081D
:1000D0000B1600082D110008371100080000000061
:1000E000CD1C0008F1030008F10300080000000027
:1000F000000000000000000000000000F103000804
:1001000000000000F1030008F103000815160008C4
:1001100000000000000000000000000000000000DF
:10012000F1030008F1030008F1030008F1030008DF
:10013000F1030008000000000000000000000000C3
:10014000000000000000000000000000F1030008B3
:10015000F1030008F1030008F10300084111000851
:10016000F1030008F1030008000000000000000097
:10017000000000000000000000000000000000007F
:1001800000000000F1030008000000000000000073
:100190001F16000800B583B000F040FE384B394A06
:1001A0001360394A1360394900E02146384B9942BF
:1001B0000BD20A684B6801F10C0488689842F4D9A4
:1001C0001168196004330432F8E72E4B1A68314B7A
:1001D0009A4200D0FEE72C4B1A682F4B9A42F9D175
:1001E000274B2E4A13602E4A13602E4B05E0002049
:1001F000106004329342FAD80B462B4A934204D241
:10020000194651F8082B5B68F4E7244B1B6813B9B7
:10021000234B1B6803B1FEE701F0F4FF694601A818
:1002200000F08EFD214C224BE41AA4100025AC42B4
:1002300014DC204C204BE41AA4100025AC4213DC43
:100240000099019801F0FEFF05461C4C1C4BE41A76
:10025000A410002C0EDC284600F044FD144B53F88B
:10026000253098470135E2E7134B53F8253098477E
:100270000135E3E7013C124B53F824309847E8E797
:10028000BABADECA00000020F0000020F403000823
:100290000C0400087856341232547698F40000208A
:1002A000201800200C0400081C0400081C0400088E
:1002B0001C0400081C0400081C0400081C0400089E
:1002C0001C04000808B5FFF765FF00BEFEE71EF03E
:1002D000040F0CBFEFF30880EFF309807146414A29
:1002E00010472DE9F04182B004468846124B5E6B00
:1002F0009F6B9D6A1B6B13F0020F03D00E4BDB6AE2
:10030000002B0CDB0D4800F02DFDCDF800803B46A6
:1003100032462946204600F08DFD00BEFEE74BF632
:10032000AB6100F001FE0028ECD0034B4FF000421F
:10033000DA6202B0BDE8F08100ED00E0182E00089E
:1003400000BEFEE71EF0040F0CBFEFF30880EFF3D2
:1003500009807146244A10472DE9F04182B00446D5
:100360008846084B5E6B9F6B9D6A074800F0FAFC5D
:10037000CDF800803B4632462946204600F05AFD23
:1003800000BEFEE700ED00E0282E00081EF0040F7E
:100390000CBFEFF30880EFF309807146134A104752
:1003A0002DE9F04182B004468846084B5E6B9F6B96
:1003B0009D6A074800F0D6FCCDF800803B463246E7
:1003C0002946204600F036FD00BEFEE700ED00E0C5
:1003D000342E000800BEFEE700BEFEE700BEFEE7CA
:1003E00070470000E302000859030008A103000859
:0403F00000BEFEE766
:1003F4003838000800000020F400002038380008D5
:100404000000001000000010F40000202418002058
:080414000000001000000010C0
:1004200010B50446074B1868074BA3FB0030800942
:1004300000F090F8002221464FF0FF3000F044F821
:10044000002010BD0C000020D34D621008B50B4BEE
:100450001A6842F400721A601A6842F480621A60E4
:100460001A6842F480721A60032000F00FF80F201F
:10047000FFF7D6FF01F068FF002008BD003C0240F6
:10048000014B1868704700BF1818002010B50446CB
:10049000C31E042B0FD80A4AD36823F4E0631B045D
:1004A0001B0C240204F4E064234343F0BF6343F4D1
:1004B0000033D36010BDA421024800F049FCEAE7F4
:1004C00000ED00E0482C000870B505460C461646C5
:1004D0000F2A25D80F2C28D81B4BDB68C3F3022327
:1004E000C3F10702042A28BF0422191D062921D9B5
:1004F000033B4FF0FF3101FA02F224EA02049C4070
:1005000001FA03F326EA03063443002D14DB240129
:10051000E4B205F1604505F5614585F8004370BD1D
:10052000BC210A4800F014FCD4E7BD21074800F0C4
:100530000FFCD1E70023DCE705F00F052401E4B24E
:10054000034B5C55EBE700BF00ED00E0482C0008D2
:1005500014ED00E00138B0F1807F0AD2064B5860FC
:10056000064AF02182F823100020986007221A60C2
:1005700070470120704700BF10E000E000ED00E090
:1005800010B50446042800D038B9042C0BD0094A11
:10059000136823F00403136010BD40F2B311064842
:1005A00000F0D6FBF1E7034A136843F0040313603D
:1005B000F2E700BF10E000E0482C000830B583B03F
:1005C000044603680F2B29D8236813F0010F3DD090
:1005D0006368012B01D9052B25D1A34B9B6803F040
:1005E0000C03042B29D0A04B9B6803F00C03082BB1
:1005F0001ED022799D4B1A706368002B50D0FFF7F4
:100600003FFF0546984B1B6813F4003F1ED1FFF7D0
:1006100037FF401B6428F5D90320E3E1F521944816
:1006200000F096FBD0E7FA21914800F091FBD4E767
:100630008D4B5B6813F4800FDBD08B4B1B6813F47E
:10064000003F03D06368002B00F0C981236813F0DA
:10065000020F5DD0E368012B31D823691F2B34D8FA
:10066000814B9B6813F00C0F3AD07F4B9B6803F0D3
:100670000C03082B2FD0E368002B74D07D4B012294
:100680001A60FFF7FDFE0546774B1B6813F0020F5B
:100690005AD1FFF7F5FE401B0228F5D90320A1E14E
:1006A000FFF7EEFE0546704B1B6813F4003FCDD0FC
:1006B000FFF7E6FE401B6428F5D9032092E14FF4D2
:1006C00096716B4800F044FBC7E740F22D11684873
:1006D00000F03EFBC4E7644B5B6813F4800FCAD1A3
:1006E000614B1B6813F0020F04D0E368012B01D0AB
:1006F000012077E15C48036823F0F8032169F822C0
:1007000092FAA2F2B2FA82F201FA02F21343036001
:10071000236813F0080F50D06369012B35D8636943
:10072000002B38D0544B01221A60FFF7A9FE054672
:100730004D4B5B6F13F0020F3FD1FFF7A1FE401B43
:100740000228F5D903204DE14748036823F0F80358
:100750002169F82292FAA2F2B2FA82F201FA02F2C6
:1007600013430360D4E7434B00221A60FFF788FE6F
:1007700005463D4B1B6813F0020FC9D0FFF780FE02
:10078000401B0228F5D903202CE140F26D113848B6
:1007900000F0DEFAC3E7384B00221A60FFF770FE64
:1007A0000546314B5B6F13F0020F06D0FFF768FE72
:1007B000401B0228F5D9032014E1236813F0040F2D
:1007C00060D0A368012B01D9052B1FD10023019311
:1007D000254B1A6C42F080521A641B6C03F0805354
:1007E0000193019B254A136843F480731360FFF75C
:1007F00047FE0546214B1B6813F4807F0CD1FFF7A1
:100800003FFE401B0228F5D90320EBE040F2971190
:10081000174800F09DFAD9E7227A194B1A70A3689D
:1008200083B1FFF72DFE05460F4B1B6F13F0020F30
:1008300028D1FFF725FE401B41F288339842F3D9B7
:100840000320CFE0FFF71CFE0546074B1B6F13F09C
:10085000020F17D0FFF714FE401B41F28833984275
:10086000F3D90320BEE000BF003802400238024046
:100870008C2C000800004742800E47420070004068
:1008800070380240A369022B39D8A369002B00F00D
:10089000A880564A926802F00C02082A00F0A48050
:1008A000022B40F08880E36913B1B3F5800F2CD19F
:1008B000236A3F2B2FD8636A323BB3F5BF7F30D812
:1008C000A36A022B05D0042B03D0062B01D0082BE2
:1008D0002DD1E36A043B0B2B2FD8454B00221A6025
:1008E000FFF7CEFD0546414B1B6813F0007F2AD071
:1008F000FFF7C6FD401B0228F5D9032072E04FF434
:10090000E6713C4800F024FABFE740F2D5113948BF
:1009100000F01EFACCE74FF4EB71364800F018FAFD
:10092000C9E740F2D711334800F012FAC8E74FF494
:10093000EC71304800F00CFACBE740F2D9112D48A9
:1009400000F006FAC9E7E369226A1343616A47F6D1
:10095000C07292FAA2F2B2FA82F201FA02F21343E0
:10096000A26A5208013A4FF4403191FAA1F1B1FA6A
:1009700081F18A401343E16A4FF0706292FAA2F269
:10098000B2FA82F201FA02F21343184A5360184B8A
:1009900001221A60FFF774FD0446144B1B6813F024
:1009A000007F06D1FFF76CFD001B0228F5D903205C
:1009B00018E0002016E00E4B00221A60FFF760FDE1
:1009C00004460A4B1B6813F0007F06D0FFF758FD62
:1009D000001B0228F5D9032004E0002002E00120DA
:1009E00000E0002003B030BD0120FBE700380240EA
:1009F000600047428C2C00081F4B9B6803F00C03DF
:100A0000082B36D11C4B586800F03F005B6813F48C
:100A1000800F1ED0194AB2FBF0F2174B586847F608
:100A2000C073184093FAA3F3B3FA83F3D84000FBE2
:100A300002F0114B5B6803F440334FF4403292FAFA
:100A4000A2F2B2FA82F2D34001335B00B0FBF3F0C2
:100A500070470A4AB2FBF0F2074B586847F6C0737A
:100A6000184093FAA3F3B3FA83F3D84000FB02F0E3
:100A7000DFE70248704700BF003802400024F4005E
:100A800070B504460D460368013B0E2B11D8072DA7
:100A900015D88C4B1B6803F00F03AB4215D2EBB299
:100AA000884A1370136803F00F03AB420DD0012086
:100AB00070BD40F23721844800F04AF9E7E74FF46F
:100AC0000E71814800F044F9E3E7236813F0020F48
:100AD00018D0A3687BB1802B0DD0902B0BD0A02B0E
:100AE00009D0B02B07D0C02B05D0D02B03D0E02BE2
:100AF00001D0F02B37D1754A936823F0F003A16839
:100B00000B439360236813F0010F73D06368032BCA
:100B10002FD86368012B32D09A1E012A36D96B4A2E
:100B2000126812F0020F00F0CA8068498A6822F049
:100B3000030213438B60FFF7A3FC06466368012B97
:100B40002BD0022B38D0032B45D0604B9B6813F081
:100B50000C0F4FD0FFF794FC801B41F28833984272
:100B6000F3D90320A4E740F24F21574800F0F0F8F2
:100B7000C1E740F25621544800F0EAF8C9E7534A69
:100B8000126812F4003FD0D1012091E74F4A126859
:100B900012F0007FC9D101208AE74C4B9B6803F01B
:100BA0000C03042B26D0FFF76BFC801B41F288332B
:100BB0009842F2D903207BE7444B9B6803F00C0377
:100BC000082B17D0FFF75CFC801B41F2883398425A
:100BD000F2D903206CE73D4B9B6803F00C030C2B10
:100BE00008D0FFF74DFC801B41F288339842F2D9C0
:100BF00003205DE7334B1B6803F00F03AB4209D9B9
:100C0000EAB2304B1A701B6803F00F03AB4201D0FD
:100C100001204DE7236813F0040F14D0E3685BB1A3
:100C2000B3F5805F08D0B3F5A05F05D0B3F5C05F22
:100C300002D0B3F5E05F36D1244A936823F4E05341
:100C4000E1680B439360236813F0080F15D0236904
:100C50005BB1B3F5805F08D0B3F5A05F05D0B3F505
:100C6000C05F02D0B3F5E05F23D1184A936823F444
:100C70006043216943EAC1039360FFF7BDFE134B54
:100C80009B6803F0F003F02292FAA2F2B2FA82F229
:100C9000D3400F4AD35CD8400E4B18600F20FFF7AB
:100CA000BFFB002004E74FF42D71074800F050F817
:100CB000C2E740F2BB21044800F04AF8D5E7012022
:100CC000F6E600BF003C02408C2C000800380240D1
:100CD0007C2C00080C000020014B1868704700BFF6
:100CE0000C000020FEE7000008B5034800F052F8B1
:100CF0000120FFF7F7FF00BFBC2C000808B5034632
:100D00000C4A12685AB10B4A1068033323F00303EC
:100D10000344094A934206D8064A136008BD054AAF
:100D200006491160EFE701F011FB0C2303604FF05F
:100D3000FF30F3E7F800002000FC0020241800201A
:100D400001230360014B0B60704700BF04000020CB
:100D500008B50A460146024800F004F8FFF7C4FF50
:100D6000D02C00080FB400B583B004AB53F8042BAB
:100D700001938021064801F023FB002803DD014692
:100D8000034800F047F803B05DF804EB04B0704787
:100D90000001002010B5044601F0DEFA01462046AD
:100DA00000F038F80121024800F034F810BD00BF0F
:100DB000942D00082DE9F04385B004460F464356B4
:100DC0000BB10E461EE0042528462146ABBE044664
:100DD000384605B0BDE8F08314F9011B04AA1A4493
:100DE00002F8101C0133AB42F6D304AA13440022CC
:100DF00003F8102C4FF00408E94640464946ABBEC4
:100E00008046761B002EE3D03546102E28BF1025D5
:100E10000023E8E708B5FFF7CDFF08BD08B500F0EF
:100E200093F8024A024B9A6008BD00BF0000000818
:100E300000ED00E0F8B504460D4617461E4627486B
:100E4000FFF790FF21682648FFF78CFF616825486F
:100E5000FFF788FFA1682448FFF784FFE168234873
:100E6000FFF780FF21692248FFF77CFF6169214875
:100E7000FFF778FFA1692048FFF774FFE1691F4879
:100E8000FFF770FF1E48FFF76DFF29461D48FFF76B
:100E900069FF1D4CE16A1D48FFF764FF216B1C4888
:100EA000FFF760FFE16B1B48FFF75CFF15F0800F59
:100EB0000AD115F4004F0CD11748FFF753FF0699DC
:100EC0001648FFF74FFFF8BD39461548FFF74AFFB0
:100ED000EFE731461348FFF745FFEDE7FC2C00082C
:100EE0000C2D00081C2D00082C2D00083C2D00089E
:100EF0004C2D00085C2D00086C2D00087C2D00088E
:100F00008C2D0008982D000800ED00E0A82D0008A9
:100F1000B82D0008C82D0008F82D0008002E000884
:100F2000D82D0008E82D000883691A888A4201D06C
:100F3000002070470268033A012A03D80233836114
:100F400001207047002070470C4B1A6842F00102E4
:100F50001A60002199601A6822F0847222F48032AB
:100F60001A60074A5A601A6822F480221A60D9600F
:100F7000044B4FF000629A60704700BF0038024097
:100F80001030002400ED00E0224B9B6803F00C03BE
:100F9000042B14D0082B16D01BB11F4B1F4A1A600C
:100FA00002E01D4B1D4A1A601A4B9B68C3F30313E2
:100FB0001B4AD15C184A1368CB4013607047164B2C
:100FC000164A1A60F0E7134B5A685B6803F03F0358
:100FD00012F4800F13D0114AB2FBF3F20D4B5B6891
:100FE000C3F3881303FB02F30A4A5268C2F30142B7
:100FF00001325200B3FBF2F3074A1360D4E7074A09
:10100000B2FBF3F2034B5B68C3F3881303FB02F3F9
:10101000EAE700BF003802400C0000200024F40082
:10102000442E000801280FD018B102280AD002204F
:1010300070473A4970B448B101282AD0022821D11A
:10104000374B04E03649F5E73649F3E7334B1B6885
:1010500013F0200F16D04C68C20102449500324BA9
:101060002B4493F80222E4B21A4482F8004193F828
:1010700002220132D2B283F8022293F80222D2B2C3
:1010800083F8022248B1012832D0022803D0002080
:1010900041E0244BDBE7224B00E0204B1B6813F0C0
:1010A000800F37D0C201024494001F4B234493F8B1
:1010B0000022D2B293F80132DBB29A421AD01A4C13
:1010C000C2011518AB00234493F80152EDB26E1C17
:1010D000F6B283F801625D5DEDB24D6093F80132C6
:1010E000DBB210448200144484F80132002012E084
:1010F0000C4BD3E728B101280AD0022806D1084AB0
:1011000000E0064AD36823F08003D360002002E0A9
:10111000044AF7E7002070BC704700BF0010014090
:1011200000140140004400408001002008B5002068
:10113000FFF778FF08BD08B50120FFF773FF08BD72
:1011400008B50220FFF76EFF08BD0000024A1368D1
:1011500023F001031360704710E000E008B50B4B6B
:101160001A684AB10A4B1B78DBB2032B04D8DFE8BC
:1011700003F00204080A904708BD9047FFF7E6FF16
:10118000FAE79047F8E79047F6E700BF8C070020A2
:101190009007002030B48B0801F003018900094A50
:1011A000023352F823400F258D4024EA050442F80B
:1011B000234052F823408840204342F8230030BCAB
:1011C000704700BF0038014070B503784BB1012B68
:1011D00014D0022B14D0032B01D00120BFE0764C99
:1011E00000E0764C0546C178754A02F82310037872
:1011F000032B0AD8DFE803F006161A1E714CF1E73C
:10120000714CEFE7232000F05DFAEB79012B1ED043
:10121000A3B1022B24D0AB79032B32D8DFE803F043
:1012200029424B54242000F04DFAEEE7332000F021
:1012300049FAEAE7542000F045FAE6E7236843F468
:1012400000732360236843F480732360E3E723681B
:1012500023F400732360636843F004036360DAE7F8
:10126000236823F400732360636823F0040363603E
:10127000D1E7236823F001032360236823F00203EE
:1012800023602B786A7942B3012A33D02B79002B63
:101290003DD0012B40D0EB78032B4AD8DFE803F098
:1012A0004160656E236843F001032360236823F0E7
:1012B00002032360E5E7236823F00103236023682A
:1012C00043F002032360DCE7236843F0010323605B
:1012D000236843F002032360D3E7226822F400620C
:1012E0002260DA01D11888000021384E3154384B81
:1012F0001954CBE7226842F400622260DA01D11867
:1013000088000121314E3154314B1954BEE7236816
:1013100043F080032360BEE7236823F0800323604B
:10132000B9E7236823F400432360236823F4806330
:1013300023602B7A5BB3012B2ED0236823F0380374
:1013400023602368AA7843EAC20323606B7843B31F
:10135000012B2BD0236843F040032360002070BD95
:10136000236843F400432360E3E7236823F4004346
:101370002360236823F480632360DAE7236823F47F
:1013800000432360236843F480632360D1E76368EC
:1013900023F010036360D0E7636843F010036360D9
:1013A000CBE7236843F004032360D3E7236823F0EB
:1013B00004032360CEE700BF003401400030014049
:1013C000B417002000380040003C0040A40F00206B
:1013D00094070020032876D848B1012819D00228A4
:1013E00019D0032801D0002202E0394A00E0394A2E
:1013F000394B13F82030032B67D070B4012B0CD07D
:1014000080B1012837D0022837D003280FD1304AC5
:1014100009E0324AECE7324AEAE7136843F48043D2
:101420001360EDE72B4A536823F08003536000EB11
:10143000C01293002B4AD35C0BBBC2010244940040
:10144000284B23445A78D2B2541CE4B25C70C9B21F
:1014500013441971C20102449100224B0B445A7883
:10146000D2B25A70F0B1012829D0022829D003281D
:101470001DD1174A17E0194AD5E7194AD3E7012BBE
:10148000E8D1184CC3011D18AA0022445578EDB2CA
:101490006E1CF6B2567003445A002A4404EB420410
:1014A000A180D7E70B4A536843F0800353600A4B8F
:1014B00003EB800001238370002070BC7047074A53
:1014C000F1E7074AEFE7012070470320704700BFAC
:1014D0000034014000300140B417002000380040C3
:1014E000003C0040A40F002070B4034648B101281E
:1014F00011D0022811D0032801D0002402E03A4C78
:1015000000E03A4C6BB1012B3CD0022B3CD0032BBA
:1015100005D0002206E0364CF4E7364CF2E7324ABA
:1015200000E0324A926812F0020F29D0D901194422
:101530008800314A02449178C9B25278D2B29142BD
:1015400024D003EBC3118A002B498A5C002A35D1D1
:10155000D90119448800284A02449178C9B2481C2C
:10156000C0B290700A441279D2B2E2602249DA0124
:10157000D418A000044608448078C0B22144887082
:1015800070BC70471A4ACDE71A4ACBE73BB1012B32
:1015900010D0022B10D0032B06D1134900E01349C1
:1015A0004A6822F080024A60144A02EB8303002258
:1015B0009A70E5E70E49F3E70E49F1E7012AD5D124
:1015C0000D48DA01D518A90001448D78EDB26E1CE2
:1015D000F6B28E701A445100294400EB4100828813
:1015E00092B2E260C2E700BF003401400030014027
:1015F00000380040003C0040A40F0020B417002039
:1016000008B50020FFF770FF08BD08B50120FFF7FF
:101610006BFF08BD08B50220FFF766FF08BD08B5DF
:101620000320FFF761FF08BD0B4B1A6822F48022EC
:101630001A601A6842F480321A60074B1B6813F470
:10164000003FFAD0044B9A6842F001029A609A680F
:1016500022F002029A60704700380240032822D824
:10166000DFE800F0020A121A0F48036B012202FAA7
:1016700001F11943016370470B48436B012202FAE1
:1016800001F11943416370470748036C012202FAD4
:1016900001F11943016470470348436C012202FAC7
:1016A00001F119434164704700380240044B9A68C5
:1016B00022F0F0029A609A6842EA0010986070473F
:1016C0000038024010B44409064951F8243000F0B3
:1016D0001F00012202FA00F0184341F8240010BC58
:1016E000704700BF00E100E01E4B1B78033B042B5A
:1016F00036D8DFE803F0030C17222D000A01D2B21E
:1017000000F1604000F5614080F80023704712014D
:1017100042EA4112D2B200F1604000F5614080F827
:1017200000237047120142EA8112D2B200F16040F8
:1017300000F5614080F800237047120142EAC112AF
:10174000D2B200F1604000F5614080F8002370479C
:101750001201D2B200F1604000F5614080F8002330
:10176000704700BFC4170020044B187040F2FA53B2
:1017700043EA0020024B1860704700BFC4170020E6
:101780000CED00E010B4012812D018B102281DD0D1
:1017900010BC7047144B1868490003248C4020EAA1
:1017A00004001860186802FA01F101431960EFE7BC
:1017B0000E4B1868490003248C4020EA040018608E
:1017C000186802FA01F101431960E1E7084B186853
:1017D000490003248C4020EA04001860186802FACB
:1017E00001F101431960D3E7000002400004024008
:1017F00000080240012817D010B1022827D07047F6
:1018000012B1012A09D070471A484368012202FA2E
:1018100001F123EA0101416070471648436802FA6A
:1018200001F119434160704742B1012AEBD11248DE
:10183000436802FA01F11943416070470E4843685A
:10184000012202FA01F123EA01014160704742B12D
:10185000012AD8D10948436802FA01F119434160CD
:10186000D1E706484368012202FA01F123EA0101A7
:10187000416070470000024000040240000802403E
:1018800010B4012812D018B102281DD010BC704726
:10189000144B9868490003248C4020EA04009860A7
:1018A000986802FA01F101439960EFE70E4B9868DE
:1018B000490003248C4020EA04009860986802FAEA
:1018C00001F101439960E1E7084B9868490003245E
:1018D0008C4020EA04009860986802FA01F1014304
:1018E0009960D3E700000240000402400008024073
:1018F00010B4012812D018B102281DD010BC7047B6
:10190000144BD868490003248C4020EA0400D860B6
:10191000D86802FA01F10143D960EFE70E4BD868AD
:10192000490003248C4020EA0400D860D86802FAF9
:1019300001F10143D960E1E7084BD868490003246D
:101940008C4020EA0400D860D86802FA01F1014313
:10195000D960D3E7000002400004024000080240C2
:1019600030B401281AD018B102282DD030BC7047ED
:10197000CB08204D083355F8230001F007018C00F7
:101980000F21A14020EA010145F8231055F823104A
:1019900002FA04F40C4345F82340E7E7CB08164C61
:1019A000083354F8235001F0070080000F218140D4
:1019B00025EA010144F8231054F8231002FA00F03C
:1019C000084344F82300D1E7CB080C48083350F80B
:1019D000234001F0070189000F258D4024EA05040A
:1019E00040F8234050F8234002FA01F1214340F827
:1019F0002310BBE700000240000402400008024040
:101A0000012815D010B1022824D07047012A08D02F
:101A100019484369012202FA01F123EA01014161F7
:101A200070471548436902FA01F119434161704753
:101A3000012A08D011484369012202FA01F123EA80
:101A40000101416170470D48436902FA01F11943F0
:101A500041617047012A08D009484369012202FA0E
:101A600001F123EA0101416170470548436902FA27
:101A700001F1194341617047000002400004024037
:101A80000008024010B50446827841780078FFF7DC
:101A900079FEE27861782078FFF7ACFE62796178B0
:101AA0002078FFF7EDFE227961782078FFF720FF9C
:101AB000A27961782078FFF753FF10BD0F2806D870
:101AC00003490B68012202FA00F0184308607047CE
:101AD000003C01400F2833D8032931D8DFE801F05A
:101AE000020E1A25174B9968012202FA00F00143F1
:101AF0009960DA6822EA0000D8607047114BD96813
:101B0000012202FA00F00143D9609A6822EA00003B
:101B1000986070470B4A9168012303FA00F0014373
:101B20009160D3681843D0607047064A91680123DA
:101B300003FA00F0C04301409160D3681840D060C0
:101B4000704700BF003C01400F2806D8044B5B697A
:101B500023FA00F000F0010070470020704700BF3A
:101B6000003C01400F2806D803494B69012202FAC4
:101B700000F0184348617047003C01400F2802D82C
:101B8000014B43F820107047C817002008B500200B
:101B9000FFF7DAFF00B908BD0020FFF7E3FF034BB2
:101BA0001B68002BF7D09847F5E700BFC817002047
:101BB00008B50120FFF7C8FF00B908BD0120FFF7F5
:101BC000D1FF034B5B68002BF7D09847F5E700BFC8
:101BD000C817002008B50220FFF7B6FF00B908BDFE
:101BE0000220FFF7BFFF034B9B68002BF7D09847FD
:101BF000F5E700BFC817002008B50320FFF7A4FFD2
:101C000000B908BD0320FFF7ADFF034BDB68002BD5
:101C1000F7D09847F5E700BFC817002008B50420A3
:101C2000FFF792FF00B908BD0420FFF79BFF034BAD
:101C30001B69002BF7D09847F5E700BFC8170020B5
:101C400008B50520FFF780FF80B90620FFF77CFF6D
:101C5000A8B90720FFF778FFD0B90820FFF774FF75
:101C6000F8B90920FFF770FF20BB08BD0520FFF77A
:101C700079FF154B5B69002BE7D09847E5E7062015
:101C8000FFF770FF104B9B69002BE2D09847E0E70D
:101C90000720FFF767FF0C4BDB69002BDDD098476F
:101CA000DBE70820FFF75EFF074B1B6A002BD8D04D
:101CB0009847D6E70920FFF755FF034B5B6A002BD7
:101CC000D3D09847D1E700BFC817002008B50A2035
:101CD000FFF73AFFA8B90B20FFF736FFD0B90C2069
:101CE000FFF732FFF8B90D20FFF72EFF20BB0E20C3
:101CF000FFF72AFF48BB0F20FFF726FF00282DD152
:101D000008BD0A20FFF72EFF194B9B6A002BE2D07B
:101D10009847E0E70B20FFF725FF154BDB6A002B08
:101D2000DDD09847DBE70C20FFF71CFF104B1B6B47
:101D3000002BD8D09847D6E70D20FFF713FF0C4BA8
:101D40005B6B002BD3D09847D1E70E20FFF70AFF3B
:101D5000074B9B6B002BCED09847CCE70F20FFF7AB
:101D600001FF034BDB6B002BCAD09847C8E700BFCD
:101D7000C817002038B50546054C0022A1796079C6
:101D8000FFF73EFE29462078FFF724FB38BD00BF51
:101D90000818002038B50546054C0122A179607964
:101DA000FFF72EFE29462078FFF714FB38BD00BF51
:101DB0000818002010B50446000AFFF7EBFFE0B258
:101DC000FFF7E8FF10BD0000F0B589B0054600241C
:101DD0000694CDF81B4007238DF8193002278DF8A3
:101DE0001A7005268DF81E6006A8FFF74BFE0494B6
:101DF000CDF813408DF811608DF812708DF81660D3
:101E000004A8FFF73FFE574B28681860A988AA79F5
:101E100099809A711B78032B08D8DFE803F002360B
:101E20003C42514800230370FFF7CEF90024CDF85F
:101E30000A408DF80E404B4DEB788DF808302B7929
:101E40008DF8093001268DF80A6002278DF80D7093
:101E500002A8FFF717FECDF802408DF806406B7917
:101E60008DF80030AB798DF801308DF802608DF877
:101E700005706846FFF706FE32469DF809109DF88A
:101E80000800FFF7BDFD234613E037480123037028
:101E9000FFF79AF9CAE7344802230370FFF794F971
:101EA000C4E7314803230370FFF78EF9BEE700BF94
:101EB00001332E4A9342FAD900229DF809109DF869
:101EC0000800FFF79DFD002301E000BF0133B3F5DB
:101ED000967FFAD301229DF809109DF80800FFF7BC
:101EE0008FFD002301E000BF0133214A9342FAD95C
:101EF0001120FFF73FFF002301E000BF013347F24D
:101F00002F529342F9D93A20FFF734FF002301E022
:101F100000BF013347F22F529342F9D9114B5B783E
:101F2000012B0ED02BB1022B0FD00520FFF732FF73
:101F300002E00320FFF72EFF2920FFF71BFF0023FD
:101F400009E00520FFF726FFF6E70620FFF722FF4E
:101F5000F2E700BF013347F22F529342F9D909B09B
:101F6000F0BD00BF0818002010000020DF9304001F
:101F70003F7E050038B505460C462A20FFF7FAFEDD
:101F8000002301E000BF013340F6B7329342F9D994
:101F90000020FFF7FFFE2846FFF7FCFE0020FFF7BA
:101FA000F9FE2046FFF7F6FE002301E000BF0133F3
:101FB00040F6B7329342F9D938BD38B505460C46DC
:101FC0002B20FFF7D7FE002301E000BF013340F6CE
:101FD000B7329342F9D90020FFF7DCFE2846FFF71D
:101FE000D9FE0020FFF7D6FE2046FFF7D3FE0023E0
:101FF00001E000BF013340F6B7329342F9D938BD52
:10200000F8B50C4616461F46BDF818508118C9B2DF
:102010000139C9B2FFF7AEFFE119C9B20139C9B23E
:102020002046FFF7CAFF2C20FFF7A4FE002301E0A3
:1020300000BF013340F6B7329342F9D9002407E0DC
:10204000280AFFF7A7FEE8B2FFF7A4FE0134A4B206
:1020500007FB06F39C42F3DBF8BD00B583B00090AC
:10206000A023802200210846FFF7CAFF03B05DF8D5
:1020700004FB00002DE9F0410C461E46BDF8187027
:10208000A2F12005DFF8948098F8013015FB03F5E4
:10209000ADB298F800100144C9B20139C9B2FFF7D6
:1020A00069FF98F801102144C9B20139C9B220462C
:1020B000FFF783FF2C20FFF75DFE002301E000BF48
:1020C000013340F6B7329342F9D94FF000081CE0D3
:1020D0003846FFF76FFE0134E4B2104B1B78A34281
:1020E0000FD90E4B5B6805EB080213F81230C4F1F0
:1020F0000702134113F0010FEAD03046FFF75AFEF2
:10210000E9E708F101085FFA88F8044B5B7843457A
:1021100001D90024E1E7BDE8F08100BF1C000020E8
:102120002DE9F04383B005460E4617469946BDF8A3
:102130002880002406E0852E12D80D36F6B2002540
:102140000134E4B23A5D6AB1CDF800804B463146C5
:102150002846FFF78FFF6F2DEDD80835EDB2EFE77A
:102160000026EDE703B0BDE8F083000070B594B041
:1021700000240194204B1A6C42F080521A641B6CAC
:1021800003F080530193019B02941C4B1A6842F4A4
:1021900040421A601B6803F440430293029B0123F0
:1021A000089309934FF480030F93102310934FF477
:1021B000A8731193042612960723139302250E95F4
:1021C00008A8FEF7FBF90F230393049505944FF439
:1021D000805306930794294603A8FEF751FCFEF7A7
:1021E0007BFD074BA3FB00308009FEF7B3F93046B7
:1021F000FEF7C6F914B070BD003802400070004010
:10220000D34D621008B5FEF721F9FFF7AFFFFEF7D7
:10221000BBFE08BD084B01221A70084A1378C3F1AF
:102220000103DBB21370002301E000BF0133044A55
:102230009342FAD9704700BF8A0000200F1800208F
:10224000DF93040010B586B0FFF7EEF90020FFF72A
:102250002DFA00210846FFF701FA01210020FFF7BF
:10226000FDF90E210320FFF7F9F904210320FFF700
:10227000F5F90C210320FFF7F1F90320FFF71EFC0D
:1022800001210320FFF726FC28490320FFF776FCF5
:1022900003210020FEF77EFF0920FFF713FA032039
:1022A000FFF762FA002206210920FFF71DFA002439
:1022B0000494CDF8134003238DF8113001238DF8D9
:1022C000143002238DF8153004A8FFF7DBFB184B00
:1022D00093E803000290ADF80C10090C8DF80E1075
:1022E00002A8FFF771FD01E000BF0134114B9C42D1
:1022F000FAD90020FFF7B1FE0AE00F4A002400944B
:102300004FF6FF7305210846FFF70AFF0B4B1C70C1
:102310000A4B1B78002BFBD00020FFF79EFE084BDA
:102320001B78002BE9D0074AE8E700BF1522000818
:10233000FC370008DF930400580000208A000020CA
:102340000F1800202400002070470000014B18687F
:10235000704700BF8C000020034613F8012B002AB1
:10236000FBD1181A0138704730B5141E05469BB0D2
:10237000184605DA8B232B604FF0FF301BB030BDC1
:102380004FF40273ADF80C3014BF04F1FF33234651
:10239000029305934FF6FF7300910491ADF80E3050
:1023A00002461E9B6946284600F072F8431CBCBFDB
:1023B0008B232B60002CE1D0009B00221A70DDE7FC
:1023C00007B5009313460A46014603480068FFF725
:1023D000CBFF03B05DF804FB8C0000202DE9F04733
:1023E0008E689E4282460C469046994637D88A8926
:1023F00012F4906F31D0256809696F1A656902235C
:1024000005EB450595FBF3F509F101033B449D42BE
:1024100038BF1D46530530D5294600F07BFB0646E4
:1024200050B90C23CAF80030A38943F04003A381BC
:102430004FF0FF30BDE8F0873A46216900F0F8FA26
:10244000A38923F4906343F08003A381266165612F
:102450003E44ED1B2660A5604E464E4500D94E46D3
:1024600032464146206800F0EEFAA3689B1BA36049
:1024700023681E4426600020DCE72A4600F0A4FB07
:1024800006460028E2D12169504600F0F5FAC8E777
:102490002DE9F04F9DB0804603938B891D060C46B5
:1024A00016460FD50B696BB9402100F033FB206055
:1024B000206128B90C23C8F800304FF0FF30C7E086
:1024C000402363610023099320238DF829303023B2
:1024D0008DF82A304FF0010B37463D4615F8013B89
:1024E0000BB1252B3ED1B7EB060A0BD05346324633
:1024F00021464046FFF772FF013000F0A480099B9F
:10250000534409933B78002B00F09D8000234FF04B
:10251000FF32CDE90523049307938DF853301A93C6
:102520002F46052217F8011B4F4800F031FA049B93
:10253000D0B9D90644BF20228DF853201A0744BFD2
:102540002B228DF853202A782A2A15D0079A2F4655
:1025500000200A25394611F8013B303B092B4DD9A3
:10256000B8B10FE02F46B8E73F4A801A0BFA00F0E7
:10257000184304903D46D3E7039A111D1268039156
:10258000002A01DB079204E0524243F00203079263
:1025900004933B782E2B0CD17B782A2B33D1039BD1
:1025A0001A1D1B680392002BB8BF4FF0FF33023790
:1025B00005932E4D39780322284600F0E9F938B109
:1025C0004023401B03FA00F0049B034301370493AC
:1025D000397827488DF8281006227E1C00F0D8F99B
:1025E000002838D0234B13BB039B073323F007038A
:1025F00008330393099B4B4409936DE705FB0232B3
:1026000001200F46A6E700230137059319460A2546
:10261000384610F8012B303A092A03D9002BC8D0CC
:102620000591C6E705FB012101230746F0E703AB4F
:1026300000932246104B04A94046AFF30080B0F14E
:10264000FF3F8146D6D1A3895B063FF536AF099897
:102650001DB0BDE8F08F03AB00932246064B04A9E2
:10266000404600F081F8EAE703380008093800081E
:102670000D38000800000000DD2300082DE9F047B8
:1026800091461F468A680B69DDF820809342B8BFE7
:102690001346C9F8003091F8432006460C4612B1A3
:1026A0000133C9F800302368990642BFD9F80030D9
:1026B0000233C9F80030256815F0060507D104F18A
:1026C000190AE368D9F800209B1AAB4228DC94F879
:1026D00043302268003318BF012392062DD404F141
:1026E000430239463046C047013020D02368E568B0
:1026F000D9F8002003F00603042B08BFAD1AA36825
:1027000022690CBF25EAE57500259342C4BF9B1AD8
:10271000ED184FF000091A344D451AD1002008E099
:102720000123524639463046C047013003D14FF0AD
:10273000FF30BDE8F0870135C3E7E1185A1C3020AF
:1027400081F84300224494F8451082F84310023384
:10275000C5E70123224639463046C0470130E6D05E
:1027600009F10109D8E700002DE9F04301F1430C1C
:102770000C46097E85B06E291746064698460C9A87
:1027800000F0B38022D8632936D00AD8002900F09F
:10279000B980582900F0838004F1420584F8421082
:1027A00032E0642901D06929F6D120681368050652
:1027B00003F104012AD51B681160002B03DA2D22D6
:1027C0005B4284F843206F480A2239E0732900F005
:1027D0009D8008D86F2920D07029DDD1236843F06F
:1027E0002003236003E0752917D07829D4D17823FA
:1027F00084F84530644855E01368191D1B68116062
:1028000004F1420584F8423001238CE01B6811601A
:1028100010F0400F18BF1BB2CFE713682568181DD2
:102820001060280601D51B6802E06806FBD51B88EE
:1028300054486F2914BF0A220822002184F843104B
:102840006568A560002DC0F29580216821F0040123
:102850002160002B3DD1002D40F08E806546082A76
:102860000BD12368DB0708D5236962689A42DEBF73
:10287000302305F8013C05F1FF35ACEB050323617E
:10288000CDF800803B4603AA21463046FFF7F6FE0E
:1028900001304DD14FF0FF3005B0BDE8F08339482D
:1028A00084F84510136821681D1D1B6815600A0611
:1028B0000BD5CA0744BF41F0200121601BB9226833
:1028C00022F0200222601022B7E74D0648BF9BB2DB
:1028D000EFE76546B3FBF2F102FB1133C35C05F889
:1028E000013D0B460029F5D1B9E7136825686169F8
:1028F000181D106028061B6801D5196002E06A06E1
:10290000FBD51980002323616546B9E71368191DBB
:1029100011601D6862680021284600F039F808B18E
:10292000401B606063682361002384F84330A7E79D
:1029300023692A4639463046C0470130AAD0236869
:102940009B0713D4E068039B9842B8BF1846A3E7DF
:1029500001234A4639463046C04701309AD00135F6
:10296000E368039A9B1AAB42F2DCEBE7002504F123
:102970001909F5E7002BACD1037884F8423004F153
:1029800042056CE7143800082538000800000000F4
:1029900001F0FF01102A2BDB10F0070F08D010F810
:1029A000013B013A8B422DD010F0070F42B3F6D114
:1029B000F0B441EA012141EA014122F007047FF02D
:1029C00000070023F0E80256083C85EA010586EA84
:1029D000010685FA47F5A3FA87F586FA47F6A5FAC0
:1029E00087F68EB9EED1F0BC01F0FF0102F00702CC
:1029F00032B110F8013B013A83EA010313B1F8D177
:102A00000020704701387047002D06BF3546033857
:102A1000073815F0010F07D1013015F4807F02BF90
:102A2000013015F4C03F0130F0BC0138704700BFE1
:102A300010B5431E0A44914200D110BD11F8014B5C
:102A400003F8014FF7E7884210B501EB020307D8FE
:102A5000421E99420AD011F8014B02F8014FF8E7E3
:102A60008342F5D98118D21AD34200D110BD13F890
:102A7000014D01F8014DF7E738B50546002945D06D
:102A800051F8043C0C1F002BB8BFE41800F0D2F83A
:102A90001F4A1368104633B9636014602846BDE8C6
:102AA000384000F0C8B8A3420CD92168621893429C
:102AB00004BF1A685B68636004BF52182260046038
:102AC000ECE713465A680AB1A242FAD919685818B5
:102AD000A0420BD120680144581882421960DDD110
:102AE000106852685A6001441960D7E702D90C2374
:102AF0002B60D3E7206821188A4204BF116852680E
:102B0000626004BF091821605C60C7E738BD00BF80
:102B10001018002070B5CD1C25F0030508350C2DCC
:102B200038BF0C25002D064601DBA94203D90C2332
:102B30003360002070BD00F07DF8214A1468214602
:102B400091B9204C23681BB9304600F063F820602F
:102B50002946304600F05EF8431C24D10C23336034
:102B6000304600F068F8E4E70B685B1B18D40B2BC9
:102B70000FD90B60CD50CC18304600F05CF804F152
:102B80000B00231D20F00700C31AD3D05A42E25095
:102B9000D0E78C424B6816BF636013600C46EBE7CE
:102BA0000C464968CCE7C41C24F00304A04205D0BD
:102BB000211A304600F02EF80130CFD02560DBE737
:102BC0001018002014180020F8B5074614460E46C9
:102BD00021B91146BDE8F840FFF79CBF22B9FFF7C5
:102BE0004BFF25462846F8BD00F026F8A0420FD23C
:102BF00021463846FFF78EFF05460028F2D03146C1
:102C00002246FFF715FF31463846FFF735FFE9E763
:102C10003546E7E738B5064C0023054608462360ED
:102C2000FEF76CF8431C02D1236803B12B6038BD5A
:102C30001C1800207047704751F8043C181F002BE7
:102C4000BCBF0B58C01870472E2E2F737973746554
:102C50006D2F7372632F73746D333266342D686118
:102C60006C2F73746D3332663478785F68616C5F93
:102C7000636F727465782E6300000000000000002E
:102C80000102030401020304060708092E2E2F7314
:102C9000797374656D2F7372632F73746D3332663D
:102CA000342D68616C2F73746D3332663478785FBD
:102CB00068616C5F7263632E6300000061626F7213
:102CC0007428292C2065786974696E672E2E2E0071
:102CD0006173736572745F706172616D282920661B
:102CE00061696C65643A2066696C652022257322EF
:102CF0002C206C696E652025640A000053746163A2
:102D00006B206672616D653A0A0000002052302027
:102D10003D2020253038580A000000002052312084
:102D20003D2020253038580A000000002052322073
:102D30003D2020253038580A000000002052332062
:102D40003D2020253038580A000000002052313242
:102D5000203D20253038580A00000000204C522029
:102D60003D2020253038580A000000002050432024
:102D70003D2020253038580A0000000020505352D2
:102D8000203D20253038580A000000004653522FBD
:102D90004641523A0A0000002043465352203D204B
:102DA00020253038580A00002048465352203D2044
:102DB00020253038580A00002044465352203D2038
:102DC00020253038580A00002041465352203D202B
:102DD00020253038580A0000204D4D464152203DF4
:102DE00020253038580A00002042464152203D201C
:102DF00020253038580A00004D6973630A0000002E
:102E0000204C522F4558435F52455455524E3D2059
:102E1000253038580A0000005B48617264466175CD
:102E20006C745D0A000000005B4275734661756C4E
:102E3000745D0A005B55736167654661756C745D0E
:102E40000A0000000000000000000000010203046E
:102E50000607080900000000000000000000000054
:102E600000000000000000000000000000007000F2
:102E700070007000700070007000000000007000B2
:102E80007000000000000000D800D800D80000004A
:102E90000000000000000000000000000000000032
:102EA000000050005000FC0150005000FC01500098
:102EB0005000000000000000000000002000F800AA
:102EC000A000F0002800F800200000000000000032
:102ED000000000000000C400C800100020004000F6
:102EE0009800180100000000000000000000000031
:102EF0006000900090006000A20094006800000054
:102F00000000000000000000000030003000300031
:102F100000000000000000000000000000000000B1
:102F200000000000180030006000600060006000D9
:102F30006000300018000000000000000000600089
:102F40003000180018001800180018003000600049
:102F50000000000000000000000044002800FE0007
:102F600028004400000000000000000000000000F5
:102F700000000000100010001000FE001000100003
:102F80001000000000000000000000000000000031
:102F90000000000000000000300030003000600041
:102FA0000000000000000000000000000000FE0023
:102FB0000000000000000000000000000000000011
:102FC00000000000000000000000000030003000A1
:102FD00000000000000000000000020004000800E3
:102FE00010002000400080000000000000000000F1
:102FF000000000007800CC00C600C600C600C60075
:10300000CC0078000000000000000000000030004C
:10301000700030003000300030003000FC00000054
:1030200000000000000000007800CC000C00180038
:1030300030006000C000FC00000000000000000044
:1030400000007800CC000C0038000C000C00CC0014
:103050007800000000000000000000001C003C00A0
:103060006C00CC00FE000C000C001E0000000000F4
:10307000000000000000FC00C000C000F8000C00D0
:103080000C00CC00780000000000000000000000F0
:1030900038006000C000F800CC00CC00CC00780004
:1030A00000000000000000000000FC000C00180000
:1030B0003000300060006000600000000000000090
:1030C000000000007800CC00CC007800CC00CC00E0
:1030D000CC00780000000000000000000000780034
:1030E000CC00CC00CC007C000C001800700000006C
:1030F0000000000000000000000000003000300070
:10310000000000003000300000000000000000005F
:10311000000000000000300030000000000030001F
:103120003000200040000000000000000000060009
:103130001C006000800060001C0006000000000011
:10314000000000000000000000000000FE00000081
:10315000FE00000000000000000000000000000071
:103160000000C00070000C0002000C007000C000E5
:10317000000000000000000000007800CC000C00FF
:103180001800300030000000300000000000000097
:10319000000000007C0082009A00AA00AA009E00A5
:1031A00080007C00000000000000000000003000F3
:1031B0004800CC00CC00FC00CC00CC00CC000000CF
:1031C0000000000000000000F800CC00CC00F80077
:1031D000CC00CC00CC00F800000000000000000093
:1031E00000007800CC00C000C000C000C000CC00CF
:1031F000780000000000000000000000F000C8009F
:10320000CC00CC00CC00CC00C800F00000000000D6
:10321000000000000000FC00C000C000F800C0007A
:10322000C000C000FC000000000000000000000022
:10323000FC00C000C000F800C000C000C000C0001A
:10324000000000000000000000007800CC00C0007A
:10325000C000CE00CC00CC007800000000000000D0
:1032600000000000CC00CC00CC00FC00CC00CC0066
:10327000CC00CC0000000000000000000000FC00BA
:10328000300030003000300030003000FC00000022
:1032900000000000000000001E000C000C000C00EC
:1032A0000C000C00CC0078000000000000000000C2
:1032B0000000CC00D800F000E000F000D800CC0006
:1032C000C60000000000000000000000C000C000B8
:1032D000C000C000C000C000C000FC000000000032
:1032E0000000000000008200C600EE00FE00D600D4
:1032F000C600C600C600000000000000000000007C
:10330000CC00EC00FC00DC00CC00CC00CC00CC00FD
:10331000000000000000000000007800CC00CC009D
:10332000CC00CC00CC00CC007800000000000000F5
:1033300000000000F800CC00CC00F800C000C00085
:10334000C000C00000000000000000000000780085
:10335000CC00CC00CC00CC00DC0078001C000000CD
:103360000000000000000000F800CC00CC00F800D5
:10337000D800CC00CC00CC00000000000000000011
:1033800000007800CC00C000700018000C00CC00D9
:10339000780000000000000000000000FC00300089
:1033A00030003000300030003000300000000000FD
:1033B000000000000000CC00CC00CC00CC00CC0011
:1033C000CC00CC00780000000000000000000000ED
:1033D000CC00CC00CC00CC00CC00780078003000D1
:1033E00000000000000000000000C600C600C6008B
:1033F000D600FE00EE00C6008200000000000000C3
:1034000000000000CC00CC00780030007800CC0038
:10341000CC00CC0000000000000000000000CC0048
:10342000CC00CC00780030003000300030000000CC
:103430000000000000000000FC000C00180030003C
:103440006000C000C000FC000000000000000000A0
:103450000000F000C000C000C000C000C000C000FC
:10346000C000C000F000000000000000800040002C
:10347000200010000800040002000000000000000E
:103480000000000000007800180018001800180064
:103490001800180018001800780000000000000054
:1034A000100038006C00C6000000000000000000A2
:1034B000000000000000000000000000000000000C
:1034C000000000000000000000000000FF000000FD
:1034D00000000000300018000000000000000000A4
:1034E00000000000000000000000000000000000DC
:1034F000000078000C007C00CC00CC0076000000BE
:103500000000000000000000C000C000C000F80083
:10351000CC00CC00CC00F80000000000000000004F
:103520000000000000007800CC00C000C000CC000B
:103530007800000000000000000000000C000C00FB
:103540000C007C00CC00CC00CC0076000000000019
:10355000000000000000000000007800CC00FC002B
:10356000C000CC0078000000000000000000000057
:1035700038006C006000F8006000600060006000CF
:1035800000000000000000000000000000007600C5
:10359000CC00CC00CC007C000C00CC0078000000FB
:1035A00000000000C000C000D800EC00CC00CC003F
:1035B000CC00CC0000000000000000000000300043
:1035C0000000700030003000300030007800000053
:1035D00000000000000000000C0000000C000C00C7
:1035E0000C000C000C000C00CC0078000000000067
:1035F0000000C000C000CC00D800F000D800CC0013
:10360000C600000000000000000000007000300054
:103610003000300030003000300078000000000042
:1036200000000000000000000000CC00FE00FE00D2
:10363000D600C600C6000000000000000000000028
:1036400000000000D800EC00CC00CC00CC00CC0086
:1036500000000000000000000000000000007800F2
:10366000CC00CC00CC00CC007800000000000000B2
:103670000000000000000000F800CC00CC00CC00EE
:10368000F800C000C000C000000000000000000002
:1036900000007600CC00CC00CC007C000C000C00BC
:1036A0000C0000000000000000000000DC007600BC
:1036B000600060006000600000000000000000008A
:1036C0000000000000007C00C00070001C000C0026
:1036D000F8000000000000000000000010003000B2
:1036E000FC00300030003000340018000000000002
:1036F00000000000000000000000CC00CC00CC0066
:10370000CC00CC00760000000000000000000000AB
:1037100000000000CC00CC00CC0078007800300025
:103720000000000000000000000000000000C600D3
:10373000D600FE00FE006C00440000000000000007
:103740000000000000000000CC007800300078008D
:10375000CC00CC00000000000000000000000000D1
:103760000000CC00CC00CC007800300030006000BD
:10377000C00000000000000000000000FC00180075
:1037800030006000C000FC000000000000000000ED
:1037900000001C0030003000E0003000300030003D
:1037A0001C000000000000000000000018001800CD
:1037B0001800000018001800180018000000000091
:1037C000000000000000E000300030001C0030006D
:1037D00030003000E00000000000000000000000A9
:1037E00000007600DC000000000000000000000087
:1037F00000000000000000000000000000010000C8
:10380000010002232D302B2000686C4C0065666798
:103810004546470030313233343536373839414246
:103820004344454600303132333435363738396118
:063830006263646566009E
:1038380078563412FC000020000000000024F40038
:10384800000002020100000000FFFFFF080D000059
:10385800542E00084920616D2066696E65207468E1
:10386800616E6B20796F7520000000000000000079
:103878000000000000000000000000000000000040
:10388800000000000000FFFF48656C6C6F206D7938
:1038980020467269656E6420486F772061726520E2
:1038A800796F7500000000000000000000000000B3
:1038B8000000000000000000000001FF9000002050
:1038C80000000000000000000000000000000000F0
:1038D80000000000000000000000000000000000E0
:1038E80000000000000000000000000000000000D0
:1038F80000000000000000000000000000000000C0
:1039080000000000000000000000000000000000AF
:10391800000000000000000000000000000000009F
:043928003254769807
:040000050800019559
:00000001FF
